:020000040000FA
:2010000000000420158B00003D8B00003F8B0000418B0000438B0000458B00000000000010
:20102000000000000000000000000000478B0000498B0000000000004B8B00004D8B00005C
:2010400029C9000029BF0000E55501004F8B00004F8B00004F8B0000C5C500004F8B000089
:20106000DD1601004F8B00004F8B000039CA00004F8B000039C900004F8B00004F8B000035
:2010800045EA00004F8B00004F8B00004F8B00004F8B00004F8B00004F8B00004F8B00002B
:2010A0004F8B00004F8B00004F8B00004F8B00004F8B00004F8B0000000000000000000014
:2010C0004F8B00004F8B00004F8B00004F8B00004F8B00004F8B00004F8B000029E200000F
:2010E0004F8B00004F8B00004F8B000000000000000000004F8B0000000000004F8B0000AE
:201100000000000000000000000000000000000000000000000000000000000000000000CF
:201120000000000000000000000000000000000000000000000000000000000000000000AF
:2011400000000000000000000000000000000000000000000000000000000000000000008F
:2011600000000000000000000000000000000000000000000000000000000000000000006F
:2011800000000000000000000000000000000000000000000000000000000000000000004F
:2011A00000000000000000000000000000000000000000000000000000000000000000002F
:2011C00000000000000000000000000000000000000000000000000000000000000000000F
:2011E0000000000000000000000000000000000000000000000000000000000000000000EF
:2012000001F0FF01102A2BDB10F0070F08D010F8013B013A8B422DD010F0070F42B3F6D194
:20122000F0B441EA012141EA014122F007047FF000070023F0E80256083C85EA010586EA41
:20124000010685FA47F5A3FA87F586FA47F6A5FA87F68EB9EED1F0BC01F0FF0102F007023C
:2012600032B110F8013B013A83EA010313B1F8D10020704701387047002D06BF354603389F
:20128000073815F0010F07D1013015F4807F02BF013015F4C03F0130F0BC0138704700BF63
:2012A000D0B5038804463BB15C2B0DD188290FD082290DD00120D0BD80211D4807F0D8F8F0
:2012C0005C2323800120D0BD002303800320D0BD05F034FAE8B905F015FA02460B4652EA4B
:2012E000030116D010A7D7E90067D90141EA5261D0018F4208BF86420FD3002908BFB0F5C6
:201300007A7F0DD34FF47A72002318F011FD0146D3E708480DF00CFFD2E74FF4F051CCE743
:201320000121CAE7AFF30080E733750000000000C40B0020A800002038B52DED068BB0EE3C
:20134000408AF0EE608A0DF07BFF07EE900A9FED2A9AF8EE677AC7EE899A0DF071FF9FED0D
:20136000277A07EE900AF4EEC79AF8EE677AF1EE10FA87EE89AA32D919EE900A18F058F99D
:2013800041EC100B00F090F800224FF0404351EC100B18F0A5F941EC100B16F097FF1AEEBF
:2013A000100A55EC104B18F043F90FA3D3E9002318F096F941EC100B00F022F8204653EC14
:2013C000102B294618F08CF918F062FC07EE900A27EEA80A30EE080ABDEC068B38BD9FED2F
:2013E000040BCFE7AFF30080182D4454FB211940000000E0E2361A3F00FF7F4717B7D138C7
:2014000000B551EC100B264A21F00043934285B01EDD244A934209DD10EE102A0B4617F03D
:20142000A7FF41EC100B05B05DF804FB684600F08FFA00F00300012811D0022825D0E8B1D9
:201440009DED021B9DED000B012001F021FAEAE79FED111B00F0B4FC05B05DF804FB9DED67
:20146000021B9DED000B01F013FA53EC102B03F1004300EE903A05B05DF804FB9DED021BA3
:201480009DED000B00F09CFCCDE79DED021B9DED000B00F095FCE8E70000000000000000EF
:2014A000FB21E93FFFFFEF7F38B52DED028B55EC104B00F041F81E4BB0EE408AF0EE608A8A
:2014C00093F9003001331AD022462B462046294618F0A0FB98B9002200232046294618F06E
:2014E0008FFB60B9204629460022002318F060FB60B116F0F3FF9FED0C8B22230360B0EE5A
:20150000480AF0EE680ABDEC028B38BD16F0E6FFBDEC028B21230360BDE83840054801F0DB
:20152000FBBA00BFAFF30080000000000000F0FFB0030020C8AB01002DE9F04F51EC100B32
:201540002DED028BB1F5801F83B00B4657DA21F00042024300F0FE800029C0F23E81E44B1B
:20156000002218F0BDF8E34A0B4693426FF035074ADCC3F3130505F5152606F6647606F4A5
:20158000801686F07F5282F4401242EA05011C150022D94B17F0ECFEAB1CA4F2FF34C3F3C6
:2015A00013033C44022B04EB165482468B464FF0000234DC002318F0FBFA002800F0D78096
:2015C000002C00F06681204618F020F8B2A3D3E9002306460F4618F083F8B1A3D3E90023F7
:2015E00004460D463046394618F07AF802460B462046294617F0BEFE41EC100B0AE0BD4A75
:2016000093424FF00007B4DD02460B4617F0B2FE41EC100B03B0BDEC028BBDE8F08F4FF03A
:20162000804317F0A7FE02460B465046594618F081F902460B46204643EC182B17F0E6FF8E
:2016400053EC182B06460F4651EC180BCDE9006718F046F802460B468046894618F040F836
:2016600091A3D3E9002306460F4618F039F890A3D3E9002317F07EFE32463B4618F030F8BF
:201680008DA3D3E9002317F075FE32463B4618F027F88BA3D3E9002317F06CFE42464B460A
:2016A00018F01EF888A3D3E90023804689463046394618F015F886A3D3E9002317F05AFEFC
:2016C00032463B4618F00CF883A3D3E9002317F051FE32463B4618F003F80B460246494686
:2016E000404617F047FEA5F5C223C5F5D725A3F27A4351351D43002D06460F465FDD7F4BD7
:2017000000225046594617F0EBFF52465B4617F0E7FF80468946002C6AD142464B463046D0
:20172000394617F027FE53EC182B17F0D9FF02460B464046494617F01BFE02460B465046A0
:20174000594617F015FE41EC100B03B0BDEC028BBDE8F08F002200236949002018F0EAF87A
:2017600041EC100B03B0BDEC028BBDE8F08F5CA3D3E900235046594617F0B2FF02460B46B0
:2017800000205E4917F0F4FD524606460F465B465046594617F0A4FF02460B463046394643
:2017A00017F09EFF06460F46002C5AD102460B465046594617F0DCFD41EC100B2AE7002C5A
:2017C00040F0A08002460B465046594617F0D0FD53EC182B17F084FFAFE710EE102A17F036
:2017E000C7FD0022002318F0A5F841EC100B11E729A3D3E90023DDE9000117F071FF42468A
:201800004B4604460D463046394617F0B3FD53EC182B17F065FF22A3D3E9002306460F46BC
:20182000DDE9000117F05CFF02460B463046394617F0A0FD02460B464046494617F098FD03
:2018400052465B4617F094FD02460B462046294617F08EFD41EC100B03B0BDEC028BBDE8E1
:20186000F08F204617F0D2FE0BA3D3E900238046894617F035FF0AA3D3E9002304460D4626
:201880004046494617F02CFF02460B4630463946D4E79FED150BBDE60000E0FE422EE63FF6
:2018A000763C7935EF39EA3D44523EDF12F1C23FDE03CB966446C73F599322942449D23FB0
:2018C000935555555555E53F9FC678D0099AC33FAF788E1DC571CC3F04FA97999999D93FCB
:2018E000555555555555D53F000000000000000000005043FFFFEF7F0000F03F0000E03F89
:20190000000050C3DDE900890DA3D3E900234046494617F0E5FE32463B4604460D465046AB
:20192000594617F025FD53EC182B17F0D9FE06A3D3E9002306460F46A2E700BFAFF30080EC
:201940000000E0FE422EE63F763C7935EF39EA3D2DE9F04F53EC102B2DED048B924923F0FF
:2019600000458D4289B0044640F38F808F498D429B462DDCBBF1000F194610EE100A80A3A8
:20198000D3E9002340F3C78117F0F2FC884B9D4206460F4600F091807BA3D3E9002317F0A0
:2019A000E7FC02460B46C4E900233046394617F0DFFC75A3D3E9002317F0DAFCC4E9020180
:2019C0004FF0010A504609B0BDEC048BBDE8F08F78498D4240F3948077498D4210EE100A94
:2019E00061DC4FEA255AAAF2164AA5EB0A5116460F4618F025F917F009FE8046894630461B
:201A0000394642464B46CDE9028917F0B1FC6B4B002217F065FE0F46064618F011F90546F9
:201A200017F0F4FD02460B4630463946CDE9042317F09EFC614B002217F052FE02460B46E4
:201A4000CDE906230022002318F0B2F8002800F06081002D0CBF01230223594A019202211D
:201A60005246009102A8214600F0EAFABBF1000F8246A7DA6268E36802F1004203F10043D3
:201A8000C0F1000A6260E3609CE7002000214FF0000AC4E90201504684ED000B09B0BDEC55
:201AA000048BBDE8F08F194617F062FC4FF0000AC4E90201C4E9000184E735A3D3E90023E6
:201AC00017F056FC34A3D3E9002306460F4617F04FFC02460B46C4E900233046394617F09F
:201AE00047FC2DA3D3E9002317F042FC4FF0010AC4E90201504609B0BDEC048BBDE8F08F0A
:201B000016F0E2FC57EC106B10EE100A24A3D3E90023394617F0E4FD2A4B002217F02AFC3A
:201B200018F08EF8824617F071FD15A3D3E900238046894617F0D4FD02460B463046394648
:201B400017F016FC10A3D3E9002306460F464046494617F0C5FDBAF11F0F49EC198B47EC76
:201B6000186B8046894631DC174B0AF1FF3253F82230AB422AD002460B4630463946A4E01C
:201B800000004054FB21F93F3163621A61B4D03D0000601A61B4D03D7370032E8A19A33BFA
:201BA00083C8C96D305FE43FFB21E93F7BD90240FB21F93FFB213941FFFFEF7F0000704111
:201BC0005CB601000000E03FDCB5010042464B4651EC180B17F0CCFB0A46C2F30A53C3EBEA
:201BE0001553102B0146064617464FEA255573DD69A3D3E9002351EC190B17F071FD59EC49
:201C0000188B06460F4632463B4618EE100A494617F0AEFB41EC180B404653EC182B494641
:201C200017F0A6FB32463B4617F0A2FB5CA3D3E9002306460F4651EC190B17F051FD3246B2
:201C40003B4617F095FB8046894642464B4651EC180B17F08DFB0A46C2F30A53ED1A312D08
:201C600001460646174637DD50A3D3E9002351EC190B17F035FD56EC185B80468946424622
:201C80004B4618EE100A314617F072FB41EC180B314653EC182B284617F06AFB42464B466C
:201CA00017F066FB43A3D3E9002306460F4651EC190B17F015FD32463B4617F059FB8046C2
:201CC000894651EC180B42464B4617F051FBC4E9000106460F4601E0C4E9001232463B4681
:201CE00051EC180B17F044FB42464B4617F040FBBBF1000FC4E90201BFF664AE07F1004574
:201D000001F10043C4E90065C4E90203CAF1000A58E60323A1E617F02DFB234B9D42064652
:201D20000F4616D01AA3D3E9002317F023FB02460B46C4E900233046394617F019FB14A377
:201D4000D3E9002317F016FB4FF0FF3AC4E9020138E611A3D3E9002317F00CFB10A3D3E936
:201D6000002306460F4617F005FB02460B46C4E900233046394617F0FBFA09A3D3E90023B3
:201D800017F0F8FA4FF0FF3AC4E902011AE600BF3163621A61B4D03D0000601A61B4D03D95
:201DA0007370032E8A19A33BFB21F93F0000002E8A19A33BC14920259A837B39000000006B
:201DC0002DE9F84F57EC106B27F00049B9F1795F2DED048B5BEC11AB71DA10EE100A394678
:201DE00017F02EFF002800F0F68032463B463046394617F075FC7CA3D3E9002304460D4620
:201E000017F06EFC7AA3D3E9002317F0B3FA22462B4617F065FC78A3D3E9002317F0A8FABD
:201E200022462B4617F05CFC75A3D3E9002317F0A1FA22462B4617F053FC73A3D3E90023AD
:201E400017F096FA22462B4617F04AFC70A3D3E9002317F08FFA22462B4617F041FC41ECF9
:201E6000180B714B00222046294617F039FC53EC182B804689462046294617F031FC524698
:201E80005B4604460D463046394617F029FC02460B462046294617F06BFA02460B464046EA
:201EA000494617F065FA02460B4600205F4917F05FFABDEC048B41EC100BBDE8F88F10EEC2
:201EC000102A10EE100A3B46394617F009FC46A3D3E9002304460D4617F002FC44A3D3E997
:201EE000002317F047FA22462B4617F0F9FB42A3D3E9002317F03CFA22462B4617F0F0FBD7
:201F00003FA3D3E9002317F035FA22462B4617F0E7FB3DA3D3E9002317F02AFA22462B4645
:201F200017F0DEFB3AA3D3E9002317F023FA2B46224617F0D5FB3E4B994541EC180B90DD0D
:201F40003C4B99453CDC0022A9F50013374900209046994617F00CFA41EC190B324B0022DF
:201F60002046294617F0BCFB42464B4617F000FA53EC182B804689462046294617F0B0FB16
:201F800052465B4604460D463046394617F0A8FB02460B462046294617F0EAF902460B46DB
:201FA0004046494617F0E4F902460B4651EC190B17F0DEF9BDEC048B41EC100BBDE8F88FA4
:201FC0009FED157BDFF87090B0EE479AF0EE679A4FF00008C2E7BDEC048B9FED110BBDE83B
:201FE000F88F00BFAFF30080D43888BEE9FAA8BDC4B1B4BD9EEE213EAD529C804F7E923E56
:202000009015CB19A001FA3E7751C1166CC1563F4C5555555555A53F000000000000E73FFE
:20202000000000000000F03F0000E03F0000F03F3233D33F0000E93F0000D23F0000000073
:202040002DE9F04FADF5197DBB4CA29D089354F825400594013B12F1140F04900B910393A0
:20206000C0F22683B549D31E81FB0301DB17C3EBA10307930133A3EB8303DB00D318069311
:20208000079A039BD41A059AD6181AD40136A39F4FF000084FF00009264420AD08E057F822
:2020A000240017F0B3FA0134B442E5E8020108D0002CF4DA013440464946B442E5E802016B
:2020C000F6D1059B002BC0F2C883089BDDF80C90DA000292059A1A440192049A20A901EB0C
:2020E000C30A0DF5E07B02EBC308039B002B4FF000044FF0000511DB049E574677E90223FE
:20210000F6E8020117F0ECFA02460B462046294617F030F9464504460D46EFD1019B09F1D5
:2021200001099945EBE802450AF1080ADDD1059A04980CA901EB820302990144083B8B468D
:202140000BA90993134601EB82020A920193019A98A901EBC203002A53E928452ADD0DF5CD
:20216000E07909EBC2080DF1300A754B00222046294617F0B5FA17F063FD17F047FA714B38
:20218000002206460F4617F0ABFA02460B462046294617F0EDF817F053FD044678E902234F
:2021A0004AF8044B3046394617F0E4F8C84504460D46DAD1DDF8189045EC104B484600F0DA
:2021C000B3FC55EC104B00224FF07F5310EE100A294617F085FA41EC100B00F019FC5A4B82
:2021E00051EC100B002217F07BFA02460B462046294617F0BDF80D46044617F021FD804637
:2022000017F004FA0B4602462946204617F0B0F84B46002B06460F4640F39880019A0CA9A4
:20222000013AC9F1180351F8225045FA03F101FA03F3EB1AC9F117050CA843FA05F5002DBC
:2022400040F82230884400F38B80002200233046394617F0ADFC002800F05682019B059A15
:2022600003F1FF3A524510DC03F180430CAA013B0A9802EB8303002253F80419834242EA75
:202280000102F9D1002A40F0DC80059B0CAA013B52F82330002B40F0CF80099A012352F8D1
:2022A000041901330029FAD001994A1CCB1802939146079B089902EB030A019B0B44984685
:2022C00020AB0AF1804A03EBC808A39B0AF1FF3A03EB8A0A70AB03EBC20301935AF8040FF5
:2022E00017F094F90B46039902460029C8E9002347464FF0000408F108084FF0000511DB0F
:20230000049E01E077E90223F6E8020117F0E8F902460B462046294617F02CF85E45044666
:202320000D46EFD1019BE3E802450193029B09F101099945D2DD09E764B70100ABAAAA2AE5
:202340000000703E00007041000020406BD1019B0CAA013B52F82350ED15002D7FF775AF6E
:20236000019B002B08F1010840F3CC810C9C002C51D1019B012B20D00CAB012253F8044FEE
:20238000002C4BD0531C0CA9C4F1807441F822400199994210DD0CAA0CA852F8232000EB4A
:2023A000830300EB81006FF07F4100E01A688A1A43F8042B8342F9D10124069B002B0EDD31
:2023C000012B00F06A81022B09D1019B5A1E0CAB0CA953F82230C3F3150341F82230022D4A
:2023E0007FF433AF32463B46B949002016F0C0FF06460F46002C3FF428AF06989FEDB00BEC
:2024000000F092FB3046394653EC102B16F0B0FF06460F4619E701230022B4E701990132CC
:202420008A42ABD1C9E7AB4B002217F0DFFB002840F05681054608E7019B5A1C91460292C5
:2024400037E70CAB069A53F82A30CDF81C80183A0395069273B9019B03F18043023B0CA90E
:2024600001EB830353F804190AF1FF3A183A0029F8D006929FED920B069800F055FBBAF1C1
:20248000000F55EC104BC0F2DE8170AB03EBCA0B0CAA0AF10103069302EB83084FEACA03D6
:2024A0000BF10809049358F8040D17F0AFF822462B4617F015F906460F46874B2046294633
:2024C00069E90267002217F00BF90CAB984504460D46E8D148ABCDE9013ADDF814A0BAF112
:2024E000000F4FF000092CDB77A3D3E90023DFF8EC815F4600240025002603E0B14510DB69
:20250000F8E80223F7E8020117F0EAF802460B462046294616F02EFF0136B24504460D467F
:20252000ECDA019B029A03EBC9034A45C3E90045ABF1080B09F1010306D0BAF1000F994647
:20254000D2DA00240025ECE7A29BDDF808A0022B1EDC002B00F30F8113D1049C019D0834C6
:20256000002000212C4474E9022316F003FFA542F9D1039B13B101F1004319460B9BC3E927
:202580000001079B03F007000DF5197DBDE8F08FA29B032BF5D1BAF1000F00F07081019A7B
:2025A000049BD318D3E9004502EBCA0B7BE902672046294632463B4616F0DCFEA046A9467E
:2025C00004460D4622462B463046394616F0D0FE4B46424616F0CEFE019B5B45CBE900459C
:2025E000CBE90201E2D1BAF1010F40F34881019A049B0AF1005A0AF1FF3A13444FEACA019C
:20260000D3E9004501F1080A029192440DF5947B7AE902672046294632463B4616F0AAFEF3
:20262000A046A94604460D4622462B463046394616F09EFE42464B4616F09CFED345CAE934
:202640000045CAE90201E3D1029C019B0026002710341C4403F110053046394674E9022320
:2026600016F088FEA542F9D106460F46039B002B40F0BF80019A0B99D2E90045D2E9022325
:20268000C1E90223079B03F00700C1E90467C1E900450DF5197DBDE8F08F019B5A1E0CAB44
:2026A0000CA953F82230C3F3160341F8223096E600216FF017030791E0E400BFAFF300801B
:2026C000000000000000F03F00000040FB21F93F0000F03F0000E03F0000703EF0A30100A7
:2026E000019B002B08F10108C8BF02253FF73EAE32463B466349002016F03AFE02250646CB
:202700000F46A2E5002458E6069B0395584247EC106BCDF81C8000F007FA55EC104B5A4B67
:2027200010EE100A0022294617F060FA002856D0564B00222046294616F0D2FF17F080FA51
:20274000064616F063FF504B002216F0C9FF0B4602462946204616F00BFE17F071FA069BAA
:20276000019C183304F1010A06930CAB43F8240043F82A607EE6019D069A002005EBC20485
:20278000002174E9022316F0F5FDA542F9D1039B002B48D10B9BC3E900010B460199024685
:2027A000D1E9000116F0E4FDBAF1000F0DDD4AAD0124F5E80223013416F0DCFDA245F8DAE8
:2027C000039B13B101F1004319460B9BC3E90201079B03F007000DF5197DBDE8F08F2046F0
:2027E000294617F02DFA019B0CAA9A4642F8230040E6019B19465A68DB680D688C680B997A
:2028000003F10043CB60079B0D6002F100424A6003F0070007F100428C600E614A610DF52C
:20282000197DBDE8F08F0B9C01F10043C4E900030B4601990246D1E9000116F099FDBAF11D
:20284000000FB4DCBEE7A29B022B0ADC002B11DC7FF497AE002000218BE6089BDB0002934F
:2028600065E4A29B032B7FF48CAE48AB002600270193FBE648AB00200021019387E70026E6
:202880000027F3E60000F03F000070410000703E2DE9F04F55EC104B85B025F00043B3F188
:2028A000795F8DED001B039007DA10EE100A294617F0C6F9002800F0898022462B4620468A
:2028C000294616F00DFF06460F4632463B462046294616F005FF43A3D3E9002382468B46A0
:2028E0003046394616F0FCFE40A3D3E9002316F03FFD32463B4616F0F3FE3EA3D3E900232F
:2029000016F038FD32463B4616F0EAFE3BA3D3E9002316F02DFD32463B4616F0E1FE39A3EE
:20292000D3E9002316F026FD039B80468946ABB3DDE900012A4B002216F0D2FE42464B46B1
:20294000804689465046594616F0CAFE02460B464046494616F00CFD32463B4616F0C0FE65
:20296000DDE9002316F004FD1BA3D3E9002306460F465046594616F0B3FE02460B4630462E
:20298000394616F0F7FC02460B462046294616F0EFFC41EC100B05B0BDE8F08F02460B46A6
:2029A0003046394616F09CFE0BA3D3E9002316F0DFFC52465B4616F093FE22462B4616F065
:2029C000D9FC41EC100B05B0BDE8F08F45EC104B05B0BDE8F08F00BF495555555555C53FE7
:2029E0000000E03F7CD5CF5A3AD9E53DEB9C2B8AE6E55A3E7DFEB157E31DC73ED561C119D2
:202A0000A0012A3FA6F810111111813F0000000051EC100BF8B5C1F30A53A3F2FF35132DEC
:202A200010EE106A0C4620DC002D3DDB384F2F4101EA070303431DD033A3D3E9002316F0B1
:202A400099FC0022002317F0DBF848B1002C04DA4FF4801343FA05F52C4424EA0704002603
:202A60002346324643EC102BF8BD332D05DDB5F5806F29D041EC100BF8BDA3F213434FF05B
:202A8000FF37DF400742F5D01FA3D3E9002316F071FC0022002317F0B3F80028E0D0002CC4
:202AA00023DB26EA0706DBE717A3D3E9002316F061FC0022002317F0A3F80028D0D0002C62
:202AC0000ADB00263446CBE710EE102A0B4616F051FC41EC100BF8BD24F000430D4A1E43D7
:202AE000002E18BF14460026BAE7142D08D00123C5F1340503FA05F5AE1928BFE418D0E72C
:202B00000134CEE7AFF300809C7500883CE4377EFFFF0F000000F0BF9FED010B704700BF71
:202B2000000000000000F87F38B553EC102BC3F30A511C46054681BB10EE101A23F000443E
:202B4000214329D0194600223D4B3E4C10EE100A16F0C6FDA54202460B4616DB0C46C1F32D
:202B60000A513639294440F2FE70814221DC002947DC11F1350F34DA4CF250318D4218DC9C
:202B8000002B27A1D1E9000144DB25A3D3E9002316F0A6FD41EC100B38BD40F2FF70814277
:202BA000E0D110EE100A194616F0E4FB41EC100B38BD002B1CA1D1E9000107DB1AA3D3E9CD
:202BC000002316F08DFD41EC100B38BD18A1D1E9000115A3D3E9002316F082FD41EC100B2D
:202BE000F3E724F0FF4424F4E004363144EA0153104619460022144B16F072FD41EC100BCC
:202C000038BD24F0FF4424F4E00444EA015343EC102B38BD08A1D1E90001B6E7AFF3008068
:202C200059F3F8C21F6EA5019C7500883CE4377E9C7500883CE437FE59F3F8C21F6EA58146
:202C400000005043B03CFFFF0000903C10B5054C237833B9044B13B10448AFF300800123E9
:202C6000237010BD0809002000000000DCB8010008B5034B1BB103490348AFF3008008BDD9
:202C8000000000000C090020DCB80100A3F5803A704700BF174B002B08BF134B9D46FFF717
:202CA000F5FF00218B460F461348144A121A17F0F1F90E4B002B00D098470D4B002B00D07D
:202CC00098470020002104000D000D48002802D00C48AFF3008015F01BFC2000290004F0A5
:202CE00073FE15F001FC00BF00000800000000000000000000000420C0030020244300200C
:202D0000000000000000000000B585B00346002101AA44F20100CDE90111039300F004F833
:202D200005B05DF804FB00BF72B6094B1B68DB0700D500BEBFF34F8F0649074BCA6802F4FE
:202D4000E0621343CB60BFF34F8F00BFFDE700BFF0ED00E000ED00E00400FA050378052B86
:202D600002D0094B1B681847084BD3F88424D3F8803413F0FF0FF4D1054BD2B2052A08BF66
:202D80001846014B1B681847240900200070024040A40100014B02481B68184724090020FE
:202DA00044A40100012803D0022809D020B17047054B06481B681847034B05481B681847A6
:202DC000014B04481B6818472409002038A4010034A401003CA401002DE9F04F87B00025E4
:202DE00004460F4690469946029500E001356268012356682146002202A8B0470028F5D10E
:202E00008DF80600049065B3824683460AE09DF806306668023B7668B0479DF806309B44AB
:202E20005D451ED962680123566821460DF1060204A8B04762680123566821460DF1070223
:202E400004A8B0479DF80730BB424FF00002214604A8DCD1D04508D00AF1010A5FFA8AFA35
:202E6000D5E7052007B0BDE8F08F109A9DF80630136089F8003089F801706168023B4D6850
:202E800009F102022146A847002007B0BDE8F08FF0B5054683B03B480AF0F2FC044610B14A
:202EA000204603B0F0BD384A3849394B14700C604822214637481C6017F0ECF83648214639
:202EC000482217F0E7F8002D54D095E80700334B83E80700002847D0002009F01FF908B1B4
:202EE000852844D12E4D2B7A002B49D0013BDBB205F10C024FF0030E6E68274FDFF894C018
:202F00001EFB032E05F109046378EBB1A278611C1144013B51FA83F1224408E003F00F03B3
:202F200007EBC30391421D60306858600CD012F8013B1806F2D503F00F030CEBC30391429D
:202F40001D6030685860F2D103347445DCD10B238DF804301248336801A99847044600286D
:202F60009ED00AF0CFFC9BE70E4A1A60B4E7FFF7CBFEB7E7094B0B4A5D601D721A60ABE7D1
:202F80006E68E4E75D2D0000F9350020C0090020C40900203009002078090020240900209B
:202FA00070A401006D33000010B50AF0C5FD68B10AF0CAFD044648B9064809F0C3F803466B
:202FC00028B1FFF7A1FE2346184610BD0823184610BD00BF30A401000AF09EBC0BF09CBB5F
:202FE0004FF0804303E0D3F83824D10707D5D3F838249207F7D5024B02481B681847704755
:203000002409002048A4010000B5054B83B082221B688DF8042001A8984703B05DF804FBDF
:20302000240900202DE9F043057A83B0002D5ED005F1FF3E5FFA8EF300F10C024FF0030E91
:2030400000F10901334FDFF8D4C01EFB032E0C4666780022964204EB020319D094F8028029
:2030600013F9089013F80830B9F1000F0BDB03F00F0307EBC3031B680132002BEAD0112041
:2030800003B0BDE8F08303F00F030CEBC303F2E70334A645DCD100261E4FDFF880C03246D9
:2030A00002EB42020A445378EBB1002423460CE003F00F0307EBC303186045682D685D607D
:2030C00055780134E3B29D420CD99578134413F905E05B5DBEF1000FEADA03F00F030CEB0A
:2030E000C303E9E7057A0136F2B29542D8D80A4A13681BB11A681368002BFBD110604368AF
:203100000B228DF804201B6801A9984703B0BDE8F08300BF78090020C00900203009002060
:20312000024B1878003818BF01207047F8350020030710B5044604D52046BDE810400BF036
:2031400083B90AF09BFE20460BF0D6F92046BDE810400BF079B900BF0BF0BCBB014B1868EB
:20316000704700BFC0090020F0B40E4B1F688FB13E7A96B100231C463A4602E0DCB2A642D0
:203180000BD9557A854203F1010302F10302F5D101B10C703846F0BC70473B681F68002F97
:2031A000E6D1F7E7C0090020436811461B68184700F00F03082B0AD802064CBF054A064AE4
:2031C00002EBC303186810B143681B6818471020704700BF300900207809002038B5094B8D
:2031E0001C6864B1054602E023681C683CB1636829461B68204698470628F5D038BD0620FD
:2032000038BD00BFC009002038B50D4604460AF007FD18B1054B1B78022B01D0082038BDC2
:2032200029462046BDE838400AF00ABDF935002038B50D4604460AF0F3FC18B1054B1B786E
:20324000022B01D0082038BD29462046BDE838400AF088BDF9350020F8B543689B6805462E
:203260000C4616461BB19847062800D0F8BDEEB92B7AA3421CD9093504EB44042C44677858
:2032800097B133463A469A420BD9A378A2190136D05CFFF74DFFF3B2BB4205D262789A4283
:2032A000F3D800231B78FFDE0020F8BD0720F8BD7378FFDE70B54368DB6805460C4603B1D3
:2032C00098472B7AA3421AD9093504EB44042C4466789EB100252B46324693420BD2A378A5
:2032E00062190135D05C0BF0F5FAEBB29E4205D962789342F3D300231B78FFDE70BD002354
:203300005B78FFDE43681B6903B118471846704770B50A4B1D687DB12E7A4EB10024214647
:20332000013400222846FFF797FFE1B2B142F7D32B681D68002DEFD170BD00BFC009002012
:2033400070B5094B1D6875B12E7A46B10024214601342846FFF7AEFFE1B2B142F8D32B68F5
:203360001D68002DF0D170BDC009002070B503780446852B00F2BF80DFE813F00002B2017A
:20338000BE003A026602E300EA00BD00040117012A01BD00BD00BD00BD003D01BD00BD004D
:2033A000BD00BD00BD00BD00BD00BD00BD00BD00BD00BD00BD00BD00BD00BD00BD00BD003D
:2033C000BD00BD00BD00BD00BD00BD00BD00BD00BD00BD00BD00BD00BD00BD00BD00BD001D
:2033E000BD00BD00BD00BD00BD00BD00BD00BD00BD00BD00BD00BD00BD00BD00BD00BD00FD
:20340000BD00BD00BD00BD00BD00BD00BD00BD00BD00BD00BD00BD00BD00BD00BD00BD00DC
:20342000BD00BD00BD00BD00BD00BD00BD00BD00BD00BD00BD00BD00BD00BD00BD00BD00BC
:20344000BD00BD00BD00BD00BD00BD00BD00BD00BD00BD00BD00BD00BD00BD00BD00BD009C
:20346000BD00BD00BD00BD00BD00BD00BD00BD00BD00BD00BD00BD00BD00BD00510186001E
:2034800060011C02E301E3008C4B8D49D3E9000290478C4B1C684CB1894D636820461B68C2
:2034A0002946984723681C68002CF6D1864C63680BB10D209847FFF743FF01F075FB834BF0
:2034C0001B68002B00F0FD810120814D0AF002FB2A78931EDBB2062B00F215827D49CB5C63
:2034E00013B108F001FE2A78022A40F00C820AF06DFB01232B7070BD754D2A78931EDBB295
:20350000062B00F2CD817349CB5C13B108F0ECFD2A78022A40F0C4810AF058FB6A4B5B68AA
:2035200003222A700BB102209847664B1D6845B16B6828461B68214698472B681D68002D94
:20354000F6D15E4B2146D3E90002BDE87040104790F902308278002BB4BF5F4B574B02F099
:203560000F0203EBC203D3E90002214690470028C1D0A0780207BED00307BCD4BDE8704034
:203580000AF04EBC504B5B680BB1082098474D4B1D68002DAFD06B6828461B682146984733
:2035A0002B681D68002DF6D1A5E7474B5B680BB109209847434B1D68002D9CD06B6828466D
:2035C0001B68214698472B681D68002DF6D192E73D4B5B680BB10A2098473A4B1D68002D56
:2035E00089D06B6828461B68214698472B681D68002DF6D17FE7344B5B680BB10F209847EA
:20360000304B1D68002D3FF476AF6B6828461B68214698472B681D68002DF6D16BE72C4C45
:203620002378062B00F04F8103F0FD03052B7FF462AF0AF0D5FA0223237070BD244DFFF742
:203640007FFE0BF05DF82A78931EDBB2062B31D82049CB5C13B108F047FD2A78022A29D12B
:203660000AF0B4FA174B1C6800232B704CB11B4E636820461B683146984723681C68002C53
:20368000F6D10E4B1549D3E9000290470E4B5B680BB10E2098472B78023BDBB2062B3FF65F
:2036A0002AAF0C4AD35C002B3FF425AFBDE8704008F01ABD082AD5D1D2E700BF7809002065
:2036C0004CA40100C009002024090020C4090020F935002028A401003009002050A401006D
:2036E0009C4DFFF72DFE01F055FA2A78931EDBB2062B00F2D9809849CB5C002B00F0D480AD
:20370000022A03D0082A01D00AF06AFA934B5B6802222A700BB101209847914B2146D3E92F
:20372000000290478F4B1D68002D3FF4E4AE6B6828461B68214698472B681D68002DF6D149
:2037400070BD844D2B78032B00F0C6800AF006FA00283FF4D0AE2A78931EDBB2062B40F24E
:20376000EB80814808F092FC2A78022A01D0082A01D10AF02BFA06232B7070BD754B1B7889
:20378000032B00F0A580082B00F0A280734B5B680BB100209847754B1D68002D3FF4ABAE67
:2037A0006B6828461B68214698472B685D68002DF6D170BD674D2B78032B7FF49CAE0AF04A
:2037C000DBFF00283FF497AE2A78931EDBB2062B00F2BB806049CB5C13B108F085FC2A7882
:2037E000022A40F0B2800AF0F1F904232B7070BD584D2A78082A5CD0931EDBB2062B00F262
:2038000086805549CB5C002B00F08180022A00F0878005232B70514B5B680BB103209847BE
:203820004F4B2146D3E9000290474E4B1D68002D3FF461AE6B6828461B68214698472B68C8
:203840001D68002DF6D170BD444B5B680BB103209847434B4649D3E900029047414B1C68F0
:203860004CB1434D636820461B682946984723681C68002CF6D1374D2B78062B1ED0082B3E
:203880000BD09A1ED2B2062A4DD833498A5C002A49D0022B01D00AF0A3F902232B7070BD96
:2038A000082A7FF43BAE37E62F4808F0EFFB2A7826E702232B700AF09DF9ACE707232B70AD
:2038C00070BD207A01E60AF08BF90823237070BD2848FFF74BFD59E70AF04EFF00283FF441
:2038E00035AF2A78931EDBB2062B2BD81A49CB5C13B108F0F9FB2A78022A23D10AF066F97B
:2039000004232B7022E7082A7FF4F3ADEFE5164808F0BCFB2B78022B02D0082B7FF479AF46
:203920000AF054F975E7104808F0B0FB2B78022BB3D0082BB1D0AEE70749CB5C002B7FF438
:2039400014AF0EE7082ADBD1D8E7082A7FF44DAF49E700BFF935002028A40100240900201A
:2039600078090020C009002008000020C409002058A4010054A401004360CA699A4205D328
:203980008A6902600B67CB610020704701F1280202608B6700207047F0B504680E7A002C51
:2039A00000F07284A4F212347C2C00F2C1827C2C00F2BE82DFE814F074020003DE02CF0299
:2039C000C7022A0307032303BC02BC02BC02BC02BC02BC026702D702BC02BC02BC02BC0213
:2039E000CC010F03E602BC02BC02BC02F401EE038C03BC02BC02BC02BC02FF00CB03480341
:203A0000BC02BC02BC02BC02BC02BC026402BC02BC02BC02BC0219019B039303AC0357037D
:203A2000BC02BC02C3038403B40339035F03BC02BC024103DB015003ED00BC02BC023203DB
:203A4000DB00F503BD00BC03BC02BC02BC02BC02BC02BC02BC02BC02BC02BC02BC02BC022F
:203A6000BC02BC02BC02BC02BC02BC02BC02C900D303BC02BC02BC026703BC02BC02BC0297
:203A8000BC02AC00BC02BC02BC02BC02AC00BC02BC02BC02BC02BC02BC027D00C002BC02A7
:203AA000BC02BC02BC02B800BC02BC02BC02BC02B80001240025002A00F0CD830779575584
:203AC000A3424FF00005057140F27C83171901343D70B04D0F7D2D682D78AF4200F0B0832D
:203AE0008F7DAF4209D10025A342057140F24D85254601340AB107795755DFF8A0C2A64FB6
:203B00009CF800503F780135EDB28CF800507BE1012500240AB1077917554024AB4204714E
:203B200040F289836C1CC6E701240025002AE2D1E3E701240025002A40F031848D7D057148
:203B4000A34240F262830134FFE001250024002A00F03D8307791755AB424FF0050404719B
:203B600040F27E83274602EB050C6C1CFDE201250024002A40F011840624AB42047140F249
:203B80003F8301350C7D0471AB4240F291836C1CD4E701250024002A40F003840524AB4278
:203BA000047140F228836C1C2425A342057140F27583651CE0E701240025002A00F0FA8334
:203BC000077957554FF0000CA34280F804C040F29084651C0027AB4202F804C0077140F20A
:203BE000F383541901352770F3E001250024002A00F0EF8307791755AB424FF024040471B7
:203C000040F2C183274605F1010C002463455755047140F2A98325460CF101071024BB42D2
:203C200002F80C50047140F29083254607F1010C01246345D555047140F2788325460CEB09
:203C400004070524BB4202F80C50047140F25D83254607F1010C24246345D555047140F225
:203C60004A8325460CF101070124BB4202F80C50047140F23683254607EB040C03246345F3
:203C8000D555047140F228830CF1010702F80C40BB4291F816C080F804C040F218837C1C60
:203CA0000425A34202F807C0057140F20B8302EB040C2F4601342425A3428CF800700571C0
:203CC00040F2FB822F46651C1755AB424FF00204047140F29F82274602EB050C6C1C0225BF
:203CE000A3428CF80070057140F2DD822F46651C1755AB424FF00504047140F27C8227463B
:203D000002EB050C6C1C2425A3428CF80070057140F2C4822F46651C1755AB424FF0060475
:203D2000047140F26D82571901353C700F7D0771AB4240F2BD826C1C5755A3428D7D0571A0
:203D400040F26382171901343D70124D2D6851E001270024002A00F04082057915559F4224
:203D60004FF00004047180F0F5827D1C39E101250024002A40F017830224AB42047140F2F9
:203D800049826C1C0225A342057140F28C82651C04E700BFC8090020FA350020FC35002052
:203DA00001240025002A00F09883077957559C424FF00205057180F05883671C1555BB4289
:203DC0004C7E047140F2E48202EB070C7D1C8CF800400024AB42047140F221826C1C0AB111
:203DE00007795755C64D91F814C02D682F78BC4500F01A82DFF810E3DFF810C36F788EF87D
:203E0000007000258CF80050BD423FD3BD4F3D780135EDB23D70AE4240F2CA810925A34265
:203E2000057140F25583651C002A00F0128307791755AB424FF00404047140F2B682274666
:203E400002EB050C6C1C8CF800700F7AAD4D2D78AF4240F2AC8305EB450501F10907DFF85B
:203E6000A0C217F805E080F804E03D449C42CCF8005080F07E82671C002A7FF46EAFACE1E3
:203E800001240025ABE701250024CDE70725A342057140F29281651C002A7FF45BAE96E1DE
:203EA000002A00F0EB8204791470012B4FF00B04047140F2238302250127D455AB420F7DC2
:203EC000077140F25B8205F1010C022463455755047140F2448225460CF101070224BB42DE
:203EE00002F80C50047140F22B82254607F1010C02246345D555047140F213820CF101076F
:203F000002F80C40BB4291F819C080F804C040F2F7817C1C0025A34202F807C0057140F20B
:203F2000E581171901343D70764F00253D7072E7002303601846F0BD002A00F0F28205797C
:203F400017460124C4E5002A00F0F28205794FF0010C0027CCE7002A00F0EC8205790127D6
:203F60004FF0000CBAE7002A00F0FF8207799446012468E7002A00F0D78207794FF0010CAD
:203F80000025A2E75E4C002A00F0E68207792468944601258CF8007024780F7DA74200F046
:203FA000B9818F7DA7427FF414AF0A249D42047180F0F5826C1C00E6002A00F0D2820479DA
:203FC0000125002779E7002A00F0B08290F804C0012400279EE7002A00F0C18204790125CB
:203FE0000027DFF81CC1D455DCF80040AB426778077140F2A08102EB050C0135CAE7002A03
:2040000000F0B1820579174601248CE7002A00F08482047901274FF0000C71E7002A00F088
:20402000A7820779944601246DE6002A00F08E82047901274FF0000C28E6002A00F0A18220
:2040400007799446012436E6002A00F000821446077927700125BCE6002A00F08E82077946
:20406000944601243BE6002A00F07282057901274FF0000CE5E5002A00F0608290F804C00F
:20408000012400270CE61E4C0125276800241AB190F804C002F804C03C780F7DA74200F0B1
:2040A000E9808F7DA7427FF438AD0224AB42047140F270822C460135002A7FF42CAD2CE56F
:2040C000002A00F04782057901274FF0000CCBE5002A00F0BC8104799446012577E6002A01
:2040E00000F01682057901274FF0000C96E5002A00F0458207794FF0010C002585E500BFD1
:20410000C8090020FB350020FA350020FC350020002A00F0308205794FF0010C002787E595
:20412000002A00F00F8205794FF0010C0027A5E5002A00F0F48105791746012404E6002AB6
:2041400000F0218205794FF0010C002783E5002A00F0F68190F804C0012500243AE5002A03
:2041600000F0EA810779944601248CF80070C14FC14D3F682D7897F801C0AC4540F21482FE
:2041800097F802C03D44A34215F80C5005716CD9651C7CE7002A00F0D78105790127002424
:2041A0000CE6002A00F0B681047917460125BCE540F2993303600120F0BD40F26D330360B7
:2041C0000120F0BD4FF4617303600120F0BD0524AB42047144D96C1CC9E79F42027180F025
:2041E000B9807D1CA34C2468AB426778077140F2A2800135D0E640F2553303600120F0BD03
:2042000040F2573303600120F0BD40F2593303600120F0BD40F2513303600120F0BD4FF498
:204220004F7303600120F0BD0525A342057140F21781651CDBE440F2833303600120F0BDE3
:204240000D6AA3422D7805713FF652AC40F2893303600120F0BDA3420271B3D9013438E460
:2042600040F26E3303600120F0BD40F2723303600120F0BD0324AB4204713FF61BAF40F278
:20428000773303600120F0BD08240471002B7FF407AE40F2123303600120F0BD40F25633EC
:2042A00003600120F0BD40F2523303600120F0BD4FF4567303600120F0BD4FF4547303603B
:2042C0000120F0BD40F24F3303600120F0BD4FF4537303600120F0BD40F24B3303600120BD
:2042E000F0BD40F24A3303600120F0BD40F2193303600120F0BD40F2493303600120F0BDA3
:204300004FF4467303600120F0BD4FF4527303600120F0BD02249D42047180F0F4806C1C51
:2043200040E540F2173303600120F0BD40F2453303600120F0BD4FF44A7303600120F0BD9F
:2043400040F2163303600120F0BD4FF4517303600120F0BD40F2273303600120F0BD40F28A
:20436000153303600120F0BD40F2433303600120F0BD40F2263303600120F0BD4FF4457334
:2043800003600120F0BD40F2423303600120F0BD40F22E3303600120F0BD0779BCE40779B0
:2043A000CAE40779A4E407798EE440F2213303600120F0BDA342027140F29B80013400259F
:2043C0009C420571C0F0938040F2353303600120F0BD2424AB420471D5D96C1C00259C4218
:2043E0000571C1D2013410259C420571ADD2013401259C42057199D22C4405259C4205716F
:2044000083D2013424259C420571BFF474AF013401259C420571BFF464AF2C4403259C42B4
:204420000571BFF459AF01348D7D05719C42BFF44EAF01340425A34205717FF643AF0134B3
:204440002425A34205717FF638AF651C94E40125BFE40424AB420471A7D90F7A6C1CF5E4A6
:2044600040F2413303600120F0BD40F22D3303600120F0BDC8090020FC3500200B24012B05
:2044800004713BD902240D7D05719C42BFF476AF01340225A34205717FF661AF013402251F
:2044A0009C420571BFF44CAF01340225A34205717FF637AF01344D7E05719C42BFF420AF12
:2044C000013400259C420571BFF410AF01342BE54FF4487303600120F0BD02259C420571CD
:2044E000C3D201344D7E05719C42BFF451AF651C6FE44FF44D7303600120F0BD40F21333A0
:2045000003600120F0BD4FF44B7303600120F0BD012468E70125FFF735BB0124CBE70124BC
:2045200013E40124FFF7D5BA0124B2E70124C8E70124BAE70124B2E7012418E6012479E71C
:2045400001243CE7012469E70124CBE701246BE7012452E701245BE7246801251CE50125B2
:2045600040E601248FE70124DEE4374601246DE40124FFF719BB01243AE7012402E401243B
:204580002CE701245CE701243CE740F28E3303600120F0BD4FF45F7303600120F0BD40F2BC
:2045A000333303600120F0BD00231B78FFDE024A002313601B78FFDEC809002070B90B68F2
:2045C0001A7B202A01D0062070471A4652F80E1F9961918892799A7799837047032070479B
:2045E0004360CA699A4210D38A6910B40260C8690C6FC01A1C441A44C86100380C6718BF1E
:2046000001205DF8044B8A61704701F12802026000208B67704700BF2DE9F0470B7888B025
:204620000D4606460E2B14D8DFE803F008180808130D281313181308080808000024204689
:2046400008B0BDE8F0874B78DA0930D15B09012B4CD00624204608B0BDE8F0870368002440
:2046600003F134022046C3E91E44C3E920445A671C845C62DC6208B0BDE8F087027A8B78DC
:20468000002A00F06581817A0930002900F05E81F17A415C9942D1D01B061ED4EF7807F0F9
:2046A000FD03012BCAD0002F65D00324C7E713F0600FC3F3411200F09180012AC9D18B78B7
:2046C000212BC6D1B1F80720072AC2D10168681C183100F073FA0446B1E7EC78002C00F06E
:2046E0009D80032C14BF03240024A8E78B780768202B00F09B80222BABD1B1F80730002B25
:20470000A7D1B1F8035097F820303D8405F0010203F001039342154690D0C3691BB1C2F15B
:204720000301C9B29847002D88D1337A012B40F20B81737B06F10C04002B00F00381B37B3C
:20474000E05C0AF043F8337A012B40F2FD80737B012B40F2F780B37B23442C4658780AF0CC
:2047600035F807F13403C7E91E55C7E920557D62FD627B6763E73568012A05F10C0140F22E
:20478000DF80727B012A06F10C0340F2D7800691B27B704905911344AC6A93F80180002C5B
:2047A00060D1EA6FEB6AAC67C5E91F42002B00F0B480296B1846002205F1240383E803000A
:2047C0004046EA6205A9FEF733FD0446F369002B3FF435AF30460021984730E703F01F03AA
:2047E000012B7FF436AF8C78062C7FF432AF05A8039200F0D5FC03AA00920746EA78297918
:2048000030463B46FEF7E8FA05283FF418AF039A3946681C00F0D2F9044610E7F369002B80
:204820003FF40CAF30460121984708E7B1F80720072A7FF40EAF3B73B1F80730DBB27B73EA
:2048400000200E37CDE90573079000F08BFF002005A9FEF7D9FC0446002867D0002000F063
:2048600089FFECE6D5F88490686A4C4528BF4C4605F1340A2246514615F0E4FBE86FEA6A5F
:20488000EF67A9EB04030AEB04010444C5E91D13C5F88040002A43D005F12C0797E80300A2
:2048A00005F12404002284E80300EA62002B3BD091461BE0696F686A15F0C4FBD5E91D327A
:2048C000A96AC5F880100B44521AC5E91D32F36913B1002130469847EB6A13B397E803008D
:2048E00084E80300AB6FC5F82C90EBB1AA6A9342E0D2696F686A1A4615F0A4FBD5E90932D8
:20490000A96FE967521A0B44C5E9093253B1404605A9FEF78DFC044658E700236B6255E720
:2049200000236B62002451E76B6AEFE70A4B049603A9039300F020FC04468FE73B78FFDEF3
:204940007B78FFDE2B78FFDE6B78FFDE0B78FFDE5378FFDEE1450000BD45000010B50368E7
:204960001C8CE40784B015D50B46017A012916D9417B00F10C0481B1817B605C91060CBF98
:204980000124002401A9CDE901320394FEF73CFC04B010BD082004B010BD0B78FFDE0023CA
:2049A0005B78FFDE0368D3F880007047F0B50468238CDB0783B022D50546002016460F46F2
:2049C00000F0D0FEA26F42B9636AE3B11124002000F0D0FE204603B0F0BD964228BF1646B8
:2049E000616F3246384615F02DFBD4E91D239B1B3244C4E91D23C4F880600024E7E70824F4
:204A0000204603B0F0BDC4E909762A7A012A12D9697B012905F10C020FD9AB7B08490091E8
:204A200013440C34587801946946FEF701FC041E08BF9224CBE75B78FFDE1B78FFDE00BFA9
:204A400079390000002070472DE9F04F4B6885B0CDE900020C46002B71D009F0DDF9E568FE
:204A6000019B9D4228BF1D468146002D7CD04FF0000A5646D3464FF00108D4E90113AB422D
:204A80001F4628BF2F46E9B13A4609EB060015F0D9FAD4E90223D21BDB1BC4E90223C4F816
:204AA00004B0ED1B3E442AB3002B08BF4FF00008002DE2D1009BC3F800905E60404605B0E3
:204AC000BDE8F08FABB120463B4650F8101B4A68D2F804A009EB0602D047D4E90223D21BFA
:204AE000DB1BC4E90223ED1B3E445AB14FF0010ADAE7E368BAF1000F04D15BB99846002D55
:204B0000BBD1D7E722681268126822604FF0010A002BF3D02168F1B1CDF808B003E0A3687D
:204B200021680133A3604B6800225F6802A80123B8470028F3D12061002D9ED1BAE70B682F
:204B40001B681B68002B88D18B68002B85D1036043609846B2E76160002EABD0019BB342DF
:204B600088BF4FF00008A5E72E464FF00108A1E7054B0528187004D0044A137823F002030D
:204B800013700348FEF7F2BBFD350020FE35002080A4010008B50020FEF7CAFABDE8084058
:204BA0008020FEF7C5BA00BF08B50020FEF7D4FABDE808408020FEF7CFBA00BF70B5C38848
:204BC00093421E4628BF1646934284B00D4612D8002400200394CDE9015600F0C3FD01A9D1
:204BE0008020FEF711FB044688B1002000F0C2FD204604B070BD8020144609F001F8B4FBE0
:204C0000F0F202FB1044B4FA84F46409E1E709F0DDF980280BD1094A094B92E8030083E824
:204C20000300002000F0A6FD204604B070BD002000F0A0FD1024204604B070BDB8A40100F2
:204C4000F00900202DE9F04F0B780E2B89B018D8F3B1013B0D2B1BD8DFE803F01F0E281ACD
:204C6000354C1A1A1A1A0E666F07B24B1B78012B02D00120FFF77CFF0024204609B0BDE859
:204C8000F08F852B04D1AB4B1B78032B00F040810624204609B0BDE8F08FA64B1B78032B89
:204CA000F6D00320FFF764FF0624E6E7A24807F071F90028E0D0A14B01221A60BFF36F8F5F
:204CC000BFF34F8FD8E705230DF115008DF8143009F0E4F89DF81530994E002203F01F04B3
:204CE0003260032C00F2B980DFE814F0E800B90099008D00C87803280D46C9D0904E336866
:204D0000002B00F003810022716832609847044600287ED13368002B00F00581AB78002B3D
:204D2000AAD109F0DDF8A8E7824B1B78002BA3D00020FFF71DFF00249FE74FF08043D3F8F4
:204D4000383413F0010F7B4B1B7806D0022B93D00220FFF70DFF00248FE7012B89D18BE75F
:204D6000BDF81B30002B00F0D880092B28BF09239946FEF7F3F90546002800F0DB81BB46F9
:204D80004FF0090ACDF80CB04FF0000801E008F101086A68012357682946002203A8B84726
:204DA0000028F4D12A682B7A15681C44C244E4B2002DE7D1634D644928464A4615F042F9D6
:204DC0002C71A5F802A0FEF7ABF918B1EB7943F02003EB71FEF7C2F95C4BBDF81B201860C0
:204DE0000020C3E90159DA6000F0BCFC58498020FEF71EFA0446002800F09F81002000F0CB
:204E0000B9FC062C05D105A8FEF7E8F90446002C73D009F0D1F8204609B0BDE8F08F9DF8FF
:204E20001900020707D005A9FEF7C2F906280446EDD19DF8153013F0600F0ED19DF81630DF
:204E40003C4A9DF819401278012B00F0B980032B00F0A680002B00F0C6800624D9E79DF8DB
:204E6000190003A9FEF780F90546002859D09DF80C1005AAFEF798F906280446C7D19DF8D8
:204E8000152012F0600FC4D12A4B9DF80C101B78D20940F014819DF816200B2AB9D1052BC4
:204EA00040F0B280BDF81730FF2B00F2FC809DF817202846FEF7D0F90446A8E713F0600FB9
:204EC000C3F341179FD1DB0948D19DF81630032B00F09C80092B00F0A880012B93D1BDF8B1
:204EE0001730012B8FD1FEF71BF9002800F0D980184A137823F00203137033686BB109F02D
:204F000065F8044600287FF4B7AE0AE70E2480E70420FFF72DFE0624AFE609F043F8002404
:204F2000ABE6102475E70C4B1B68082B33D009F039F8A2E6FD350020F80900205C7002400D
:204F4000F0090020FC09002084A40100D8090020C0A40100FE350020300100109DF8162025
:204F6000062A00F08780082A73D0002A7FF44BAF7B497C4B09781A80890744BF02221A7017
:204F800078490DF115000222FFF718FE0446062C7FF43DAF37E7744B1B68002BC7D16BE6BE
:204FA00025073FF55AAFBDF81730002B7FF455AF052A01D0200727D1204608F031FF9CE7BA
:204FC00021073FF54AAFBDF81730002B7FF445AF052A01D0230717D1204608F04FFF2046CA
:204FE00009F08AFA89E7052A01D027070CD1204608F022FF5B49034602220DF115000B808B
:20500000FFF7DCFD044602E7082402E7BDF81730012B7FF4F8AEFEF783F8002841D0504AF5
:20502000137843F00203137067E7504C2378043B012BE9D89DF81730BBB3012B33D1FEF70A
:2050400067F92378052B3FF458AF0520FFF790FD53E7464A1278052A47D0042A7FF4D3AE87
:20506000404B1F703F490DF115000122FFF7A6FD04468CE79DF81830022B3FF471AE032B78
:2050800036D0012B7FF4BFAEBDF81B30002B3FF444AF37490DF115001222FFF78FFD04461A
:2050A00075E70F24B5E60724B3E6FEF749F92378042B3FF422AF0420FFF75AFD1DE79DF8F3
:2050C00016705FB30A2F7FF4A4AE052B9CD128460192FEF717F92349019A03460B700DF1CE
:2050E0001500FFF76BFD044691E61E4A1370B9E7BDF81B30002B3FF410AFBDF819109DF861
:20510000170000F01DFB014600283FF47CAE0A780DF11500FFF752FD044638E7052B7FF4BE
:2051200073AF10490DF1150002220F80FFF746FD04466CE64FF0090A3CE608F047FF8028FF
:2051400008D10C4B93E8030086E80300204600F011FBD2E6204600F00DFB102459E600BF86
:20516000FE350020FC09002034010010FD350020A4A40100B8A4010038B505460C4608F0F8
:2051800025FFA84207D194E80300044A82E803000023184638BD1023184638BDF0090020DA
:2051A00008B1402303600148704700BFFC090020F0B40D7A0DB101F109050468002C59D0E2
:2051C0006FF4AB763444142C00F24A81142C00F24781DFE814F05400E700EE00F500FC00F7
:2051E0000301090110011701450145011E0125012C0145013B0033012700390115003F010F
:2052000001250024002A40F0DB818A8AAB424FEA1222027140F2338140F26D130360012091
:20522000F0BC704701250024002A40F0CD814A8AAB424FEA1222027140F226816C1C8A8A03
:205240000271A34240F27B81651CDEE701250024002A40F0B7810A8AAB424FEA1222027145
:2052600040F217816C1C4A8A0271A34240F26C81651CDCE709240471002B00F0F680002AF0
:2052800000F0A48104791470012B4FF00404047140F2F0800227012694559F422D78057139
:2052A00080F089817E1C0024B342D555047140F27D812546771C0024BB429555047140F242
:2052C000708125467E1CFF24B342D555047140F263812546771C0124BB429555047140F25A
:2052E000568125463E190124B342D555047140F249812546371900249F429555047180F0D1
:205300003C8125467E1C09249E42D555047180F02F812546771C21249F429555047180F00C
:20532000228126467C1C09259C42D655057180F015811619013435700E7C0671A34240F2F2
:205340000881651C16550E8A9D424FEA1626067180F09F8057196C1C3E708E7C06719C42E1
:2053600080F0F280651C16554E8A9D424FEA1626067180F0898057196C1C3E700E7D06719B
:20538000A34240F2DC80651C1655898A9D424FEA1121017173D22A44117040F26D13036096
:2053A00001203DE7002A00F0B38004790127002672E7002A00F0A58005790126002772E7D3
:2053C000002A00F0978005790127002673E7002A00F0898005790126002774E7002A5DD0D5
:2053E00005790127002676E7002A00F09E8005790126002777E7002A00F09580057901274D
:20540000002678E7002A00F08C8005790126002779E7002A00F083800579012700267AE76B
:20542000002A00F08A800679012400277BE7002A00F081800579164601247CE7002A78D02C
:2054400006791746012487E7002A70D006791746012492E7002A3FF4DFAE017911709CE791
:20546000002303601846F0BC704740F2571303600120F8E74FF4AC7303600120F3E740F2F4
:205480006B1303600120EEE740F2691303600120E9E740F2671303600120E4E701240122F0
:2054A000A342027173D914440122A342027169D9144400229C4202715FD2013409229C42F9
:2054C000027155D2013421229C4202714BD2013409229C42027141D201340A8A0271A34267
:2054E00037D9651CB7E60124FF229C42027153D20134D4E701240022A342027151D90134D4
:20550000F2E701240022A34202714FD90134F2E701242A780271A3424DD90134F2E7012465
:20552000D1E70124CAE70124C3E70124BCE7012485E6012497E60124CFE70124C8E74FF422
:20554000B573036001208EE74FF4B4730360012089E74FF4B3730360012084E74FF4B2730C
:20556000036001207FE740F26313036001207AE74FF4B1730360012075E740F25F13036066
:20558000012070E74FF4AF73036001206BE740F25D130360012066E74FF4AE7303600120FD
:2055A00061E740F25B13036001205CE74FF4AD730360012057E740F259130360012052E7BC
:2055C0000679E1E60679BDE60679CCE60422012B02717FF64FAF02249BE700BF0B780E2BD7
:2055E0000BD8DFE803F0080808080A0C080A0A0A0A08080808000020704706207047F0B52F
:205600004B78DA0985B00C46064611D15B09012B02D0062005B0F0BD8C78002CF9D10268E1
:205620001373036A002B3AD0214698472046F1E713F0600FC3F3411215D0012AE9D18B7876
:20564000072B07D0082BE4D1F268481CB169FFF7B5FADFE7B1F80720182ADAD1C169601CB3
:20566000FFF7ACFAD6E703F01F03012BD1D18D78062DCED103A80292FFF792FD02AA009215
:205680000746E278217930463B46FDF7A5FB0528BFD0029A3946601CFFF790FABAE718466C
:2056A000B8E700BF70B54FF0805286B0D2F8A830D2F8A42000926FEA83436FEA93430B4ABB
:2056C0000B4E9BB202A80D210EF09EFB02AD002404E015F8013B06F8013B013402A814F098
:2056E000E1FC8442F5D306B070BD00BFDCA401003836002038B5114B53F8204023780BB93B
:20570000A01C38BD0020FFF74BFD217891B12246C4F101055319DCB2234620F8141012F8D3
:20572000011F0029F6D101335B00DBB243F44073038038BD40F20233FAE700BF44A50100EA
:2057400040B1052808D8054A105C28B1044B53F820300BB1FFF7CEBF002070475CA50100B5
:2057600044A5010072B6024A13680133136070473C0A0020034A1368013B136003B962B641
:20578000704700BF3C0A002010B50446006830B1002109F015FC54F8040F0028F8D110BD8D
:2057A0002DE9F043038883B0044643B1B3F5867F0CD1822910D0012003B0BDE8F0834FF460
:2057C00086730120238003B0BDE8F08300230380032003B0BDE8F08303F04CFABFF35F8FD4
:2057E00019491A4B0E6800220A601F781A70FFB2BFF35F8F164D03F041FA28680028DED077
:20580000DFF85090DFF8508003E055F8040F0028D5D090F84A3026FA03F3DA07F5D590F8CF
:20582000493047FA03F3DB07EFD502F029FD0028EBD02B68D9F800200092184642460221F8
:2058400002F09AFCE1E700BF500A0020FF35002060000020443800201559000010B50C4AC6
:2058600090F84B30126882B001330092044680F84B30084A03468021203002F07DFC064B2E
:2058800019782246002002B0BDE8104009F022BC443800205D5800000D43002010B4094A99
:2058A000094C13681943116021780346012202FA03F30B43DBB2237004485DF8044B09F0FD
:2058C00037BC00BF500A0020FF35002068000020044B1B78834286BF034B53F820000020FB
:2058E000704700BFD8B701006000002010B5044690F84A1090F8490003F07EF910B994F8A1
:20590000480010BD01280ABF94F84800002080F0010010BD70B582B0044602F0B1FC08B94D
:2059200002B070BD04F12006304602F0A9FC05462046FFF7DBFF01280FD00028F0D1002DC1
:20594000EED1304602F082FC0D4B22462846197802B0BDE8704009F0BDBB002DE0D0094B3A
:20596000094A1B68009300253046234684F84B507E2102F001FC054B28462246E7E700BF62
:205980000C430020443800205D5800000E430020F8B509F00DFB304B304C187009F008FBAD
:2059A0002F4B304F187009F003FB2F4922682F4B08700025FF2139727B60FD60002A42D017
:2059C0002B4E09E091F84A00F9683A72834054F8042F0B43FB60B2B392F84A3092F849104E
:2059E000526C03F01F0343EA41131F2BC6BF03F01F0331464FF0A04103F5E07342F08C02CD
:205A000041F82350236893F84A1093F8490003F0B1F8226892F84A3092F8490003F01F0384
:205A200043EA4010012106F027FD2168387A91F8492082424FF00103C4D0FF28C2D054F8E0
:205A4000042F002AC8D10B48002109F0B9FABDE8F840044803F0E4B80E4300206000002087
:205A60000C430020400A00200D4300209D580000000300506800002030B5174B83B0002271
:205A80001A6006F0B9FA00BB002006F0D1FA134B134A93E80300FF250090ADF80410062477
:205AA00000231048ADF8005069468DF802408DF8043006F057FF58B901210A4806F0A6FFDB
:205AC000084806F097FF03B030BDFDF71DF9DBE7FDF71AF9F0E700BF540A002090A501002D
:205AE000155B000098A50100014B1868704700BF540A002008B5064A13680133136002F017
:205B0000D5FC00B908BDBDE8084002F0ABBC00BF540A0020042800D07047FFF7EBBF00BFA1
:205B2000014B1868C0097047540A00204160806A09F0FEBAF0B5858C83B0044617461E466B
:205B40004DB36A2D22D182294AD14568002D62D00023009304F1180204F11401284601F0BB
:205B600021FCD4E90431227E101E18BF0120994284F8200046D0637E0133DBB26376002A1E
:205B80003AD0032B0ED9042384F820300023A384032003B0F0BD244B4560C0E904551B688D
:205BA0000583836201F03EF83946308100F008FE2060F0B11D4BC36323681C64216991B99D
:205BC00021683046463101F043F82368A3F84400206800F00FFE6A230120A38403B0F0BDFF
:205BE000012003B0F0BD80230022304601F0F2FBE6E7A0840220CCE7032BC4D8022384F8DA
:205C00002030C3E7089B606898472169227E637E01312161B3E7032380F820302846089BE8
:205C20009847A5840220B4E7443800202D5B000010B5846882B01CB194F90830002B01DBFF
:205C400002B010BD236A002BFAD01A68002AF7D00749097831B11B6A23B101909847236AC7
:205C600001981A68002302B0BDE8104000F036BD003600202DE9F047124C82B02468DDF8C8
:205C800028A08CB106460F4691469846656843464A463946304625B1CDF800A0A847054659
:205CA00038B92468002CF1D10025284602B0BDE8F087B379012BF8D13A463146002000F0F0
:205CC0001DFBF2E7580A00202DE9F04F2DED028BB34CB44E8BB0054620460295884601F012
:205CE00031F9C4F8A0500346307008BBA279013A032A62D9636823F07F4323F0FF03002B84
:205D00004FD06379032B00F02881208900F0DAFD074600284DD0D0E90F9700F0CFFDB9F1FA
:205D2000000F00F091809E493846C847337843B30027C22B2BD0DFF88892384600F0BEFD15
:205D40003278C32A69D0BF2A84BFA022327002212389934800F06EFFD9F800100391084619
:205D600014F0A0F9039902468D4801F05DFB41468B4800F06DFF414682B2029800F02EFE5D
:205D8000337818460BB0BDEC028BBDE8F08F384600F094FD337818460BB0BDEC028BBDE847
:205DA000F08FC3232089337000F08CFD07460028B1D13378002BE4D0BBE7039002992089BF
:205DC00000F0FEFC0746002842D0039B62790893CDE906338023ADF8163062BB238972483E
:205DE0004522022100F026FFA27A002A40F0B08007AB00936A480DF11603002206A901F08E
:205E0000D1FA70B9089B002B2ADADFF8B491674BC9F80030822333708FE700223270032157
:205E200096E7BDF81620079B0893802A28BF8022ADF81620E7E700F0F5FE4522034601212C
:205E4000594800F0F7FECFE73378002B99D06FE7DFF86C91564BC9F80030A32333706CE74F
:205E6000BDF8163050494E4808AD07F18402009508EE903A08EE102AFFF7FCFE03460028DF
:205E80004DD14748099309A901F066FA494BD3F800908246B9F1000F67D0099B03979B46F0
:205EA000029B4D4699460AE006DD2A7AD10603D51BF800202F2A08D02D68002D52D06F6894
:205EC000384614F0EFF88245EED102465946384614F0F0F80028EFD1A279039F4B460293B7
:205EE000511E0123012AA94603FA01F300F0C1809A0740F1A980D9F814A0BAF1000F00F0A9
:205F0000A38008AB2849009318EE102A18EE903A2348D04799F80830590600F1C080337811
:205F2000002B7FF406AFA37D1A0759D5DFF8789099F90630002B53DB99F816301B074FD483
:205F4000DFF87C901C4BC9F80030A1233370F4E61A49154801F0ECF94AE72189029800F0CA
:205F6000ADF9D2E6039FCDF808900F48842101F0D9F90D48842101F0D5F93378002B7FF403
:205F8000D8AE094807F1460100F062FE80B2A7F84400B8B9C123DFF828903370CDE600BF8D
:205FA000600A0020023600200C0B0020A0A50100C0A501005C0A0020B0A501006B0A0020AB
:205FC000D40000203378002B7FF4B3AE384600F011FC337818460BB0BDEC028BBDE8F08F8A
:205FE000637D089AD91115D1002ACAD0DFF80891013218BF01224846802301F0EBF9B9F837
:20600000A420D9F8A810802A28BF8022484601F00BFAB2E7079B9A4232D00132069944D07D
:20602000BDF81630DFF8D0900122334801F0D2F9BDF81620B9F8A43093429ED9D9F8A8108F
:206040002D4801F0F1F998E75D0705D5D9F818A0BAF1000F7FF455AF180705D5D9F81CA0F3
:20606000BAF1000F7FF44DAF8521234801F05AF97FE7D5F810A0BAF1000F7FF442AF37E783
:20608000DFF87490B9F8A400824219D382231B4989F8063048460F2201F0C6F96DE7164A3D
:2060A0001749484600F02AF939E7DFF84C90BDF81630B9F8A4209A4294BF00220122B4E78D
:2060C000BDF816300699821A9A4294BF00220122484601F07FF90798B9F8A430BDF8162010
:2060E000D9F8A8101B1A9A42014428BF1A46484601F09AF941E700BF0C0B0020A0A5010004
:20610000600A002010B50446416001460C4802F075FF94F90830002B00DB10BD206A0028FA
:20612000FBD0036A002BF8D00268002AF5D0054BC0E903340830BDE81040002300F0CEBAE3
:206140005C0A0020315C000038B50A4A137803B138BD094C094D236009490A482B60012435
:206160001470FFF7CFFF00F033FCBDE8384000F051BD00BF00360020580A00205C0A002080
:20618000D0A5010084000020014B1868704700BF5C0A002000B10068704700BF00B583B0A6
:2061A00001460190044803F09FF80199034803B05DF804EB02F06EBF78000020B80B0020BB
:2061C00070B50D4B1C68A4B10546002601E024686CB1294604F1180000F0E4FB0028F6D035
:2061E0002046FFF7DBFF24680136002CF1D1304670BD2646304670BDB80B00202DE9F041DC
:20620000164B1C682CB305460F4616464FF0000801E02468D4B1294604F1180000F0C2FB5C
:206220000028F6D094F82C30B342F2D13246394604F12D0013F0F8FE0028EAD12046FFF77F
:20624000ADFF246808F10108002CE4D14046BDE8F081A0464046BDE8F08100BFB80B002063
:206260002DE9F041144B1C680CB306460F464FF00008251D314604F1180016B100F092FB43
:2062800078B1BD42284607D013F00CFF39460246284613F0C9FE20B92046FFF77FFF08F1D8
:2062A00001082468002CE4D14046BDE8F081A0464046BDE8F08100BFB80B0020F8B50E4BA2
:2062C0001C68ACB105460E460027294604F1180000F068FB10B1E38EB34204D02468002C95
:2062E000F3D13846F8BD2046FFF758FF0137F5E727463846F8BD00BFB80B00208B79012B6E
:2063000000D070472DE9F04792F90630002B82B0154650DBCB7C5B060C464CD5D1F8A07011
:20632000002F48D04B6E4BB1012B44D18A7A38460B3102B0BDE8F047FFF760BF096E0191B6
:20634000384694F80AA0D4F85C80FFF789FF204802F0AEFF064688B3B8F1120FC146C4BF81
:206360004FF01308C146B144424601994FF00008043013F067FE394606F1180089F804802F
:2063800000F000FB524604F10B0186F82CA006F12D0013F057FE0F48A6F83680314602F09F
:2063A0002DFEB16B4B1CB363284600F0F3FFB36B23F07F43B36302B0BDE8F0870649A323DD
:2063C00028461022AB7102B0BDE8F04701F02CB878000020B80B0020E4A501002DE9F04F44
:2063E0002DED028B83B008EE101ADDF8389001929846FFF7C9FE002800F0B6800025D9F894
:2064000000B006462C46A34508D8454512D2019B4FF03C025A55D9F800B00135631C5B453A
:2064200008D3454506D2019B4FF02F025A55D9F800B00135D6F804A0504613F033FE02343B
:2064400027185F4558D801D145456DD3D6F80CB07C1CBBF1000F17D09BF80030A3B1D9F8E1
:2064600000A0A24509D8454507D2019A3B235355D6F80CB0D9F800A00135584613F012FECE
:2064800002373C18544512D8454504D9D9F80030621B9A4271D83046FFF77CFE0646002888
:2064A00047D0DCB9D9F800B0A345B7D8ADE70198384AAAEB070308F10101002BACBF5B44BA
:2064C0000BF10003491B28440DF09EFC0544454553D83046FFF75EFE0646B8B3D9F800B058
:2064E000A34507D8454505D2019A2C235355D9F800B00135013486E70198264AABEB040BDB
:2065000008F10101BBF1000FACBF0AEB0B030AF10003491B28440DF077FC0544454508D26C
:20652000D9F800309F4291D3019A3E23535501358CE715BB5CB9BEB1D9F800304344C9F82B
:20654000003003B0BDEC028BBDE8F08FADB9822118EE100A00F0E6FE18EE100A0E490F2259
:2065600000F062FF002EE7D14FF0FF33C9F8003003B0BDEC028BBDE8F08F019918EE100ABB
:206580002A4600F051FF18EE100A282100F0DCFED1E700BFF8A50100A0A50100014808F07C
:2065A000C7BD00BFA80000202DE93048FFF79CFA0E4B1A68821A04D10D4BD3E90001BDE8B0
:2065C00030880B4C18604FF47A71A2FB01BCD4E900254FEADB1040EA4C6080184FEADC1112
:2065E00045EB0101C4E90001BDE83088C00B0020E00400200148002108F0E2BCA8000020A7
:20660000074B0848084A1B6810B4002101240470116013B15DF8044B18475DF8044B7047F2
:2066200018A6010001360020D40B00202DE9F0471E4B1B7882B0054643B3DFF874A029462F
:206640005046DAF8007002F025FDDAF8001019B3D5E90489002603E00C680E46F4B1214678
:20666000D1E90423994508BF9045F5D22A461048314602F033FDDAF80050AF4209D00D4B53
:206680009B68019302B0BDE8F0471847FFF7B8FFD3E702B0BDE8F087002DEED02A4604489A
:2066A00002F01CFDDAF80050E7E700BF01360020D40B002018A60100064B10B55B680446E8
:2066C0009847C4E9040121460348BDE8104002F0E1BC00BF18A60100D40B0020084970B500
:2066E000496805461E4614468847241846EB0101C5E904412846BDE87040FFF797BF00BFE1
:2067000018A6010038B50B4B1C687CB10A4B5B689847D4E90445A94208BFA04202D3002040
:20672000014638BD201A65EB010138BD4EF66020002138BDD40B002018A60100F8B5134FF5
:20674000134E7C68A04735683DB102460B46D5E904018B4208BF824201D20020F8BD2946B7
:20676000304602F097FC6B680BB128469847BB6898473368002BF0D0D3E90467A047B942B1
:2067800008BFB0422CBF01200020F8BD18A60100D40B002000B583B0014608300191FFF7B2
:2067A0008BFF0199044802F075FC0199034803B05DF804EB02F098BDD80B0020B800002008
:2067C00070B5064609480D4602F072FD044658B10023868080F824302946263000F0D2F87C
:2067E0000348214602F00AFC204670BDB8000020D80B00202DE9F04190F8463013F0300FFA
:206800000446C3F3011526D190F82430042B13D8B0F8442000F14601263000F0DFF894F888
:20682000243023B3226A5200226204F108000023BDE8F041FFF752BFD0E90F672630FFF754
:20684000BFFC2046FFF7A6FF46B3294638463346BDE8F0411847B0F8442000F1460126304E
:2068600000F0BCF82046BDE8F041FFF793BF0C4BC4E9033408F0E4FC0A4BA3FB00239B0A22
:2068800040F2DD5202FB130202F6B832226204F108000023BDE8F041FFF720BFBDE8F0813E
:2068A000A9680000B76FA5AE806830B190F82430013380F82430FFF79DBF704708B1FFF7F1
:2068C00069BF7047044B02E09A88824202D01B68002BF9D118467047D80B0020F8B5028829
:2068E000044662B140F2B9139A4217D11D4B1B788B4217D040F2B91323800120F8BD1146FC
:2069000010460EF0E7FB184B186038B343F21633038240F2B91323800120EFE7002303803A
:206920000320F8BD114B1B789B07E3D5104E114F114DB7F800C0114F96E80F00203685E8FB
:206940000F003CF806C00E4E3A883168A5F810C000232846AB74FFF7B7F9CBE72080022040
:20696000F8BD00BF16430020F40B0020444000204C3B0020F6350020E00B0020303B0020DF
:206980004C4000208B684A6830B40C68CD68C5600460426083600B8A03828B7C837430BC07
:2069A000704700BF38B5102205460C4613F03CFB58B92A8A238A9A4200D038BDA87CA37C15
:2069C000C01AB0FA80F0400938BD002038BD00BF0148002108F0F4BAC400002070B582B066
:2069E000B8B11446028848F2FE039A420E46054603D00A4B5B6A984758B1094A2B8A10683F
:206A00000093314622462B460FF09CFE204602B070BD4FF0FF34204602B070BD6CAD0100E4
:206A2000F40B00200C2830B440D9B0F5867F94BF6FF02F046FF01F040C2935D9B1F5867F07
:206A400094BF0D230E232343B0F5867F137016D96FF4867543191B0A0D38537090700223F4
:206A60000320B1F5867F15D96FF486740C19D518240A0D391454A970D81C30BC70470C282B
:206A80000FD90D38B1F5867F50704FF001034FF00200E9D80C29F0D90D39115430BC013053
:206AA000704701200023DCE74BB2CCE703015CB2C2E700BF2DE9F0411E0C13F07F474FEA7B
:206AC00006461C4615460B4614BF01210021CEB1013124F0FF080231C01A2A46FFF7A2FF66
:206AE000CFB1230E2B54421C1EB3230CAB540230B8F1000F02D0230A2B5401302C540130BF
:206B0000BDE8F08134F0FF08E5D14CB9BDE8F041C01AFFF787BF6EB1230C2B540130EAE7BE
:206B20000131C01AFFF77EFF002FDAD1002CE7D0E4E71046B8F1000FDDD1002CE0D0DDE7F2
:206B4000F8B50E689DF818700C461D4616B902602360F8BD03689F550B6801330B600068FE
:206B6000114618442A4613F07BFA23682B442360F8BD00BFF8B5069D401A29461F46FFF715
:206B800051FF3946044610182A4613F05BFA2819F8BD00BF2DE9F04F83B092460C9A9DF89C
:206BA00034400194013200249846834699460092274625468E4604E0009B01349C422746B2
:206BC00023D818F807C0019B08EB0706A6EB09069C450AEB0502ABEB0E00314602D00C9B36
:206BE000BB42E9D1FFF71EFF054449460AEB0500324613F027FA0134009B08EB0409013458
:206C00009C423544DE462746DBD9284603B0BDE8F08F00BF08B508F013FB014B188008BD68
:206C2000E8350020024B1888013080B218807047E8350020F8B504460F4616461D46AC2262
:206C4000002113F027FA6771A6712581F8BD00BFF0B501220023016002710B7002680F46ED
:206C60001378017943EA811313700268437911781B0103F030030B4313700268837A117819
:206C800003F00F030B431370036882795A70038902681B0A937003680289DA70837983B061
:206CA0000446002B00F040810368827A1D1D62B16FF00301C91A00F10B0313F8012B05F881
:206CC000012BA67A6A189642F7D8E37C9807C3F340010CD594F86A3000932A4604F16B03DD
:206CE00000210120FFF746FFE37C054401211A0709D5236C0093636C2A460320FFF73AFF9B
:206D0000E37C05440321DE060BD594F8243000932A4604F125030420FFF72CFFE37C0544F6
:206D20000421980607D500232A460520FFF7C2FEE37C054405215A0607D5636E2A460620D5
:206D4000FFF7B8FEE37C05440621DB0907D02A46B4F850300720FFF7ADFE07210544237D88
:206D6000DE070BD5A36C2F22CDE900320820E36C2A46FFF70FFF237D0544082118070BD50A
:206D8000E36D2F22CDE900320B20236E2A46FFF701FF237D05440B21DA0607D5A38B2A46D9
:206DA0000C20FFF787FE237D05440C215E0607D5236A2A460E20FFF77DFE237D05440E2122
:206DC000DB090CD0D4F894302622CDE900320F202A46D4F89830FFF7DDFE0F210544637DD6
:206DE000980708D5B4F868302A461120FFF762FE637D05441121DA060BD5636D2622CDE9F3
:206E000000321420A36D2A46FFF7C4FE637D05441421DB091AD0636F94F878201B01002A6C
:206E200040F08580B4F87A2000201209461C52088446B0B2FAD118B10CF00F0C43EA0C03CD
:206E40002A461720FFF736FE17210544A37D1E071BD5D4F8803094F884201B01002A69D17F
:206E6000B4F8862000201209461C52088446B0B2FAD118B10CF00F0C43EA0C032A461B200B
:206E8000FFF718FEA37D05441B21D80607D52A46D4F88C301C20FFF70DFE1C210544E37D6C
:206EA0001A0709D5236B0093636B2A462320FFF761FEE37D05442321DB0908D0A36B009392
:206EC0002A46E36B2720FFF755FE27210544A37EDB0611D42368EB1A3E2B18DCB4F8A4208F
:206EE000E2B9D4F8A810284613F0BAF8B4F8A400ED1B284403B0F0BDD4F890302A463C20D4
:206F0000FFF7D8FD23680544EB1A3E2BE6DD0B4B0B4A002020601A6003B0F0BDFF2305F85D
:206F2000013BB4F8A420DCE7042003B0F0BD43F0080377E743F0080392E700BFD400002058
:206F400030A60100032A40F2CC802DE9F04704460D4682B0002191460430A82213F09AF808
:206F6000256095F800804FEA981884F804802B78C3F3011363712A7802F00F02A2726B78B9
:206F8000A371A978EB78B8F1010F43EA012323817CD1082A00F2AC80291D8E1805EB090A1F
:206FA000564576D804F10B0013F04CF800275645C4F81370C4F8177080F0A580337803F02A
:206FC000F002F02A00F08781711C8A454FEA131003F00F035DD90D285FD00E2868D00D2BB0
:206FE00062D00E2B70D0CE18B24552D307443C2F4FD804EBD70C07F007029CF8130008FA8C
:2070000002F20243781E8CF8132002463B2A74D8DFE812F07B007300860089009400970000
:20702000A400B30073007300BD00C7007300D500E2007300EC0073007300FB00730073003F
:207040000501730073007300240145017300730073007300730073006900730073007300F2
:207060006900730073007300730073007300730073007300730073007300730073007300EA
:20708000730073007300730073005301A04BA14A1A60802002B0BDE8F0877078B11C0D30AD
:2070A0008A45F6D90D2B9CD111F8013B0D339AE77078B21C92454FEA0020EAD9B27802F2C0
:2070C0000D121044F11CEBE70E4616F8013BB2454FEA0323DDD94A7802F20D121344023155
:2070E00081E7802070478A4B8B4A1A60A520D1E7874B8A4A1A608020CCE7FB0700F1028147
:20710000B2453FF65BAF0020C4E7082B28BF08231A4684F86A3004F16B0012F093FFEFE7E9
:20712000C4E91031ECE7082B28BF08231A4684F8243004F1250012F085FFE1E784F89C8019
:20714000DEE74BB1013BC8180139002311F8012F884242EA0323F9D16366D1E753B1013B15
:20716000C8180139002311F8012F884242EA0323F9D19BB2A4F85030C2E72F200A46009072
:2071800004F1480104F14C00FFF7DAFCB8E72F200A46009004F15C0104F16000FFF7D0FC6D
:2071A000AEE753B1013BC8180139002311F8012F884242EA0323F9D19BB2A383A0E74BB1A8
:2071C000013BC8180139002311F8012F884242EA0323F9D1236293E726200A46009004F1FD
:2071E000940104F19800FFF7ABFC89E753B1013BC8180139002311F8012F884242EA03238E
:20720000F9D19BB2A4F868307AE726200A46009004F1540104F15800FFF792FC70E7002BFF
:207220006CD0013B0B440020013911F8012F8B4242EA0020F9D100F00703102120F00F02C5
:20724000994089B202FA03F3C0F3C002000984F87820A4F87A10E367606751E7002B49D0E3
:20726000013B0B440020013911F8012F8B4242EA0020F9D100F00703102120F00F029940E8
:2072800089B202FA03F3C0F3C002000984F88420A4F88610C4F88830C4F8800030E74BB12E
:2072A000013BC8180139002311F8012F884242EA0323F9D1C4F88C3022E74BB1013BC8189D
:2072C0000139002311F8012F884242EA0323F9D1C4F8903014E70136751BA9EB0505ADB2F7
:2072E000802D88BF80250020C4F8A860A4F8A4507055CFE6184610211A46C7E718461021DB
:207300001A46A4E7024B064A1A608220C2E600BFD400002060A60100A0A6010078A6010001
:20732000C8A60100FF299ABF817101200020704710B5082A28BF0822144682720B3012F0E0
:2073400081FE204610BD00BF037D818343F0100303750120704700BF037DC3F3C0021B07C9
:2073600002D5036E0B60C26D104670470B782F2B10B5044603D111F8013F2F2BFBD0216669
:20738000084612F08FFE237DE06543F00803237510BD00BFC37C416643F04003C374012015
:2073A000704700BF30B40446407DC0110FD009B1656F0D6012B194F87810117013B1B4F8F9
:2073C0007A201A80029B13B1029AE36F136030BC704700BF10B4A3F11004B4F5FE6F02D8F9
:2073E000B1F5801F03D300205DF8044B7047447D4167003A64F07F0118BF012280F8782076
:20740000A0F87A3041755DF8044B0120704700BF11B1D0F8A8300B60D0F8A83013B1B0F860
:20742000A4007047184670470346802A28BF80221046A3F8A420C3F8A810704710B50A4A68
:207440000A480C460A4907F017FD0A4807F080FE20464421FFF766FF074B0022BDE81040D4
:207460001978104607F036BEE4A60100F8A60100F0A6010008A701001137002070B586B006
:2074800004460D460BF01EF910B1444B1B786BB9A3212846FFF746FF414A4249424807F032
:2074A000EBFC424807F054FE06B070BD2046002601A90196FFF7ACFF00282DDD019959B3E9
:2074C0000F2828BF0F200246044602A8CDE90266CDE9046612F0B6FD06AB1819344A00F8D8
:2074E000106C029B93421DD03249029A8A4236D031498B4242D0314B9A4222D0284A294941
:20750000294807F0B9FC02A92D4807F0B5FC28468021FFF707FFC7E728468021FFF702FFC7
:2075200006B070BDBDF80C20542ADDD11C4A25491D4807F0A1FC244807F00AFE234B32463D
:2075400004E09DF80C20002AD8D1214B1978104607F0C0FD28464421FFF7E4FEA4E79DF8E1
:207560000C40002CC4D10E4A16490F4807F084FC184807F0EDFD184B2246E7E7BDF80C30AE
:20758000452BB8D1064A0F49074807F075FC134807F0DEFD124B0022D8E700BF053600200E
:2075A000E4A60100F0A60100F8A6010030A701005354415253544F5050415553434F4E5445
:2075C0000CA8010064A701006CA701001037002013370020C0A7010012370020ECA70100A0
:2075E000603600202DE9F0418CB006460D460BF069F8002800F08180002701A9304601975F
:20760000FFF706FF021E71DDDDF80480B8F1000F6CD0272A28BF272214463946282202A866
:2076200012F038FD2246414602A812F00BFD0CAB1A19404B02F8287C029A9A4264D03E4F24
:2076400028464521FFF76EFE3C78002C52D13B4DD6F8A0102846FFF795F943F21633384AF9
:20766000384939482B8207F007FC384807F070FD374B012519783D702246204607F02AFDAB
:20768000FFF7D0FA0222034629463248FFF7D2FA31493048FFF76AFE4FF480722F4930489D
:2076A00012F01AFD28460EF0D9F9024620B12C484FF4807110F01CFC2948264D12F0F2FCC6
:2076C000274902462846FFF7AFFE28891B49FFF777F8044670B1284604F14601FFF7B8FAAA
:2076E000A4F844002046FFF785F803E028468021FFF718FE0CB0BDE8F0812846A321FFF7D9
:2077000011FE0CB0BDE8F08103F17143039A03F54233FA339A4292D1BDF8102047F26903E0
:207720009A428CD1D6F8A02002A8282110F0E0FB85E700BF756E6B6E053600204C360020D0
:20774000E4A6010064A70100F8A601003CA8010048360020643600206CA8010030A80100C8
:20776000F80B002010B5164C237803B110BD07F01FFC144B187007F01BFC134B187007F0BF
:2077800017FC124B187007F013FC114B187007F00FFC104B187007F00BFC0F4B0F4902462A
:2077A0000F481A70FEF7AEFC0E490F48FEF7AAFC0E490F48FEF7A6FC0123237010BD00BF78
:2077C0000436002048360020103700201237002060360020133700201137002080A8010030
:2077E000D800002094A80100FC000020A4A80100200100202DE9F043454B93E8070093B00C
:2078000008AB03C323F8022B140C00211D220DF12B001C7012F03EFC01200EF01FF90028D7
:2078200061D00646324608A8282110F061FBDFF8FC90DFF8FC80374F032504AC99F8001049
:207840004B1CA7FB032000F4FF7202EB50029B1A58F8210089F80030214610F0DFFA10220F
:207860002146304612F0E0FB013D002836D094E80F006C4684E80F000FCC274C206000203C
:2078800043F2163560826160A260E3602582FFF7C9F90222034601212048FFF7CBF9204907
:2078A0001E48FFF763FD4FF480721E491E4812F013FC01200EF0D2F8024620B11A484FF452
:2078C000807110F015FB184812F0ECFB164902461248FFF7A9FD13B0BDE8F08315F0FF05DD
:2078E000ACD16C46C8E7114D0A4A2878104E431CA2FB031202F4FF7101EB520204AC9B1ADE
:2079000056F820002B70214610F088FAAFE700BF88A90100ABAAAAAA4C36002064360020E9
