:020000040000FA
:20100000000004202D9700005597000057970000599700005B9700005D9700000000000038
:201020000000000000000000000000005F97000061970000000000006397000065970000CC
:2010400079D5000079CB0000ED53010067970000679700006797000015D2000067970000DE
:2010600051230100679700006797000089D600006797000089D50000679700006797000048
:2010800095F6000067970000679700006797000067970000679700006797000067970000D3
:2010A00067970000679700006797000067970000679700006797000000000000000000003C
:2010C0006797000067970000679700006797000067970000679700006797000079EE0000B7
:2010E0006797000067970000679700000000000000000000679700000000000067970000FA
:201100000000000000000000000000000000000000000000000000000000000000000000CF
:201120000000000000000000000000000000000000000000000000000000000000000000AF
:2011400000000000000000000000000000000000000000000000000000000000000000008F
:2011600000000000000000000000000000000000000000000000000000000000000000006F
:2011800000000000000000000000000000000000000000000000000000000000000000004F
:2011A00000000000000000000000000000000000000000000000000000000000000000002F
:2011C00000000000000000000000000000000000000000000000000000000000000000000F
:2011E0000000000000000000000000000000000000000000000000000000000000000000EF
:2012000001F0FF01102A2BDB10F0070F08D010F8013B013A8B422DD010F0070F42B3F6D194
:20122000F0B441EA012141EA014122F007047FF000070023F0E80256083C85EA010586EA41
:20124000010685FA47F5A3FA87F586FA47F6A5FA87F68EB9EED1F0BC01F0FF0102F007023C
:2012600032B110F8013B013A83EA010313B1F8D10020704701387047002D06BF354603389F
:20128000073815F0010F07D1013015F4807F02BF013015F4C03F0130F0BC0138704700BF63
:2012A000D0B5038804463BB15C2B0DD188290FD082290DD00120D0BD80211D4807F0E0FEE2
:2012C0005C2323800120D0BD002303800320D0BD04F0BEFBE8B904F09FFB02460B4652EA37
:2012E000030116D010A7D7E90067D90141EA5261D0018F4208BF86420FD3002908BFB0F5C6
:201300007A7F0DD34FF47A72002319F097FE0146D3E708480EF02EFDD2E74FF4F051CCE79A
:201320000121CAE7AFF30080E733750000000000540D0020A80000202DE9F04FA3B01F46D3
:2013400000231E93A44B19921B6807930446184688461AF078F84FF0000A05464FF0000B34
:20136000CDF874801D9B1A782B2A4CD039D80D2A32D8082A32D8002A3CD000230E931D9EB6
:201380003378302B40F0B480737803F0DF03582B6CD10E9B01931EAB029700938F4A1FAB8E
:2013A0001DA9204617F0BEFC10F00707054605D0062F2AD1013600231D960E93199B002B55
:2013C00040F096850E9BDBB152460BF1004343EC102B23B0BDE8F08F202ACED101331D9388
:2013E000C0E72D2AC9D101220E925A1C1D925B78002BC4D1199BCDF87480002B40F0768517
:2014000052465B46E3E70022EEE71E9A3AB1352120A81AF052FA1E99204617F011FF013F47
:20142000052F07D8DFE807F00E0B181D0E034FF0000BDA462807C1D54BF0004BBEE7DDE95C
:2014400020ABF7E7DDE920A31F9A23F4801302F2334243EA025BEDE7DFF884B14FF0000ADB
:20146000E8E76FF0004B4FF0FF3AE3E71D9B5A1C1D925B78302BF9D0002B9FD001234FF0E0
:20148000000904931D9B0A93CDF824904F460A221D980678A6F13003D9B209292AD90799C0
:2014A0002A4619F0D8FF98B3002033463D4607900246652B01D0452B18D11DB9049B034321
:2014C00098D00025DDF8748008F101031D9398F801302B2B75D02D2B7BD04FF0000CA3F12B
:2014E0003001092940F28280CDF8748000269DE00023C4E7082FD8BF099900F10100DABF30
:2015000002FB0133099302FB093901371D90BFE71D9B5A191D925B5D002F37D007903D4652
:20152000A3F13002092A12D90122C2E71D9B5A1C1D925B780130302BF8D0A3F13102082AFE
:2015400000F2DB841D9A079000200A920546303B00F1010214D00799114407912A4600EBBA
:20156000050E0A21724513D12A18082A05F1010505441CDC09990A2202FB01330993002224
:201580001D9B591C1D915B781046C9E73846D2E7082A04DC099E4E4309960132E2E702F188
:2015A000010CBCF1100FD8BF01FB09F9F5E7102DDCBF0A2202FB0939E1E7002307930122F6
:2015C0007CE74FF0000C08F102031D9398F8023085E74FF0010CF6E760200200382002007C
:2015E0000000F07F1D9B591C1D915B78302BF9D0A3F1310108293FF679AFA3F1300E1D9BCC
:2016000008931D9B591C1D915B78A3F13006092E37D9089E891B082944F61F6602DC76459D
:20162000A8BF7646BCF1000F00D07642002D4FD1049901437FF4C2AE002A7FF4DBAE692B78
:2016400027D024DC492B24D04E2B7FF4D3AE9E491DA819F0D1FF00283FF4CCAE1D9B1B7819
:20166000282B2DD1994920AA1DA819F0D9FF052826D1219BDDF880A043F0FF4B4BF4E00B4B
:201680009CE60A2101FB0E3EAEF1300EB9E76E2BDBE78F491DA819F0AFFF00283FF4AAAE76
:2016A0001D9B8C49013B1DA81D9319F0A5FF10B91D9B01331D93DFF82CB24FF0000A7DE679
:2016C000854800F045FC8DED040BDDE904AB75E6079B0998F31A002F08BF2F46102D089320
:2016E000A846A8BF4FF0100819F0E6F8092D82468B4613DD794B03EBC80353E9122319F0A1
:2017000055F9824648468B4619F0D6F802460B465046594618F094FF82468B460F2D38DC2B
:20172000089B002B3FF44AAE24DD162B0BDC6B4D05EBC305D5E9000152465B4619F036F9E7
:2017400082468B463AE6089AC5F12503934220DB624CC5F10F0504EBC50152465B46D1E960
:20176000000119F023F9089B5D1B04EBC504D4E90023E3E7089B16330BDB079B574A9E1BF8
:2017800002EBC606D6E900235046594619F038FAD6E7089BA5EB08089844B8F1000F71DD5C
:2017A00018F00F030AD04D4901EBC30152465B46D1E9000119F0FAF882468B4638F00F0828
:2017C0004DD0B8F59A7F22DD00252E46099507952223DFF810B123604FF0000A099B002BDC
:2017E0003FF4ECAD1E99204617F02AFD0799204617F026FD3146204617F022FD0999204697
:2018000017F01EFD2946204617F01AFDD6E500234FEA2818504659469946B8F1010F21DC92
:201820000BB182468B462E4BABF1547B03EBC90952465B46D9E9000119F0B8F8294B0A4636
:201840000B4029498B428246BED8A1F580118B4286BFDFF898B04FF0FF3A02F1547B0023EB
:20186000049381E018F0010F07D01D4B03EBC903D3E9002319F09AF8012309F101094FEA84
:201880006808CAE7EBD0C8F1000818F00F020AD0124B03EBC20350465946D3E9002319F08B
:2018A000AFF982468B465FEA2818D8D0B8F11F0F1EDD00252E460995079522234FF0000A83
:2018C0004FF0000B236089E7752102004C2002006C2102006F210200B3210200B0BC010061
:2018E00088BC01000000F07F0000A07CFFFFEF7F18F0100318BF6A23DFF8B49304935046E2
:201900005946002318F0010F04D0D9E9002319F04DF801235FEA680809F10809F2D10BB17F
:2019200082468B46049BBBB1CBF30A53C3F16B03002B594610DD1F2B40F32881342BDEBFED
:20194000203B4FF0FF3202FA03F34FF0000ACCBF4FF05C7B03EA010B00220023504659466D
:2019600019F08CFA0028A4D1099B00930A992B463A46204617F0D0FC099000283FF424AF70
:20198000079B9E1B089B002BB4BF334600231093089B002523EAE37318932E46099B204618
:2019A000596817F00DFC079000283FF411AF099B1A69023203F10C0192000C3019F001FD73
:2019C0004BEC10AB20AA1FA92046CDE90AAB17F073FF1E9000283FF4FBAE0121204617F0F8
:2019E000E5FC064600283FF4F3AE1F9B0499002BABBF109A189A189FDDF84090ACBF03EBC1
:201A00000209D71A209AA3EB01089044A34B08F1FF389845C2F1360280F2CC80A3EB080368
:201A20001F2BA2EB03024FF0010100F3B68001FA03F3119300230C9309EB0208049BC14566
:201A400017441F444B46A8BF4346BB42A8BF3B46002BC2BFA8EB0308FF1AA9EB0309109BB4
:201A6000002B17DD31461A46204617F05BFD064600283FF4ADAE01461E9A204617F0ACFC95
:201A80000F9000283FF4A4AE1E99204617F0D8FB0F9B1E93B8F1000F00F39180089B002B1E
:201AA00008DD189A0799204617F03CFD079000283FF48EAE002F08DD07993A46204617F07A
:201AC0008BFD079000283FF483AEB9F1000F08DD31464A46204617F07FFD064600283FF426
:201AE00077AE079A1E99204617F0E2FD054600283FF46EAEC3680F930023C360314619F0C8
:201B00008DFE002865DA0F9B53EA0A0340F08780CBF31303002B40F082802BF000431B0DF1
:201B20001B05B3F1D66F7AD96B6913B92B69012B75DD29460122204617F04EFD314605468B
:201B400019F06CFE00286ADD0499554A5B46002900F0858002EA0B01B1F1D66F7FDCB1F1CC
:201B60005C7F7FF7AAAE4F4A0023CDE916325046DDE91623594618F019FF0B46034308BF50
:201B8000222382468B4608BF23602BE64FF0FF3202FA03F303EA0A0ADEE6C8F17F4808F568
:201BA0007F0808F57B4808F1E20801FA08F30C93119141E700230C93012311933CE71E9938
:201BC0004246204617F008FD1E9000287FF466AFFEE55F466ED10F9ACBF3130342B3324AF8
:201BE000934228D1049B5046EBB12D4A3A40B2F1D46F4FF0FF3119D8120DC2F16B0301FAD4
:201C000003F3984217D1294B9F4202D101303FF4DFAD234B3B4003F5801B4FF0000A049B90
:201C2000002BA0D1DEE54FF0FF33EAE70B46E8E753EA0A0388D00C9BDBB13B42EFD00F9B28
:201C4000049A50465946C3B119F041FC02460B46DDE90A0118F0F4FC82468B46DFE71340E3
:201C6000A3F580136FEA135B6FEA0B5B4FF0FF3AD5E7119B13EA0A0FE0E719F028FC024681
:201C80000B46DDE90A0118F0D9FC0022002382468B4619F0F3F80028C1D00EE602FCFFFFCA
:201CA0000000F07F00005039FFFF0F00FFFFEF7F60BC01003146284619F0CCFD59EC108BFF
:201CC00010EE100A00224FF08043494619F0EAF800287CD00F9B002B4CD0954B0022CDE931
:201CE0000C23DFF84C924FF00008924B3B401193119A914B9A4240F0B280DDE90A23DDE93F
:201D00000C01A7F1547B4BEC10ABCDE91623CDE90C0117F055FDDDE90C0153EC102B18F0FD
:201D200045FE52465B4618F08BFC0B468149834A1940914282465ED90B9B02F15472934251
:201D400003D10A9B01333FF443ADDFF8FCB14FF0FF3A1E99204617F073FA0799204617F019
:201D60006FFA3146204617F06BFA2946204617F067FA13E6BAF1000F1BD1CBF31303F3B955
:201D80006B4B00224046494619F082F8D0B9404649466B4B002218F009FE8046894609F1BF
:201DA0000043CDF868801B93DDE91A23CDE90C239BE7BAF1010F02D1002F3FF47EAD614B54
:201DC00000228CE7DFF878914FF00008E7E75C4B40464946002218F0E9FD0F9B804689466E
:201DE00033B901F1004312901393DDE91223DDE7CDE91289F9E703F1547B049B002BA8D184
:201E00002BF00043119A1B0D1B059A42A1D14046494619F02BF918F09BFD02460B46404622
:201E2000494618F00BFC0F9ACBF3130343EA0A0313438046894653D035A3D3E9002319F07F
:201E400027F800287FF4CEAC33A3D3E900234046494619F03BF800283FF47BAFC2E4049B7E
:201E600033B3119BB3F1D46F22D82DA3D3E900234046494619F016F8A0B14946404619F0A5
:201E80006DF8012838BF012018F016FD0F9B8046894613BB01F1004314901593DDE91423F6
:201EA000CDE90C230D9B119A03F1D6639B1A0D93DDE90C019DED0A0BCDE90C0117F080FCB0
:201EC000DDE90C0153EC102B18F070FDDDE90A2318F0B6FB82468B468FE7CDE91489DDE76E
:201EE00011A3D3E9002318F0D3FFB4E700230E93199A1D9B1360FFF765BA652B3FF45DAB58
:201F0000452B3FF45AAB0122FFF792BBAFF300809535A094FFFFDF3F35E5AF350000E03F5A
:201F20000000C0FFFFFFDF419535A094FFFFCF3F0000F03F0000F07F0000E07FFFFF9F7CA4
:201F40000000E03F0000F0BFFFFFEF7F000000009FED010B704700BF000000000000F87FC2
:201F600010B5054C237833B9044B13B10448AFF300800123237010BD980A002000000000FD
:201F80000424020008B5034B1BB103490348AFF3008008BD000000009C0A002004240200D2
:201FA000A3F5803A704700BF174B002B08BF134B9D46FFF7F5FF00218B460F461348144ADA
:201FC000121A19F026FA0E4B002B00D098470D4B002B00D098470020002104000D000D48A0
:201FE000002802D00C48AFF3008016F0CDFD2000290004F0EFFF16F0B3FD00BF00000800F9
:2020000000000000000000000000042050050020EC4A0020000000000000000000B585B0E7
:202020000346002101AA44F20100CDE90111039300F004F805B05DF804FB00BF72B6094BC6
:202040001B68DB0700D500BEBFF34F8F0649074BCA6802F4E0621343CB60BFF34F8F00BF1D
:20206000FDE700BFF0ED00E000ED00E00400FA050378052B02D0094B1B681847084BD3F85F
:202080008424D3F8803413F0FF0FF4D1054BD2B2052A08BF1846014B1B681847B40A00200F
:2020A0000070024090BD0100014B02481B681847B40A002094BD0100012803D0022809D079
:2020C00020B17047054B06481B681847034B05481B681847014B04481B681847B40A002023
:2020E00088BD010084BD01008CBD01002DE9F04F87B0002504460F4690469946029500E092
:2021000001356268012356682146002202A8B0470028F5D18DF80600049065B382468346FD
:202120000AE09DF806306668023B7668B0479DF806309B445D451ED96268012356682146B4
:202140000DF1060204A8B04762680123566821460DF1070204A8B0479DF80730BB424FF011
:202160000002214604A8DCD1D04508D00AF1010A5FFA8AFAD5E7052007B0BDE8F08F109A67
:202180009DF80630136089F8003089F801706168023B4D6809F102022146A847002007B078
:2021A000BDE8F08FF0B5054683B03B480CF090F9044610B1204603B0F0BD384A3849394B78
:2021C00014700C604822214637481C6019F021F936482146482219F01CF9002D54D095E8E5
:2021E0000700334B83E80700002847D000200AF0BDFD08B1852844D12E4D2B7A002B49D0F6
:20220000013BDBB205F10C024FF0030E6E68274FDFF894C01EFB032E05F109046378EBB166
:20222000A278611C1144013B51FA83F1224408E003F00F0307EBC30391421D60306858600C
:202240000CD012F8013B1806F2D503F00F030CEBC30391421D6030685860F2D10334744562
:20226000DCD10B238DF804301248336801A99847044600289ED00CF06DF99BE70E4A1A60B6
:20228000B4E7FFF7CBFEB7E7094B0B4A5D601D721A60ABE76E68E4E771200000973D00201F
:2022A000500B0020540B0020C00A0020080B0020B40A0020C0BD01008126000010B50CF043
:2022C00063FA68B10CF068FA044648B906480AF061FD034628B1FFF7A1FE2346184610BDEE
:2022E0000823184610BD00BF80BD01000CF03CB90DF03AB84FF0804303E0D3F83824D107C7
:2023000007D5D3F838249207F7D5024B02481B6818477047B40A002098BD010000B5054BEC
:2023200083B082221B688DF8042001A8984703B05DF804FBB40A00202DE9F043057A83B032
:20234000002D5ED005F1FF3E5FFA8EF300F10C024FF0030E00F10901334FDFF8D4C01EFBC5
:20236000032E0C4666780022964204EB020319D094F8028013F9089013F80830B9F1000F77
:202380000BDB03F00F0307EBC3031B680132002BEAD0112003B0BDE8F08303F00F030CEB07
:2023A000C303F2E70334A645DCD100261E4FDFF880C0324602EB42020A445378EBB1002483
:2023C00023460CE003F00F0307EBC303186045682D685D6055780134E3B29D420CD995780C
:2023E000134413F905E05B5DBEF1000FEADA03F00F030CEBC303E9E7057A0136F2B2954298
:20240000D8D80A4A13681BB11A681368002BFBD1106043680B228DF804201B6801A9984780
:2024200003B0BDE8F08300BF080B0020500B0020C00A0020024B1878003818BF01207047B6
:20244000963D0020030710B5044604D52046BDE810400CF021BE0CF039FB20460CF074FE5D
:202460002046BDE810400CF017BE00BF0DF05AB8014B1868704700BF500B0020F0B40E4BA8
:202480001F688FB13E7A96B100231C463A4602E0DCB2A6420BD9557A854203F1010302F1B4
:2024A0000302F5D101B10C703846F0BC70473B681F68002FE6D1F7E7500B002043681146D7
:2024C0001B68184700F00F03082B0AD802064CBF054A064A02EBC303186810B143681B682F
:2024E00018471020704700BFC00A0020080B002038B5094B1C6864B1054602E023681C68A4
:202500003CB1636829461B68204698470628F5D038BD062038BD00BF500B002038B50D464F
:2025200004460CF0A5F918B1054B1B78022B01D0082038BD29462046BDE838400CF0A8B9A1
:20254000973D002038B50D4604460CF091F918B1054B1B78022B01D0082038BD29462046DB
:20256000BDE838400CF026BA973D0020F8B543689B6805460C4616461BB19847062800D071
:20258000F8BDEEB92B7AA3421CD9093504EB44042C44677897B133463A469A420BD9A37880
:2025A000A2190136D05CFFF74DFFF3B2BB4205D262789A42F3D800231B78FFDE0020F8BD59
:2025C0000720F8BD7378FFDE70B54368DB6805460C4603B198472B7AA3421AD9093504EB6A
:2025E00044042C4466789EB100252B46324693420BD2A37862190135D05C0CF093FFEBB213
:202600009E4205D962789342F3D300231B78FFDE70BD00235B78FFDE43681B6903B11847B2
:202620001846704770B50A4B1D687DB12E7A4EB100242146013400222846FFF797FFE1B242
:20264000B142F7D32B681D68002DEFD170BD00BF500B002070B5094B1D6875B12E7A46B18E
:202660000024214601342846FFF7AEFFE1B2B142F8D32B681D68002DF0D170BD500B00208A
:2026800070B503780446852B00F2BF80DFE813F00002B201BE003A026602E300EA00BD0004
:2026A000040117012A01BD00BD00BD00BD003D01BD00BD00BD00BD00BD00BD00BD00BD00B8
:2026C000BD00BD00BD00BD00BD00BD00BD00BD00BD00BD00BD00BD00BD00BD00BD00BD002A
:2026E000BD00BD00BD00BD00BD00BD00BD00BD00BD00BD00BD00BD00BD00BD00BD00BD000A
:20270000BD00BD00BD00BD00BD00BD00BD00BD00BD00BD00BD00BD00BD00BD00BD00BD00E9
:20272000BD00BD00BD00BD00BD00BD00BD00BD00BD00BD00BD00BD00BD00BD00BD00BD00C9
:20274000BD00BD00BD00BD00BD00BD00BD00BD00BD00BD00BD00BD00BD00BD00BD00BD00A9
:20276000BD00BD00BD00BD00BD00BD00BD00BD00BD00BD00BD00BD00BD00BD00BD00BD0089
:20278000BD00BD00BD00BD00BD00BD00BD00BD005101860060011C02E301E3008C4B8D4986
:2027A000D3E9000290478C4B1C684CB1894D636820461B682946984723681C68002CF6D152
:2027C000864C63680BB10D209847FFF743FF01F075FB834B1B68002B00F0FD810120814D22
:2027E0000BF0A0FF2A78931EDBB2062B00F215827D49CB5C13B10AF09FFA2A78022A40F063
:202800000C820CF00BF801232B7070BD754D2A78931EDBB2062B00F2CD817349CB5C13B185
:202820000AF08AFA2A78022A40F0C4810BF0F6FF6A4B5B6803222A700BB102209847664B42
:202840001D6845B16B6828461B68214698472B681D68002DF6D15E4B2146D3E90002BDE874
:202860007040104790F902308278002BB4BF5F4B574B02F00F0203EBC203D3E900022146D7
:2028800090470028C1D0A0780207BED00307BCD4BDE870400CF0ECB8504B5B680BB1082028
:2028A00098474D4B1D68002DAFD06B6828461B68214698472B681D68002DF6D1A5E7474B3C
:2028C0005B680BB109209847434B1D68002D9CD06B6828461B68214698472B681D68002D76
:2028E000F6D192E73D4B5B680BB10A2098473A4B1D68002D89D06B6828461B6821469847EE
:202900002B681D68002DF6D17FE7344B5B680BB10F209847304B1D68002D3FF476AF6B68E1
:2029200028461B68214698472B681D68002DF6D16BE72C4C2378062B00F04F8103F0FD030B
:20294000052B7FF462AF0BF073FF0223237070BD244DFFF77FFE0CF0FBFC2A78931EDBB2BA
:20296000062B31D82049CB5C13B10AF0E5F92A78022A29D10BF052FF174B1C6800232B7039
:202980004CB11B4E636820461B683146984723681C68002CF6D10E4B1549D3E90002904779
:2029A0000E4B5B680BB10E2098472B78023BDBB2062B3FF62AAF0C4AD35C002B3FF425AFCF
:2029C000BDE870400AF0B8B9082AD5D1D2E700BF080B00209CBD0100500B0020B40A002001
:2029E000540B0020973D002078BD0100C00A0020A0BD01009C4DFFF72DFE01F055FA2A78FA
:202A0000931EDBB2062B00F2D9809849CB5C002B00F0D480022A03D0082A01D00BF008FF81
:202A2000934B5B6802222A700BB101209847914B2146D3E9000290478F4B1D68002D3FF4E4
:202A4000E4AE6B6828461B68214698472B681D68002DF6D170BD844D2B78032B00F0C680C9
:202A60000BF0A4FE00283FF4D0AE2A78931EDBB2062B40F2EB8081480AF030F92A78022A78
:202A800001D0082A01D10BF0C9FE06232B7070BD754B1B78032B00F0A580082B00F0A280D3
:202AA000734B5B680BB100209847754B1D68002D3FF4ABAE6B6828461B68214698472B683F
:202AC0005D68002DF6D170BD674D2B78032B7FF49CAE0CF079FC00283FF497AE2A78931E6A
:202AE000DBB2062B00F2BB806049CB5C13B10AF023F92A78022A40F0B2800BF08FFE042362
:202B00002B7070BD584D2A78082A5CD0931EDBB2062B00F286805549CB5C002B00F0818000
:202B2000022A00F0878005232B70514B5B680BB1032098474F4B2146D3E9000290474E4B63
:202B40001D68002D3FF461AE6B6828461B68214698472B681D68002DF6D170BD444B5B68EC
:202B60000BB103209847434B4649D3E900029047414B1C684CB1434D636820461B68294625
:202B8000984723681C68002CF6D1374D2B78062B1ED0082B0BD09A1ED2B2062A4DD83349F3
:202BA0008A5C002A49D0022B01D00BF041FE02232B7070BD082A7FF43BAE37E62F480AF0AB
:202BC0008DF82A7826E702232B700BF03BFEACE707232B7070BD207A01E60BF029FE08237A
:202BE000237070BD2848FFF74BFD59E70CF0ECFB00283FF435AF2A78931EDBB2062B2BD8F1
:202C00001A49CB5C13B10AF097F82A78022A23D10BF004FE04232B7022E7082A7FF4F3AD0E
:202C2000EFE516480AF05AF82B78022B02D0082B7FF479AF0BF0F2FD75E710480AF04EF8C8
:202C40002B78022BB3D0082BB1D0AEE70749CB5C002B7FF414AF0EE7082ADBD1D8E7082A3C
:202C60007FF44DAF49E700BF973D002078BD0100B40A0020080B0020500B00200800002018
:202C8000540B0020A8BD0100A4BD01004360CA699A4205D38A6902600B67CB610020704799
:202CA00001F1280202608B6700207047F0B504680E7A002C00F07284A4F212347C2C00F2AC
:202CC000C1827C2C00F2BE82DFE814F074020003DE02CF02C7022A0307032303BC02BC0240
:202CE000BC02BC02BC02BC026702D702BC02BC02BC02BC02CC010F03E602BC02BC02BC02A1
:202D0000F401EE038C03BC02BC02BC02BC02FF00CB034803BC02BC02BC02BC02BC02BC02BA
:202D20006402BC02BC02BC02BC0219019B039303AC035703BC02BC02C3038403B403390322
:202D40005F03BC02BC024103DB015003ED00BC02BC023203DB00F503BD00BC03BC02BC02B9
:202D6000BC02BC02BC02BC02BC02BC02BC02BC02BC02BC02BC02BC02BC02BC02BC02BC0273
:202D8000BC02C900D303BC02BC02BC026703BC02BC02BC02BC02AC00BC02BC02BC02BC0296
:202DA000AC00BC02BC02BC02BC02BC02BC027D00C002BC02BC02BC02BC02B800BC02BC0288
:202DC000BC02BC02B80001240025002A00F0CD8307795755A3424FF00005057140F27C830F
:202DE000171901343D70B04D0F7D2D682D78AF4200F0B0838F7DAF4209D10025A342057193
:202E000040F24D85254601340AB107795755DFF8A0C2A64F9CF800503F780135EDB28CF805
:202E200000507BE1012500240AB1077917554024AB42047140F289836C1CC6E70124002572
:202E4000002AE2D1E3E701240025002A40F031848D7D0571A34240F262830134FFE00125BC
:202E60000024002A00F03D8307791755AB424FF00504047140F27E83274602EB050C6C1C98
:202E8000FDE201250024002A40F011840624AB42047140F23F8301350C7D0471AB4240F247
:202EA00091836C1CD4E701250024002A40F003840524AB42047140F228836C1C2425A34272
:202EC000057140F27583651CE0E701240025002A00F0FA83077957554FF0000CA34280F855
:202EE00004C040F29084651C0027AB4202F804C0077140F2F383541901352770F3E0012522
:202F00000024002A00F0EF8307791755AB424FF02404047140F2C183274605F1010C002442
:202F200063455755047140F2A98325460CF101071024BB4202F80C50047140F2908325464E
:202F400007F1010C01246345D555047140F2788325460CEB04070524BB4202F80C50047175
:202F600040F25D83254607F1010C24246345D555047140F24A8325460CF101070124BB42AF
:202F800002F80C50047140F23683254607EB040C03246345D555047140F228830CF10107BE
:202FA00002F80C40BB4291F816C080F804C040F218837C1C0425A34202F807C0057140F257
:202FC0000B8302EB040C2F4601342425A3428CF80070057140F2FB822F46651C1755AB4226
:202FE0004FF00204047140F29F82274602EB050C6C1C0225A3428CF80070057140F2DD82CA
:203000002F46651C1755AB424FF00504047140F27C82274602EB050C6C1C2425A3428CF8CF
:203020000070057140F2C4822F46651C1755AB424FF00604047140F26D82571901353C70B2
:203040000F7D0771AB4240F2BD826C1C5755A3428D7D057140F26382171901343D70124DED
:203060002D6851E001270024002A00F04082057915559F424FF00004047180F0F5827D1C61
:2030800039E101250024002A40F017830224AB42047140F249826C1C0225A342057140F217
:2030A0008C82651C04E700BF580B0020983D00209A3D002001240025002A00F09883077969
:2030C00057559C424FF00205057180F05883671C1555BB424C7E047140F2E48202EB070C9E
:2030E0007D1C8CF800400024AB42047140F221826C1C0AB107795755C64D91F814C02D68A4
:203100002F78BC4500F01A82DFF810E3DFF810C36F788EF8007000258CF80050BD423FD320
:20312000BD4F3D780135EDB23D70AE4240F2CA810925A342057140F25583651C002A00F0B1
:20314000128307791755AB424FF00404047140F2B682274602EB050C6C1C8CF800700F7A6B
:20316000AD4D2D78AF4240F2AC8305EB450501F10907DFF8A0C217F805E080F804E03D4418
:203180009C42CCF8005080F07E82671C002A7FF46EAFACE101240025ABE701250024CDE729
:2031A0000725A342057140F29281651C002A7FF45BAE96E1002A00F0EB8204791470012BF1
:2031C0004FF00B04047140F2238302250127D455AB420F7D077140F25B8205F1010C0224B3
:2031E00063455755047140F2448225460CF101070224BB4202F80C50047140F22B82254666
:2032000007F1010C02246345D555047140F213820CF1010702F80C40BB4291F819C080F853
:2032200004C040F2F7817C1C0025A34202F807C0057140F2E581171901343D70764F0025B3
:203240003D7072E7002303601846F0BD002A00F0F282057917460124C4E5002A00F0F28212
:2032600005794FF0010C0027CCE7002A00F0EC82057901274FF0000CBAE7002A00F0FF82F5
:2032800007799446012468E7002A00F0D78207794FF0010C0025A2E75E4C002A00F0E68247
:2032A00007792468944601258CF8007024780F7DA74200F0B9818F7DA7427FF414AF0A247A
:2032C0009D42047180F0F5826C1C00E6002A00F0D28204790125002779E7002A00F0B08261
:2032E00090F804C0012400279EE7002A00F0C182047901250027DFF81CC1D455DCF8004099
:20330000AB426778077140F2A08102EB050C0135CAE7002A00F0B1820579174601248CE771
:20332000002A00F08482047901274FF0000C71E7002A00F0A7820779944601246DE6002AE6
:2033400000F08E82047901274FF0000C28E6002A00F0A18207799446012436E6002A00F07D
:2033600000821446077927700125BCE6002A00F08E820779944601243BE6002A00F07282BA
:20338000057901274FF0000CE5E5002A00F0608290F804C0012400270CE61E4C01252768CD
:2033A00000241AB190F804C002F804C03C780F7DA74200F0E9808F7DA7427FF438AD02241F
:2033C000AB42047140F270822C460135002A7FF42CAD2CE5002A00F04782057901274FF070
:2033E000000CCBE5002A00F0BC8104799446012577E6002A00F01682057901274FF0000C3D
:2034000096E5002A00F0458207794FF0010C002585E500BF580B0020993D0020983D0020C8
:203420009A3D0020002A00F0308205794FF0010C002787E5002A00F00F8205794FF0010CF7
:203440000027A5E5002A00F0F48105791746012404E6002A00F0218205794FF0010C002794
:2034600083E5002A00F0F68190F804C0012500243AE5002A00F0EA810779944601248CF816
:203480000070C14FC14D3F682D7897F801C0AC4540F2148297F802C03D44A34215F80C5029
:2034A00005716CD9651C7CE7002A00F0D7810579012700240CE6002A00F0B6810479174614
:2034C0000125BCE540F2993303600120F0BD40F26D3303600120F0BD4FF461730360012058
:2034E000F0BD0524AB42047144D96C1CC9E79F42027180F0B9807D1CA34C2468AB42677862
:20350000077140F2A2800135D0E640F2553303600120F0BD40F2573303600120F0BD40F2E9
:20352000593303600120F0BD40F2513303600120F0BD4FF44F7303600120F0BD0525A342A2
:20354000057140F21781651CDBE440F2833303600120F0BD0D6AA3422D7805713FF652AC28
:2035600040F2893303600120F0BDA3420271B3D9013438E440F26E3303600120F0BD40F2C1
:20358000723303600120F0BD0324AB4204713FF61BAF40F2773303600120F0BD082404711F
:2035A000002B7FF407AE40F2123303600120F0BD40F2563303600120F0BD40F2523303600A
:2035C0000120F0BD4FF4567303600120F0BD4FF4547303600120F0BD40F24F33036001206D
:2035E000F0BD4FF4537303600120F0BD40F24B3303600120F0BD40F24A3303600120F0BD23
:2036000040F2193303600120F0BD40F2493303600120F0BD4FF4467303600120F0BD4FF4AC
:20362000527303600120F0BD02249D42047180F0F4806C1C40E540F2173303600120F0BDDC
:2036400040F2453303600120F0BD4FF44A7303600120F0BD40F2163303600120F0BD4FF46F
:20366000517303600120F0BD40F2273303600120F0BD40F2153303600120F0BD40F2433345
:2036800003600120F0BD40F2263303600120F0BD4FF4457303600120F0BD40F24233036007
:2036A0000120F0BD40F22E3303600120F0BD0779BCE40779CAE40779A4E407798EE440F2FE
:2036C000213303600120F0BDA342027140F29B80013400259C420571C0F0938040F23533B5
:2036E00003600120F0BD2424AB420471D5D96C1C00259C420571C1D2013410259C420571EF
:20370000ADD2013401259C42057199D22C4405259C42057183D2013424259C420571BFF448
:2037200074AF013401259C420571BFF464AF2C4403259C420571BFF459AF01348D7D057195
:203740009C42BFF44EAF01340425A34205717FF643AF01342425A34205717FF638AF651C05
:2037600094E40125BFE40424AB420471A7D90F7A6C1CF5E440F2413303600120F0BD40F20B
:203780002D3303600120F0BD580B00209A3D00200B24012B04713BD902240D7D05719C4236
:2037A000BFF476AF01340225A34205717FF661AF013402259C420571BFF44CAF013402253B
:2037C000A34205717FF637AF01344D7E05719C42BFF420AF013400259C420571BFF410AF3D
:2037E00001342BE54FF4487303600120F0BD02259C420571C3D201344D7E05719C42BFF43E
:2038000051AF651C6FE44FF44D7303600120F0BD40F2133303600120F0BD4FF44B73036093
:203820000120F0BD012468E70125FFF735BB0124CBE7012413E40124FFF7D5BA0124B2E7DF
:203840000124C8E70124BAE70124B2E7012418E6012479E701243CE7012469E70124CBE7D4
:2038600001246BE7012452E701245BE7246801251CE5012540E601248FE70124DEE437460E
:2038800001246DE40124FFF719BB01243AE7012402E401242CE701245CE701243CE740F258
:2038A0008E3303600120F0BD4FF45F7303600120F0BD40F2333303600120F0BD00231B7851
:2038C000FFDE024A002313601B78FFDE580B002070B90B681A7B202A01D0062070471A46AD
:2038E00052F80E1F9961918892799A7799837047032070474360CA699A4210D38A6910B429
:203900000260C8690C6FC01A1C441A44C86100380C6718BF01205DF8044B8A61704701F1FD
:203920002802026000208B67704700BF2DE9F0470B7888B00D4606460E2B14D8DFE803F0ED
:2039400008180808130D281313181308080808000024204608B0BDE8F0874B78DA0930D179
:203960005B09012B4CD00624204608B0BDE8F0870368002403F134022046C3E91E44C3E95E
:2039800020445A671C845C62DC6208B0BDE8F087027A8B78002A00F06581817A09300029B6
:2039A00000F05E81F17A415C9942D1D01B061ED4EF7807F0FD03012BCAD0002F65D00324F2
:2039C000C7E713F0600FC3F3411200F09180012AC9D18B78212BC6D1B1F80720072AC2D17E
:2039E0000168681C183100F073FA0446B1E7EC78002C00F09D80032C14BF03240024A8E7D9
:203A00008B780768202B00F09B80222BABD1B1F80730002BA7D1B1F8035097F820303D84F6
:203A200005F0010203F001039342154690D0C3691BB1C2F10301C9B29847002D88D1337ACB
:203A4000012B40F20B81737B06F10C04002B00F00381B37BE05C0BF0E1FC337A012B40F29B
:203A6000FD80737B012B40F2F780B37B23442C4658780BF0D3FC07F13403C7E91E55C7E963
:203A800020557D62FD627B6763E73568012A05F10C0140F2DF80727B012A06F10C0340F29B
:203AA000D7800691B27B704905911344AC6A93F80180002C60D1EA6FEB6AAC67C5E91F42F6
:203AC000002B00F0B480296B1846002205F1240383E803004046EA6205A9FEF733FD044609
:203AE000F369002B3FF435AF30460021984730E703F01F03012B7FF436AF8C78062C7FF459
:203B000032AF05A8039200F0D5FC03AA00920746EA78297930463B46FEF7E8FA05283FF403
:203B200018AF039A3946681C00F0D2F9044610E7F369002B3FF40CAF30460121984708E747
:203B4000B1F80720072A7FF40EAF3B73B1F80730DBB27B7300200E37CDE90573079000F011
:203B60008BFF002005A9FEF7D9FC0446002867D0002000F089FFECE6D5F88490686A4C45CC
:203B800028BF4C4605F1340A2246514617F019FCE86FEA6AEF67A9EB04030AEB040104447F
:203BA000C5E91D13C5F88040002A43D005F12C0797E8030005F12404002284E80300EA62C7
:203BC000002B3BD091461BE0696F686A17F0F9FBD5E91D32A96AC5F880100B44521AC5E962
:203BE0001D32F36913B1002130469847EB6A13B397E8030084E80300AB6FC5F82C90EBB1A5
:203C0000AA6A9342E0D2696F686A1A4617F0D9FBD5E90932A96FE967521A0B44C5E909321F
:203C200053B1404605A9FEF78DFC044658E700236B6255E700236B62002451E76B6AEFE722
:203C40000A4B049603A9039300F020FC04468FE73B78FFDE7B78FFDE2B78FFDE6B78FFDEC7
:203C60000B78FFDE5378FFDEF5380000D138000010B503681C8CE40784B015D50B46017A59
:203C8000012916D9417B00F10C0481B1817B605C91060CBF0124002401A9CDE9013203948F
:203CA000FEF73CFC04B010BD082004B010BD0B78FFDE00235B78FFDE0368D3F8800070470D
:203CC000F0B50468238CDB0783B022D50546002016460F4600F0D0FEA26F42B9636AE3B1D1
:203CE0001124002000F0D0FE204603B0F0BD964228BF1646616F3246384617F062FBD4E9E9
:203D00001D239B1B3244C4E91D23C4F880600024E7E70824204603B0F0BDC4E909762A7AFA
:203D2000012A12D9697B012905F10C020FD9AB7B0849009113440C34587801946946FEF7CB
:203D400001FC041E08BF9224CBE75B78FFDE1B78FFDE00BF8D2C0000002070472DE9F04F51
:203D60004B6885B0CDE900020C46002B71D00AF07BFEE568019B9D4228BF1D468146002D6C
:203D80007CD04FF0000A5646D3464FF00108D4E90113AB421F4628BF2F46E9B13A4609EB04
:203DA000060017F00EFBD4E90223D21BDB1BC4E90223C4F804B0ED1B3E442AB3002B08BF8D
:203DC0004FF00008002DE2D1009BC3F800905E60404605B0BDE8F08FABB120463B4650F82E
:203DE000101B4A68D2F804A009EB0602D047D4E90223D21BDB1BC4E90223ED1B3E445AB139
:203E00004FF0010ADAE7E368BAF1000F04D15BB99846002DBBD1D7E7226812681268226054
:203E20004FF0010A002BF3D02168F1B1CDF808B003E0A36821680133A3604B6800225F6858
:203E400002A80123B8470028F3D12061002D9ED1BAE70B681B681B68002B88D18B68002BD0
:203E600085D1036043609846B2E76160002EABD0019BB34288BF4FF00008A5E72E464FF0A7
:203E80000108A1E7054B0528187004D0044A137823F0020313700348FEF7F2BB9B3D00205F
:203EA0009C3D0020D0BD010008B50020FEF7CAFABDE808408020FEF7C5BA00BF08B5002048
:203EC000FEF7D4FABDE808408020FEF7CFBA00BF70B5C38893421E4628BF1646934284B060
:203EE0000D4612D8002400200394CDE9015600F0C3FD01A98020FEF711FB044688B10020FF
:203F000000F0C2FD204604B070BD802014460AF09FFCB4FBF0F202FB1044B4FA84F46409A7
:203F2000E1E70AF07BFE80280BD1094A094B92E8030083E80300002000F0A6FD204604B063
:203F400070BD002000F0A0FD1024204604B070BD08BE0100800B00202DE9F04F0B780E2B89
:203F600089B018D8F3B1013B0D2B1BD8DFE803F01F0E281A354C1A1A1A1A0E666F07B24B14
:203F80001B78012B02D00120FFF77CFF0024204609B0BDE8F08F852B04D1AB4B1B78032B5B
:203FA00000F040810624204609B0BDE8F08FA64B1B78032BF6D00320FFF764FF0624E6E7F8
:203FC000A24808F00FFE0028E0D0A14B01221A60BFF36F8FBFF34F8FD8E705230DF1150057
:203FE0008DF814300AF082FD9DF81530994E002203F01F043260032C00F2B980DFE814F0CF
:20400000E800B90099008D00C87803280D46C9D0904E3368002B00F00381002271683260DD
:204020009847044600287ED13368002B00F00581AB78002BAAD10AF07BFDA8E7824B1B787A
:20404000002BA3D00020FFF71DFF00249FE74FF08043D3F8383413F0010F7B4B1B7806D06B
:20406000022B93D00220FFF70DFF00248FE7012B89D18BE7BDF81B30002B00F0D880092B53
:2040800028BF09239946FEF7F3F90546002800F0DB81BB464FF0090ACDF80CB04FF0000873
:2040A00001E008F101086A68012357682946002203A8B8470028F4D12A682B7A15681C442C
:2040C000C244E4B2002DE7D1634D644928464A4617F077F92C71A5F802A0FEF7ABF918B14F
:2040E000EB7943F02003EB71FEF7C2F95C4BBDF81B2018600020C3E90159DA6000F0BCFCE3
:2041000058498020FEF71EFA0446002800F09F81002000F0B9FC062C05D105A8FEF7E8F97F
:204120000446002C73D00AF06FFD204609B0BDE8F08F9DF81900020707D005A9FEF7C2F931
:2041400006280446EDD19DF8153013F0600F0ED19DF816303C4A9DF819401278012B00F009
:20416000B980032B00F0A680002B00F0C6800624D9E79DF8190003A9FEF780F9054600283C
:2041800059D09DF80C1005AAFEF798F906280446C7D19DF8152012F0600FC4D12A4B9DF826
:2041A0000C101B78D20940F014819DF816200B2AB9D1052B40F0B280BDF81730FF2B00F27C
:2041C000FC809DF817202846FEF7D0F90446A8E713F0600FC3F341179FD1DB0948D19DF810
:2041E0001630032B00F09C80092B00F0A880012B93D1BDF81730012B8FD1FEF71BF90028AA
:2042000000F0D980184A137823F00203137033686BB10AF003FD044600287FF4B7AE0AE7E1
:204220000E2480E70420FFF72DFE0624AFE60AF0E1FC0024ABE6102475E70C4B1B68082BB8
:2042400033D00AF0D7FCA2E69B3D0020880B00205C700240800B00208C0B0020D4BD010059
:20426000680B002010BE01009C3D0020300100109DF81620062A00F08780082A73D0002A11
:204280007FF44BAF7B497C4B09781A80890744BF02221A7078490DF115000222FFF718FEC6
:2042A0000446062C7FF43DAF37E7744B1B68002BC7D16BE625073FF55AAFBDF81730002B1F
:2042C0007FF455AF052A01D0200727D120460AF0CFFB9CE721073FF54AAFBDF81730002B1F
:2042E0007FF445AF052A01D0230717D120460AF0EDFB20460AF028FF89E7052A01D02707D8
:204300000CD120460AF0C0FB5B49034602220DF115000B80FFF7DCFD044602E7082402E7DF
:20432000BDF81730012B7FF4F8AEFEF783F8002841D0504A137843F00203137067E7504CC9
:204340002378043B012BE9D89DF81730BBB3012B33D1FEF767F92378052B3FF458AF05209D
:20436000FFF790FD53E7464A1278052A47D0042A7FF4D3AE404B1F703F490DF11500012226
:20438000FFF7A6FD04468CE79DF81830022B3FF471AE032B36D0012B7FF4BFAEBDF81B302B
:2043A000002B3FF444AF37490DF115001222FFF78FFD044675E70F24B5E60724B3E6FEF736
:2043C00049F92378042B3FF422AF0420FFF75AFD1DE79DF816705FB30A2F7FF4A4AE052BFD
:2043E0009CD128460192FEF717F92349019A03460B700DF11500FFF76BFD044691E61E4AE5
:204400001370B9E7BDF81B30002B3FF410AFBDF819109DF8170000F01DFB014600283FF428
:204420007CAE0A780DF11500FFF752FD044638E7052B7FF473AF10490DF1150002220F802B
:20444000FFF746FD04466CE64FF0090A3CE60AF0E5FB802808D10C4B93E8030086E8030072
:20446000204600F011FBD2E6204600F00DFB102459E600BF9C3D00208C0B0020340100109D
:204480009B3D0020F4BD010008BE010038B505460C460AF0C3FBA84207D194E80300044ADA
:2044A00082E803000023184638BD1023184638BD800B002008B1402303600148704700BFAA
:2044C0008C0B0020F0B40D7A0DB101F109050468002C59D06FF4AB763444142C00F24A8182
:2044E000142C00F24781DFE814F05400E700EE00F500FC000301090110011701450145011A
:204500001E0125012C0145013B0033012700390115003F0101250024002A40F0DB818A8AAA
:20452000AB424FEA1222027140F2338140F26D1303600120F0BC704701250024002A40F08B
:20454000CD814A8AAB424FEA1222027140F226816C1C8A8A0271A34240F27B81651CDEE72B
:2045600001250024002A40F0B7810A8AAB424FEA1222027140F217816C1C4A8A0271A34280
:2045800040F26C81651CDCE709240471002B00F0F680002A00F0A48104791470012B4FF0DA
:2045A0000404047140F2F0800227012694559F422D78057180F089817E1C0024B342D55550
:2045C000047140F27D812546771C0024BB429555047140F2708125467E1CFF24B342D5554E
:2045E000047140F263812546771C0124BB429555047140F2568125463E190124B342D555A2
:20460000047140F249812546371900249F429555047180F03C8125467E1C09249E42D555A1
:20462000047180F02F812546771C21249F429555047180F0228126467C1C09259C42D65514
:20464000057180F015811619013435700E7C0671A34240F20881651C16550E8A9D424FEA98
:204660001626067180F09F8057196C1C3E708E7C06719C4280F0F280651C16554E8A9D426E
:204680004FEA1626067180F0898057196C1C3E700E7D0671A34240F2DC80651C1655898A9B
:2046A0009D424FEA1121017173D22A44117040F26D13036001203DE7002A00F0B3800479E6
:2046C0000127002672E7002A00F0A58005790126002772E7002A00F09780057901270026D2
:2046E00073E7002A00F0898005790126002774E7002A5DD005790127002676E7002A00F07C
:204700009E8005790126002777E7002A00F0958005790127002678E7002A00F08C80057953
:204720000126002779E7002A00F083800579012700267AE7002A00F08A8006790124002792
:204740007BE7002A00F081800579164601247CE7002A78D006791746012487E7002A70D02F
:2047600006791746012492E7002A3FF4DFAE017911709CE7002303601846F0BC704740F2DE
:20478000571303600120F8E74FF4AC7303600120F3E740F26B1303600120EEE740F26913D5
:2047A00003600120E9E740F2671303600120E4E701240122A342027173D914440122A3425E
:2047C000027169D9144400229C4202715FD2013409229C42027155D2013421229C42027187
:2047E0004BD2013409229C42027141D201340A8A0271A34237D9651CB7E60124FF229C4265
:20480000027153D20134D4E701240022A342027151D90134F2E701240022A34202714FD972
:204820000134F2E701242A780271A3424DD90134F2E70124D1E70124CAE70124C3E7012470
:20484000BCE7012485E6012497E60124CFE70124C8E74FF4B573036001208EE74FF4B47306
:204860000360012089E74FF4B3730360012084E74FF4B273036001207FE740F2631303608F
:2048800001207AE74FF4B1730360012075E740F25F130360012070E74FF4AF7303600120E7
:2048A0006BE740F25D130360012066E74FF4AE730360012061E740F25B13036001205CE79C
:2048C0004FF4AD730360012057E740F259130360012052E70679E1E60679BDE60679CCE6BF
:2048E0000422012B02717FF64FAF02249BE700BF0B780E2B0BD8DFE803F0080808080A0C8A
:20490000080A0A0A0A08080808000020704706207047F0B54B78DA0985B00C46064611D193
:204920005B09012B02D0062005B0F0BD8C78002CF9D102681373036A002B3AD021469847BB
:204940002046F1E713F0600FC3F3411215D0012AE9D18B78072B07D0082BE4D1F268481C22
:20496000B169FFF7B5FADFE7B1F80720182ADAD1C169601CFFF7ACFAD6E703F01F03012BB5
:20498000D1D18D78062DCED103A80292FFF792FD02AA00920746E278217930463B46FDF770
:2049A000A5FB0528BFD0029A3946601CFFF790FABAE71846B8E700BF70B54FF0805286B0BB
:2049C000D2F8A830D2F8A42000926FEA83436FEA93430B4A0B4E9BB202A80D210FF018F9E4
:2049E00002AD002404E015F8013B06F8013B013402A816F028FD8442F5D306B070BD00BF43
:204A00002CBE0100DC3D002038B5114B53F8204023780BB9A01C38BD0020FFF74BFD217877
:204A200091B12246C4F101055319DCB2234620F8141012F8011F0029F6D101335B00DBB23C
:204A400043F44073038038BD40F20233FAE700BF94BE010040B1052808D8054A105C28B108
:204A6000044B53F820300BB1FFF7CEBF00207047ACBE010094BE010072B6024A1368013355
:204A800013607047CC0B0020034A1368013B136003B962B6704700BFCC0B002010B504462E
:204AA000006830B100210BF0B3F854F8040F0028F8D110BD2DE9F043038883B0044643B184
:204AC000B3F5867F0CD1822910D0012003B0BDE8F0834FF486730120238003B0BDE8F0830A
:204AE00000230380032003B0BDE8F08304F0CEFEBFF35F8F19491A4B0E6800220A601F7862
:204B00001A70FFB2BFF35F8F164D04F0C3FE28680028DED0DFF85090DFF8508003E055F8AE
:204B2000040F0028D5D090F84A3026FA03F3DA07F5D590F8493047FA03F3DB07EFD502F002
:204B4000A5FE0028EBD02B68D9F80020009218464246022102F016FEE1E700BFE00B002018
:204B60009D3D0020600000200C400020294C000010B50C4A90F84B30126882B0013300924A
:204B8000044680F84B30084A03468021203002F0F9FD064B19782246002002B0BDE8104053
:204BA0000BF0BAB80C400020714B0000D54A002010B4094A094C136819431160217803468B
:204BC000012202FA03F30B43DBB2237004485DF8044B0BF0CFB800BFE00B00209D3D00201C
:204BE00068000020044B1B78834286BF034B53F820000020704700BFD82002006000002078
:204C000010B5044690F84A1090F8490004F000FE10B994F8480010BD01280ABF94F84800B0
:204C2000002080F0010010BD70B582B0044602F02DFE08B902B070BD04F12006304602F035
:204C400025FE05462046FFF7DBFF01280FD00028F0D1002DEED1304602F0FEFD0D4B2246B0
:204C60002846197802B0BDE870400BF055B8002DE0D0094B094A1B68009300253046234688
:204C800084F84B507E2102F07DFD054B28462246E7E700BFD44A00200C400020714B0000D9
:204CA000D64A0020F8B50AF0ABFF304B304C18700AF0A6FF2F4B304F18700AF0A1FF2F49B2
:204CC00022682F4B08700025FF2139727B60FD60002A42D02B4E09E091F84A00F9683A72B2
:204CE000834054F8042F0B43FB60B2B392F84A3092F84910526C03F01F0343EA41131F2BDF
:204D0000C6BF03F01F0331464FF0A04103F5E07342F08C0241F82350236893F84A1093F8B0
:204D2000490004F033FD226892F84A3092F8490003F01F0343EA4010012108F0C5F92168B2
:204D4000387A91F8492082424FF00103C4D0FF28C2D054F8042F002AC8D10B4800210AF0AB
:204D600057FFBDE8F840044804F066BDD64A002060000020D44A0020D00B0020D54A002065
:204D8000B14B0000000300506800002030B5174B83B000221A6007F057FF00BB002007F007
:204DA0006FFF134B134A93E80300FF250090ADF80410062400231048ADF8005069468DF811
:204DC00002408DF8043008F0F5FB58B901210A4808F044FC084808F035FC03B030BDFDF726
:204DE0001DF9DBE7FDF71AF9F0E700BFE40B0020E0BE0100294E0000E8BE0100014B1868A6
:204E0000704700BFE40B002008B5064A13680133136004F057F900B908BDBDE8084004F03B
:204E200029B900BFE40B0020042800D07047FFF7EBBF00BF014B1868C0097047E40B002055
:204E40004160806A0AF096BFF0B5858C83B0044617461E464DB36A2D22D182294AD1456887
:204E6000002D62D00023009304F1180204F11401284601F0A7FCD4E90431227E101E18BF6B
:204E80000120994284F8200046D0637E0133DBB26376002A3AD0032B0ED9042384F82030AD
:204EA0000023A384032003B0F0BD244B4560C0E904551B680583836201F0C4F83946308142
:204EC00000F008FE2060F0B11D4BC36323681C64216991B921683046463101F0C9F823689B
:204EE000A3F84400206800F00FFE6A230120A38403B0F0BD012003B0F0BD8023002230465D
:204F000001F078FCE6E7A0840220CCE7032BC4D8022384F82030C3E7089B6068984721692D
:204F2000227E637E01312161B3E7032380F820302846089B9847A5840220B4E70C40002072
:204F4000414E000010B5846882B01CB194F90830002B01DB02B010BD236A002BFAD01A68C3
:204F6000002AF7D00749097831B11B6A23B101909847236A01981A68002302B0BDE8104052
:204F800000F036BD9E3D00202DE9F047124C82B02468DDF828A08CB106460F46914698469A
:204FA000656843464A463946304625B1CDF800A0A847054638B92468002CF1D100252846A3
:204FC00002B0BDE8F087B379012BF8D13A463146002000F01DFBF2E7E80B00202DE9F04F82
:204FE0002DED028BB34CB44E8BB0054620460295884601F0B7F9C4F8A0500346307008BBBF
:20500000A279013A032A62D9636823F07F4323F0FF03002B4FD06379032B00F02881208987
:2050200000F0DAFD074600284DD0D0E90F9700F0CFFDB9F1000F00F091809E493846C847CE
:20504000337843B30027C22B2BD0DFF88892384600F0BEFD3278C32A69D0BF2A84BFA022C8
:20506000327002212389934800F0F4FFD9F800100391084616F0E7F9039902468D4801F0AE
:205080001BFC41468B4800F0F3FF414682B2029800F0B4FE337818460BB0BDEC028BBDE827
:2050A000F08F384600F094FD337818460BB0BDEC028BBDE8F08FC3232089337000F08CFDA9
:2050C00007460028B1D13378002BE4D0BBE703900299208900F0FEFC0746002842D0039BC7
:2050E00062790893CDE906338023ADF8163062BB238972484522022100F0ACFFA27A002ACF
:2051000040F0B08007AB00936A480DF11603002206A901F057FB70B9089B002B2ADADFF83B
:20512000B491674BC9F80030822333708FE700223270032196E7BDF81620079B0893802A92
:2051400028BF8022ADF81620E7E700F07BFF452203460121594800F07DFFCFE73378002B48
:2051600099D06FE7DFF86C91564BC9F80030A32333706CE7BDF8163050494E4808AD07F177
:205180008402009508EE903A08EE102AFFF7FCFE034600284DD14748099309A901F0ECFAD1
:2051A000494BD3F800908246B9F1000F67D0099B03979B46029B4D4699460AE006DD2A7AA9
:2051C000D10603D51BF800202F2A08D02D68002D52D06F68384616F036F98245EED1024680
:2051E0005946384616F037F90028EFD1A279039F4B460293511E0123012AA94603FA01F3F3
:2052000000F0C1809A0740F1A980D9F814A0BAF1000F00F0A38008AB2849009318EE102A19
:2052200018EE903A2348D04799F80830590600F1C0803378002B7FF406AFA37D1A0759D556
:20524000DFF8789099F90630002B53DB99F816301B074FD4DFF87C901C4BC9F80030A12333
:205260003370F4E61A49154801F072FA4AE72189029800F0ADF9D2E6039FCDF808900F487B
:20528000842101F05FFA0D48842101F05BFA3378002B7FF4D8AE094807F1460100F0E8FEAA
:2052A00080B2A7F84400B8B9C123DFF828903370CDE600BFF00B0020A03D00209C0C002000
:2052C000F0BE010010BF0100EC0B002000BF0100FB0B0020D40000203378002B7FF4B3AEB4
:2052E000384600F011FC337818460BB0BDEC028BBDE8F08F637D089AD91115D1002ACAD0FF
:20530000DFF80891013218BF01224846802301F071FAB9F8A420D9F8A810802A28BF802232
:20532000484601F0C9FAB2E7079B9A4232D00132069944D0BDF81630DFF8D090012233485C
:2053400001F058FABDF81620B9F8A43093429ED9D9F8A8102D4801F0AFFA98E75D0705D5F9
:20536000D9F818A0BAF1000F7FF455AF180705D5D9F81CA0BAF1000F7FF44DAF85212348B3
:2053800001F0E0F97FE7D5F810A0BAF1000F7FF442AF37E7DFF87490B9F8A400824219D344
:2053A00082231B4989F8063048460F2201F084FA6DE7164A1749484600F02AF939E7DFF853
:2053C0004C90BDF81630B9F8A4209A4294BF00220122B4E7BDF816300699821A9A4294BF0D
:2053E00000220122484601F005FA0798B9F8A430BDF81620D9F8A8101B1A9A42014428BF15
:205400001A46484601F058FA41E700BF9C0C0020F0BE0100F00B002010B5044641600146EB
:205420000C4804F0F7FB94F90830002B00DB10BD206A0028FBD0036A002BF8D00268002A29
:20544000F5D0054BC0E903340830BDE81040002300F0CEBAEC0B0020454F000038B50A4AA3
:20546000137803B138BD094C094D236009490A482B6001241470FFF7CFFF00F0B9FCBDE8E4
:20548000384000F0D7BD00BF9E3D0020E80B0020EC0B002020BF010084000020014B1868DC
:2054A000704700BFEC0B002000B10068704700BF00B583B001460190044804F021FD019918
:2054C000034803B05DF804EB04F0F0BB78000020480D002070B50D4B1C68A4B10546002617
:2054E00001E024686CB1294604F1180000F0E4FB0028F6D02046FFF7DBFF24680136002CC4
:20550000F1D1304670BD2646304670BD480D00202DE9F041164B1C682CB305460F4616469B
:205520004FF0000801E02468D4B1294604F1180000F0C2FB0028F6D094F82C30B342F2D17B
:205540003246394604F12D0015F02DFF0028EAD12046FFF7ADFF246808F10108002CE4D1A7
:205560004046BDE8F081A0464046BDE8F08100BF480D00202DE9F041144B1C680CB30646A4
:205580000F464FF00008251D314604F1180016B100F092FB78B1BD42284607D015F053FFA1
:2055A00039460246284615F0FEFE20B92046FFF77FFF08F101082468002CE4D14046BDE868
:2055C000F081A0464046BDE8F08100BF480D0020F8B50E4B1C68ACB105460E460027294688
:2055E00004F1180000F068FB10B1E38EB34204D02468002CF3D13846F8BD2046FFF758FFEE
:205600000137F5E727463846F8BD00BF480D00208B79012B00D070472DE9F04792F90630DD
:20562000002B82B0154650DBCB7C5B060C464CD5D1F8A070002F48D04B6E4BB1012B44D156
:205640008A7A38460B3102B0BDE8F047FFF760BF096E0191384694F80AA0D4F85C80FFF78E
:2056600089FF204804F030FC064688B3B8F1120FC146C4BF4FF01308C146B14442460199C7
:205680004FF00008043015F09CFE394606F1180089F8048000F000FB524604F10B0186F85B
:2056A0002CA006F12D0015F08CFE0F48A6F83680314604F0AFFAB16B4B1CB363284601F0B4
:2056C00079F8B36B23F07F43B36302B0BDE8F0870649A32328461022AB7102B0BDE8F04723
:2056E00001F0EAB878000020480D002034BF01002DE9F04F2DED028B83B008EE101ADDF8F2
:20570000389001929846FFF7C9FE002800F0B6800025D9F800B006462C46A34508D845458F
:2057200012D2019B4FF03C025A55D9F800B00135631C5B4508D3454506D2019B4FF02F029E
:205740005A55D9F800B00135D6F804A0504615F07AFE023427185F4558D801D145456DD379
:20576000D6F80CB07C1CBBF1000F17D09BF80030A3B1D9F800A0A24509D8454507D2019A17
:205780003B235355D6F80CB0D9F800A00135584615F059FE02373C18544512D8454504D961
:2057A000D9F80030621B9A4271D83046FFF77CFE0646002847D0DCB9D9F800B0A345B7D848
:2057C000ADE70198384AAAEB070308F10101002BACBF5B440BF10003491B28440EF018FA6C
:2057E0000544454553D83046FFF75EFE0646B8B3D9F800B0A34507D8454505D2019A2C2399
:205800005355D9F800B00135013486E70198264AABEB040B08F10101BBF1000FACBF0AEBC3
:205820000B030AF10003491B28440EF0F1F90544454508D2D9F800309F4291D3019A3E23B5
:20584000535501358CE715BB5CB9BEB1D9F800304344C9F8003003B0BDEC028BBDE8F08F1D
:20586000ADB9822118EE100A00F06CFF18EE100A0E490F2201F020F8002EE7D14FF0FF339C
:20588000C9F8003003B0BDEC028BBDE8F08F019918EE100A2A4601F00FF818EE100A28217F
:2058A00000F062FFD1E700BF48BF0100F0BE010001480AF05FBA00BFA80000202DE93048F8
:2058C000FFF79CFA0E4B1A68821A04D10D4BD3E90001BDE830880B4C18604FF47A71A2FBE4
:2058E00001BCD4E900254FEADB1040EA4C6080184FEADC1145EB0101C4E90001BDE8308814
:20590000500D002070060020014800210AF080B9A8000020074B0848084A1B6810B40021B3
:2059200001240470116013B15DF8044B18475DF8044B704768BF01009F3D0020640D002086
:205940002DE9F0471E4B1B7882B0054643B3DFF874A029465046DAF8007004F0A7F9DAF8F3
:20596000001019B3D5E90489002603E00C680E46F4B12146D1E90423994508BF9045F5D201
:205980002A461048314604F0B5F9DAF80050AF4209D00D4B9B68019302B0BDE8F04718475E
:2059A000FFF7B8FFD3E702B0BDE8F087002DEED02A46044804F09EF9DAF80050E7E700BFD1
:2059C0009F3D0020640D002068BF0100064B10B55B6804469847C4E9040121460348BDE807
:2059E000104004F063B900BF68BF0100640D0020084970B5496805461E4614468847241894
:205A000046EB0101C5E904412846BDE87040FFF797BF00BF68BF010038B50B4B1C687CB176
:205A20000A4B5B689847D4E90445A94208BFA04202D30020014638BD201A65EB010138BD23
:205A40004EF66020002138BD640D002068BF0100F8B5134F134E7C68A04735683DB10246A5
:205A60000B46D5E904018B4208BF824201D20020F8BD2946304604F019F96B680BB128462A
:205A80009847BB6898473368002BF0D0D3E90467A047B94208BFB0422CBF01200020F8BDFC
:205AA00068BF0100640D002000B583B0014608300191FFF78BFF0199044804F0F7F8019951
:205AC000034803B05DF804EB04F01ABA680D0020B800002070B5064609480D4604F0F4F959
:205AE000044658B10023868080F824302946263000F0D2F80348214604F08CF8204670BD22
:205B0000B8000020680D00202DE9F04190F8463013F0300F0446C3F3011526D190F82430A8
:205B2000042B13D8B0F8442000F14601263000F065F994F8243023B3226A5200226204F156
:205B400008000023BDE8F041FFF752BFD0E90F672630FFF7BFFC2046FFF7A6FF46B329469E
:205B600038463346BDE8F0411847B0F8442000F14601263000F042F92046BDE8F041FFF702
:205B800093BF0C4BC4E903340AF07CF90A4BA3FB00239B0A40F2DD5202FB130202F6B832F9
:205BA000226204F108000023BDE8F041FFF720BFBDE8F081BD5B0000B76FA5AE806830B126
:205BC00090F82430013380F82430FFF79DBF704708B1FFF769BF7047044B02E09A8882423B
:205BE00002D01B68002BF9D118467047680D0020F8B50288044662B140F2B9139A4217D15B
:205C00001D4B1B788B4217D040F2B91323800120F8BD114610460FF061F9184B186038B392
:205C200043F21633038240F2B91323800120EFE7002303800320F8BD114B1B789B07E3D502
:205C4000104E114F114DB7F800C0114F96E80F00203685E80F003CF806C00E4E3A88316849
:205C6000A5F810C000232846AB74FFF7B7F9CBE720800220F8BD00BFE04A0020840D00207E
:205C80000C48002014430020943D0020700D0020F8420020144800208B684A6830B40C68B8
:205CA000CD68C5600460426083600B8A03828B7C837430BC704700BF38B5102205460C466B
:205CC00015F071FB58B92A8A238A9A4200D038BDA87CA37CC01AB0FA80F0400938BD0020AB
:205CE00038BD00BF2DE9F0470C1E8AB08046174636DD0346002502E00135AC4230D09946B6
:205D000013F8012B5B2AF7D1AC4229DD08EB05032E46B2460136B44222D013F8012F5D2AC3
:205D2000F7D131490622404615F095FBB0FA80F04009AE42B8741CDD4846394611F072FFE7
:205D4000B8B10AF1020A08EB0A0018F80A303A2B2CD0BB7C1BB343F216433B8201200BE0CF
:205D600021490622404615F076FBB0FA80F35B09BB74272C03D900200AB0BDE8F087414639
:205D80002246684615F01DFB0AAB1C4468460023394604F8283C11F045FF0028ECD043F2AD
:205DA000163301203B820AB0BDE8F087023CA61BCFD00022114604E001318E4203EB4C02AD
:205DC00009D010F8013F303BDDB2092D02EB820CF2D90029BDD0054BC2F3072103EA022337
:205DE0000B433B820120C7E774BF010000FFFF000148002109F00CBFC400002070B582B02E
:205E0000B8B11446028848F2FE039A420E46054603D00A4B5B6A984758B1094A2B8A10682A
:205E20000093314622462B4610F090FB204602B070BD4FF0FF34204602B070BD141E0200C4
:205E4000840D00200C2830B440D9B0F5867F94BF6FF02F046FF01F040C2935D9B1F5867F61
:205E600094BF0D230E232343B0F5867F137016D96FF4867543191B0A0D38537090700223E0
:205E80000320B1F5867F15D96FF486740C19D518240A0D391454A970D81C30BC70470C2817
:205EA0000FD90D38B1F5867F50704FF001034FF00200E9D80C29F0D90D39115430BC01303F
:205EC000704701200023DCE74BB2CCE703015CB2C2E700BF2DE9F0411E0C13F07F474FEA67
:205EE00006461C4615460B4614BF01210021CEB1013124F0FF080231C01A2A46FFF7A2FF52
:205F0000CFB1230E2B54421C1EB3230CAB540230B8F1000F02D0230A2B5401302C540130AA
:205F2000BDE8F08134F0FF08E5D14CB9BDE8F041C01AFFF787BF6EB1230C2B540130EAE7AA
:205F40000131C01AFFF77EFF002FDAD1002CE7D0E4E71046B8F1000FDDD1002CE0D0DDE7DE
:205F6000F8B50E689DF818700C461D4616B902602360F8BD03689F550B6801330B600068EA
:205F8000114618442A4615F02AFA23682B442360F8BD00BFF8B5069D401A29461F46FFF750
:205FA00051FF3946044610182A4615F00AFA2819F8BD00BF2DE9F04F83B092460C9A9DF8D7
:205FC00034400194013200249846834699460092274625468E4604E0009B01349C4227469E
:205FE00023D818F807C0019B08EB0706A6EB09069C450AEB0502ABEB0E00314602D00C9B22
:20600000BB42E9D1FFF71EFF054449460AEB0500324615F0D6F90134009B08EB0409013493
:206020009C423544DE462746DBD9284603B0BDE8F08F00BF08B509F025FF014B188008BD3D
:20604000843D0020024B1888013080B218807047843D0020F8B504460F4616461D46AC2206
:20606000002115F0D6F96771A6712581F8BD00BFF0B501220023016002710B7002680F4629
:206080001378017943EA811313700268437911781B0103F030030B4313700268837A117805
:2060A00003F00F030B431370036882795A70038902681B0A937003680289DA70837983B04D
:2060C0000446002B00F040810368827A1D1D62B16FF00301C91A00F10B0313F8012B05F86D
:2060E000012BA67A6A189642F7D8E37C9807C3F340010CD594F86A3000932A4604F16B03C9
:2061000000210120FFF746FFE37C054401211A0709D5236C0093636C2A460320FFF73AFF86
:20612000E37C05440321DE060BD594F8243000932A4604F125030420FFF72CFFE37C0544E2
:206140000421980607D500232A460520FFF7C2FEE37C054405215A0607D5636E2A460620C1
:20616000FFF7B8FEE37C05440621DB0907D02A46B4F850300720FFF7ADFE07210544237D74
:20618000DE070BD5A36C2F22CDE900320820E36C2A46FFF70FFF237D0544082118070BD5F6
:2061A000E36D2F22CDE900320B20236E2A46FFF701FF237D05440B21DA0607D5A38B2A46C5
:2061C0000C20FFF787FE237D05440C215E0607D5236A2A460E20FFF77DFE237D05440E210E
:2061E000DB090CD0D4F894302622CDE900320F202A46D4F89830FFF7DDFE0F210544637DC2
:20620000980708D5B4F868302A461120FFF762FE637D05441121DA060BD5636D2622CDE9DE
:2062200000321420A36D2A46FFF7C4FE637D05441421DB091AD0636F94F878201B01002A58
:2062400040F08580B4F87A2000201209461C52088446B0B2FAD118B10CF00F0C43EA0C03B9
:206260002A461720FFF736FE17210544A37D1E071BD5D4F8803094F884201B01002A69D16B
:20628000B4F8862000201209461C52088446B0B2FAD118B10CF00F0C43EA0C032A461B20F7
:2062A000FFF718FEA37D05441B21D80607D52A46D4F88C301C20FFF70DFE1C210544E37D58
:2062C0001A0709D5236B0093636B2A462320FFF761FEE37D05442321DB0908D0A36B00937E
:2062E0002A46E36B2720FFF755FE27210544A37EDB0611D42368EB1A3E2B18DCB4F8A4207B
:20630000E2B9D4F8A810284615F069F8B4F8A400ED1B284403B0F0BDD4F890302A463C200E
:20632000FFF7D8FD23680544EB1A3E2BE6DD0B4B0B4A002020601A6003B0F0BDFF2305F849
:20634000013BB4F8A420DCE7042003B0F0BD43F0080377E743F0080392E700BFD400002044
:2063600088BF0100032A40F2CC802DE9F04704460D4682B0002191460430A82215F049F8D2
:20638000256095F800804FEA981884F804802B78C3F3011363712A7802F00F02A2726B78A5
:2063A000A371A978EB78B8F1010F43EA012323817CD1082A00F2AC80291D8E1805EB090A0B
:2063C000564576D804F10B0014F0FBFF00275645C4F81370C4F8177080F0A580337803F05F
:2063E000F002F02A00F08781711C8A454FEA131003F00F035DD90D285FD00E2868D00D2B9C
:2064000062D00E2B70D0CE18B24552D307443C2F4FD804EBD70C07F007029CF8130008FA77
:2064200002F20243781E8CF8132002463B2A74D8DFE812F07B0073008600890094009700EC
:20644000A400B30073007300BD00C7007300D500E2007300EC0073007300FB00730073002B
:206460000501730073007300240145017300730073007300730073006900730073007300DE
:206480006900730073007300730073007300730073007300730073007300730073007300D6
:2064A000730073007300730073005301A04BA14A1A60802002B0BDE8F0877078B11C0D3099
:2064C0008A45F6D90D2B9CD111F8013B0D339AE77078B21C92454FEA0020EAD9B27802F2AC
:2064E0000D121044F11CEBE70E4616F8013BB2454FEA0323DDD94A7802F20D121344023141
:2065000081E7802070478A4B8B4A1A60A520D1E7874B8A4A1A608020CCE7FB0700F1028132
:20652000B2453FF65BAF0020C4E7082B28BF08231A4684F86A3004F16B0014F042FFEFE724
:20654000C4E91031ECE7082B28BF08231A4684F8243004F1250014F034FFE1E784F89C8054
:20656000DEE74BB1013BC8180139002311F8012F884242EA0323F9D16366D1E753B1013B01
:20658000C8180139002311F8012F884242EA0323F9D19BB2A4F85030C2E72F200A4600905E
:2065A00004F1480104F14C00FFF7DAFCB8E72F200A46009004F15C0104F16000FFF7D0FC59
:2065C000AEE753B1013BC8180139002311F8012F884242EA0323F9D19BB2A383A0E74BB194
:2065E000013BC8180139002311F8012F884242EA0323F9D1236293E726200A46009004F1E9
:20660000940104F19800FFF7ABFC89E753B1013BC8180139002311F8012F884242EA032379
:20662000F9D19BB2A4F868307AE726200A46009004F1540104F15800FFF792FC70E7002BEB
:206640006CD0013B0B440020013911F8012F8B4242EA0020F9D100F00703102120F00F02B1
:20666000994089B202FA03F3C0F3C002000984F87820A4F87A10E367606751E7002B49D0CF
:20668000013B0B440020013911F8012F8B4242EA0020F9D100F00703102120F00F029940D4
:2066A00089B202FA03F3C0F3C002000984F88420A4F88610C4F88830C4F8800030E74BB11A
:2066C000013BC8180139002311F8012F884242EA0323F9D1C4F88C3022E74BB1013BC81889
:2066E0000139002311F8012F884242EA0323F9D1C4F8903014E70136751BA9EB0505ADB2E3
:20670000802D88BF80250020C4F8A860A4F8A4507055CFE6184610211A46C7E718461021C6
:206720001A46A4E7024B064A1A608220C2E600BFD4000020B8BF0100F8BF0100D0BF01009A
:2067400020C00100FF299ABF817101200020704710B5082A28BF0822144682720B3014F058
:2067600030FE204610BD00BF037D818343F0100303750120704700BF037DC3F3C0021B0706
:2067800002D5036E0B60C26D104670470B782F2B10B5044603D111F8013F2F2BFBD0216655
:2067A000084614F050FE237DE06543F00803237510BD00BFC37C416643F04003C37401203E
:2067C000704700BF30B40446407DC0110FD009B1656F0D6012B194F87810117013B1B4F8E5
:2067E0007A201A80029B13B1029AE36F136030BC704700BF10B4A3F11004B4F5FE6F02D8E5
:20680000B1F5801F03D300205DF8044B7047447D4167003A64F07F0118BF012280F8782061
:20682000A0F87A3041755DF8044B0120704700BF30B4857D0446C5F3C0002D0711D511B1A1
:20684000D4F880500D6012B194F88410117013B1B4F886201A80029B1BB1029AD4F8883092
:20686000136030BC704700BF10B4A3F11004B4F5FE6F02D8B1F5801F03D300205DF8044B08
:206880007047847DC0F8801044F0080180F88420A0F8863081755DF8044B0120704700BF20
:2068A00011B1D0F8A8300B60D0F8A83013B1B0F8A4007047184670470346802A28BF802213
:2068C0001046A3F8A420C3F8A810704770B50D4602F0E0FA044602F0E3FAB4B1022C06469D
:2068E00001D0042C12D145212846FFF72BFF00212846FFF739FF304614F0A5FD3146024628
:206900002846BDE87040FFF7D7BF70BD2846A321BDE87040FFF716BF70B586B000240646DE
:206920000D4603948DF80940ADF80A40049402F0B1FA022805D02846A321FFF703FF06B09C
:2069400070BD04AB00930DF109020DF10A0303A93046FFF76DFFB8B105A930460594FFF714
:206960009FFF02F0B5FA9DF809309BB15F212846FFF7E8FEBDF80A309DF80920039928463D
:20698000FFF772FF06B070BD28468021FFF7DAFE06B070BD44212846FFF7D4FEBDF80A3063
:2069A0009DF8092003992846FFF75EFF02F09EFA06B070BD38B50E4A0E480D460E4909F011
:2069C00083F80E4809F0E6F900240D4B0D481C702146282214F01DFD28464421FFF7B2FE69
:2069E000094B0A4819782246BDE8384009F094B93CC0010050C0010048C0010060C001005D
:206A0000A33D0020880E0020003E0020C40100202DE9F0418CB006460D4602F03BFA00280C
:206A200000F09380002701A930460197FFF738FF021E40F38380DDF80480B8F1000F7DD093
:206A4000272A28BF272214463946282202A814F0E0FC2246414602A814F0B3FC0CAB1A19D2
:206A6000484B02F8287C029A9A4275D0464F28464521FFF767FE3B782BB1444802A914F09A
:206A8000D0FC00285ED02822414D4048002114F0C0FC02A93D4814F0CEFCD6F8A0102846A9
:206AA000FFF7FAF8012443F216333A4A3A493B482B823C7009F008F83449394809F004F87C
:206AC000384B39481978002209F026F9FFF7BAFA0222034621463548FFF7BCFA3449334848
:206AE000FFF754FE4FF480723249334814F0C5FC20460EF0B7FE024620B12F484FF4807181
:206B000011F0FAF82C48294D14F09DFC2A4902462846FFF7D1FE28891D49FEF7DBFF0446DD
:206B200080B104F146012846FFF7A2FAA4F844002046FEF7E9FF0CB0BDE8F08128468021E4
:206B4000FFF700FE0CB0BDE8F0812846A321FFF7F9FD0CB0BDE8F08103F17143039A03F542
:206B60004233FA339A4281D1BDF8102047F269039A427FF47BAFD6F8A020282102A811F0C0
:206B8000BBF873E7756E6B6EA33D0020880E0020043E00203CC001009CC0010050C00100A9
:206BA000A4C00100D83E0020C4010020183E0020DCC0010090C00100880D002010B5104C1B
:206BC000237803B110BD09F01BF80E4B187009F017F80D4B0D4902460D481A70FEF71CFCC2
:206BE0000C490D48FEF718FC0C490D48FEF714FC0C490D48FEF710FC0123237010BD00BF45
:206C0000A23D0020D83E0020003E0020F0C00100D8000020F8C00100FC00002000C10100A1
:206C20004401002014C1010020010020F8B504460E4617461F484FF4807200211D4614F00C
:206C4000E8FB0CB32146FF221A4814F016FC1A4A1A481521FFF746F8FFF7F4F93A460446B5
:206C6000034631461648FFF7F5F91DB114482946FFF78CFD0F4814F0E6FB0E4902461048C7
:206C8000FFF71AFE2046F8BD0B4A0C481521FFF729F8FFF7D7F93A46044603463146084835
:206CA000FFF7D8F9002DEDD029460548FFF76EFD2046F8BD880D0020C43E002028C101002A
:206CC000183E002070B50546FFF7BCF900210346044602220D48FFF7BDF90D490B48FFF7AB
:206CE00055FD85B10B4E2946FF22304614F0C5FB0023304686F8FF3014F0A5FB3146024640
:206D00000248FFF7D9FD204670BD00BF183E002040C10100880D002010B5FFF7D3FF0949FF
:206D2000FEF7D8FE60B1044600F146010648FFF79FF9A4F844002046BDE81040FEF7E4BE47
:206D400010BD00BF043E0020183E002010B5FFF779F904462346022204480121FFF77AF9F4
:206D600003490248FFF712FD204610BD183E002050C101002DE9F043454B93E8070093B01F
:206D800008AB03C323F8022B140C00211D220DF12B001C7014F03DFB01200EF063FD00281A
:206DA00061D00646324608A8282110F0A5FFDFF8FC90DFF8FC80374F032504AC99F800108C
:206DC0004B1CA7FB032000F4FF7202EB50029B1A58F8210089F80030214610F023FF102251
:206DE0002146304614F0DFFA013D002836D094E80F006C4684E80F000FCC274C20600020C7
:206E000043F2163560826160A260E3602582FFF719F90222034601212048FFF71BF92049F1
:206E20001E48FFF7B3FC4FF480721E491E4814F024FB01200EF016FD024620B11A484FF432
:206E4000807110F059FF184814F0FDFA164902461248FFF731FD13B0BDE8F08315F0FF0585
:206E6000ACD16C46C8E7114D0A4A2878104E431CA2FB031202F4FF7101EB520204AC9B1A68
:206E800056F820002B70214610F0CCFEAFE700BFA8C20100ABAAAAAAEC3D0020183E002090
:206EA000DCC0010090C00100880D0020A13D0020D0C2010038B50B4DFFF75CFF28890A4904
:206EC000FEF708FE60B1044604F146012846FFF7CFF8A4F844002046BDE83840FEF714BECB
:206EE00038BD00BF183E0020EC3D002010B5044601F0D0FFB8B1E4B1A37903F0FD03412BD7
:206F00000DD0124A1249134808F0DEFDA179124808F0DAFDBDE81040032001F0CDBF01F0E6
:206F2000B9FF042800D110BDBDE81040022001F0C3BF064A0649074808F0C6FD074808F055
:206F400029FFBDE81040032001F0B6BF3CC0010060C1010050C001007CC1010064C10100F7
:206F600010B5044601F096FFD0B1D4B1A379442B06D101F0B5FFBDE81040022001F09CBF0C
:206F80000F4A1049104808F09FFDA1790F4808F09BFD01F0A5FFBDE81040022001F08CBF6A
:206FA00010BD074A0749084808F08EFD084808F0F1FE01F095FFBDE81040022001F07CBF91
:206FC0003CC0010060C1010050C00100A0C1010064C101002DE9F04108F02AFDFDF7D6FECB
:206FE0000BF076F908F036FE00216648664FDFF8EC81664D664C674E08F00AFE00F0B4FB7A
:2070000011F030F80CF020FE08F01AFD08F0D0FE614B1B6898477B689847D8F804309847A5
:20702000A979EB79226803EB0123022A338025DC5A4B29686A6819605A605948002108F059
:20704000E7FD4FF0FF300EF0E3FB2368022B054600F3818008F016FDFEF700FA5148FDF784
:207060001DFD11F029F808F0FBFD044611F02CF814F0FF0FF7D108F00BFDF4E74A4A4B4998
:207080004B4808F021FD4B4808F084FE2368022BCEDD454A4549464808F016FD464B474801
:2070A000196808F011FD2368022BC1DD3E4A3F493F4808F009FDD8F80010414808F004FDFC
:2070C0002368022BB4DD384A3849394808F0FCFC39683C4808F0F8FC2368022BA8DD324A29
:2070E0003249334808F0F0FC37484AF6CD3108F0EBFC2368022B9BDD2B4A2C492C4808F094
:20710000E3FC32481A2108F0DFFC2368022B8FDD254A2649264808F0D7FC31882C4808F0A8
:20712000D3FC2368022B83DD1F4A2049204808F0CBFC284808F0C8FC2368022B7FF778AFEE
:20714000284602F01DFE2368022B7FF771AF0A2008F01EFE6CE7144A1449154808F0B4FC15
:207160001D4808F0B1FC2368022B7FF773AF284602F0F6FD2368022B7FF76CAF0A2008F0F7
:2071800007FE67E7D4010020D4C30100FC3E0020F4010020883D00208C1C020004430020AA
:2071A0000403002024CE0100DCC201009CC0010050C00100E4C20100141E02001CC30100ED
:2071C0002CC3010038C3010044C3010060C3010080C3010090C30100A8C30100941E0200DF
:2071E00030B590F82D50012D83B0044611D91F2508F048FE094BB0FBF5F11B68009301FB97
:207200001501074A234604F10C0000F0BBFA03B030BDE91C01258D40013DE9E70C400020E6
:20722000A57200002DE9F0470D468B6892F82C708146506BD3E90068144602F037FD686888
:2072400008F0F2FDA968134802F05AFE1248294602F056FE636B1B6873B10023A38520465C
:20726000FFF7BEFF36B13A46494640463346BDE8F0471847BDE8F08704F10C0000F0ECFA38
:207280002146064802F012FD2146054802F038FEE8E700BF6801002080010020180F00205D
:2072A00074010020F8B12DE9F047436B1D6882B00446ADB1686808F0CDFD63490C2008F0D4
:2072C0009FFB0121072008F08FFB00F059F900280ADAAB6823B1052022462946FFF7A2FF81
:2072E00002B0BDE8F087704708F0D8FADFF85C8190F80290D8F8047008F0D0FA064608F027
:20730000D7FA01463046B84708F08AFBD8F818600746B04770BB002F50D1D8F81CA0D047B9
:2073200040BBD8F8087008F0C3FAB84700285CD002281FD0AB68002BD2D00420CCE70AF038
:20734000FBFF6FF028031E1A03E00AF0F5FFC64202D5D0470028F8D0D04700285DD0D8F87E
:207360001030032101A89847032803D19DF806304B452AD0AA68002AB2D094F82D300133F2
:20738000DBB2052B84F82D3094F82C3006D90133DBB2002184F82C3084F82D10127A9A42B5
:2073A00005D8224629460120FFF73CFF98E72046FFF716FF686808F031FD91E7D8F8086031
:2073C00008F076FAB0470028B2D1AB68002B87D094F82C3000200133294684F82C3084F80F
:2073E0002D002246FFF71EFF7AE70AF0A5FF6FF018073F1A03E00AF09FFFC74202D5D0479D
:207400000028F8D0B047002899D1D047002896D1D8F814309847002891D0A96800293FF464
:207420005FAF94F82C300133DBB2002284F82C3084F82D200A7A9A42B9D8224629460220E8
:20744000FFF7F0FE4CE700BFFC3E00208C1C02002DE9F04105460D200F4608F0D9FA064627
:2074600002F0BEFC01210B2008F0BEFA374B1C6814B914E0246894B13146201D02F0C2FB68
:207480000028F7D0606B02F02BFC07281EDDDDB138462B460122BDE8F041062118472C487F
:2074A00002F012FD04460028F1D03146201D02F0A3FB002304F13002C4E90C322348A3858C
:2074C000214602F0A7FBDDE7BDE8F081214802F0FBFC064660B3204802F0F6FCB06018B3FF
:2074E00008F07AFC7060D8B10520D6F8088008F081FAC8E9005710F0FF0006BF082388F860
:20750000083088F80800606B314602F083FB636B1B689E42D8D12046BDE8F041FFF760BECF
:20752000B1680D4802F0ECFC0A48314602F0E8FC606B02F0D5FB0028A9D12146034802F091
:20754000B5FB2146024802F0DBFCA0E7180F002074010020800100206801002008B505486A
:2075600002F0A0FC044802F09DFCBDE80840034802F098BC80010020680100207401002069
:2075800010B501210B2008F02FFA024BBDE810405B6818478C1B0200014B9B68184700BF3E
:2075A0008C1B0200014B1B6A184700BF8C1C0200014B5B6A184700BF8C1C020010B50D4B93
:2075C00082B01B6898470C4B04469B6A01A91920984701280BD0002C0198B8BF152480288E
:2075E000D4BFC4EB0000C4F1800002B010BD002002B010BD8C1B02008C1C0200FFF728BFC6
:2076000000B583B008F04EF9032802D103B05DF804FBFFF7C1FF0028F8DB0D2008F0F8F977
:207620001F4902F0EFFAE8B10C2008F0F1F91C4902F0E8FA0028E9D102F0DCFBB8B10720EC
:2076400008F0D8F90028E1D00223ADF8043008F025F9144B8278DB688DF80620032101A860
:207660009847D3E708F0DCF90028DDD1CEE702F0E7FB072008F0BEF918B90B4B9B68984766
:20768000C4E70223ADF8043008F008F9054B8278DB688DF80620032101A89847EDE700BFD1
:2076A000FC3E00208C1C0200941E020030B50D4C83B0A56A69461920A84748B901A90420EC
:2076C000A84738B102F084FBFFF748FF236A984703B030BD0199E36A21F002010191042067
:2076E0009847EFE78C1C0200F8B5038805462BB14A2B14D1882916D00120F8BD174B1C681F
:2077000034B1A168201D01F0BBFC2468002CF8D1134B01221A704A232B800120F8BD0023F9
:2077200003800320F8BD0D4B1C68002CF3D0231D9A4205D02468231D002CECD09A42F9D1D8
:207740000648084E214602F0B1FAD4E90523376832600BB1E06998473760DCE7F80F002006
:20776000A43D00200C400020034A044B044800211170196008F04CBAA43D0020F80F002073
:207780008C01002070B50E4C049E25784661C0E90623044635B9A1600A482146BDE87040BE
:2077A00002F038BA084D094B2E682B60043001F067FC2E6021460348BDE8704002F02ABA28
:2077C000A43D0020F80F00200C4000208C01002070B50C4B1B7804462BB921460A48BDE8CD
:2077E000704002F017BA094D094B2E682B60043001F050FC2E6021460348BDE8704002F053
:2078000009BA00BFA43D0020F80F00200C4000208C01002070B50C4B1B7804462BB9214601
:207820000A48BDE8704002F0F5B9094D094B2E682B60043001F038FC2E6021460348BDE8F8
:20784000704002F0E7B900BFA43D0020F80F00200C4000208C01002010B50A4B1B780446EF
:207860003BB9C0E9033321460748BDE8104002F01DBA043001F02EFC21460348BDE81040CB
:2078800002F014BAA43D0020F80F0020094B1A7842B9094B01E0984209D01B68002BFAD1BE
:2078A000012070470069B0FA80F0400970470020704700BFA43D0020F80F002010B50446A0
:2078C000C0B210F095FB0A2C01D0204610BD10F05FFB204610BD00BFF8B588B10F46461E81
:2078E000002500E0013516F8014F20464CB1AF4207D010F07DFB0A2CF4D110F049FBF1E735
:20790000054610F045FB2846F8BD00BF10B590B00B46044640210E4A68460CF079F96946D6
