:020000040000FA
:201000000000042059A1000081A1000083A1000085A1000087A1000089A1000000000000F4
:201020000000000000000000000000008BA100008DA10000000000008FA1000091A10000F4
:201040009DE40000B9DA00001968010093A1000093A1000093A1000025E1000093A1000024
:201060003137010093A1000093A10000A9E5000093A10000ADE4000093A1000093A10000E4
:20108000B502010093A1000093A1000093A1000093A1000093A1000093A1000093A100002C
:2010A00093A1000093A1000093A1000093A1000093A1000093A100000000000000000000F8
:2010C00093A1000093A1000093A1000093A1000093A1000093A1000093A100009DFD00000A
:2010E00093A1000093A1000093A10000000000000000000093A100000000000093A10000EC
:201100000000000000000000000000000000000000000000000000000000000000000000CF
:201120000000000000000000000000000000000000000000000000000000000000000000AF
:2011400000000000000000000000000000000000000000000000000000000000000000008F
:2011600000000000000000000000000000000000000000000000000000000000000000006F
:2011800000000000000000000000000000000000000000000000000000000000000000004F
:2011A00000000000000000000000000000000000000000000000000000000000000000002F
:2011C00000000000000000000000000000000000000000000000000000000000000000000F
:2011E0000000000000000000000000000000000000000000000000000000000000000000EF
:2012000038B52F4B2DED068B5C689FED2E9AB0EE408AF0EE608AA04780B207EE900AF8EEE6
:20122000677AC7EE899AA04780B207EE900A9FED267AF8EE677AF4EEC79AF1EE10FA87EEB9
:2012400089AA32D919EE900A19F0DCF841EC100B00F086F800224FF0404351EC100B19F0D7
:2012600029F941EC100B18F041FA1AEE100A55EC104B19F0C7F80EA3D3E9002319F01AF98F
:2012800041EC100B00F024F8204653EC102B294619F010F919F0E6FB07EE900A27EEA80A59
:2012A00030EE080ABDEC068B38BD9FED030BCFE7182D4454FB211940000000E0E2361A3FDC
:2012C000B013020000FF7F4717B7D1380000000051EC100B204A21F00043934220DD00B510
:2012E0001E4A934285B009DD10EE102A0B4618F029FF41EC100B05B05DF804FB684600F0EE
:201300008FFA00F0030001289DED021B9DED000B0AD0022816D090B1012001F011FAEAE7D3
:201320009FED0B1B00F0A4BC01F00AFA53EC102B03F1004300EE903A05B05DF804FB00F054
:2013400097FCD8E700F094FCF0E700BFAFF300800000000000000000FB21E93FFFFFEF7F53
:2013600038B52DED028B55EC104B00F03DF822462B4620462946B0EE408AF0EE608A19F031
:2013800033FB98B9002200232046294619F022FB60B9002200232046294619F0F3FA60B154
:2013A00018F08CFE9FED0C8B22230360B0EE480AF0EE680ABDEC028B38BD18F07FFEBDEC37
:2013C000028B034621221A600548BDE8384001F0FBBA00BFAFF30080000000000000F0FF9A
:2013E0001CB30100000000002DE9F04F51EC100B2DED028BB1F5801F85B00F4658DA21F0B7
:201400000043034310EE102A00F0FC800029C0F23C81E14B002219F04DF8E04B0F469F420A
:201420006FF0350249DC3E15C7F3130707F51523A6F2FF3603F66473164403F4801306EB24
:20144000135683F07F5383F4401343EA07010022D34B18F077FEBB1CC3F31303022B82468A
:201460008B4635DC0022002319F08CFA002800F0D680002E00F06081304618F0B1FFB0A3C8
:20148000D3E9002306460F4619F014F8AEA3D3E9002304460D463046394619F00BF80246A1
:2014A0000B462046294618F04FFE41EC100B0AE0BA4B9F424FF00002B5DD02460B4618F025
:2014C00043FE41EC100B05B0BDEC028BBDE8F08FA7F5C223A3F27A43019300224FF08043E9
:2014E00018F032FE02460B465046594619F00CF941EC180B304618F073FF53EC182BCDE960
:20150000020151EC180B18F0D5FF02460B468046894618F0CFFF8EA3D3E9002304460D46DB
:2015200018F0C8FF8CA3D3E9002318F00DFE22462B4618F0BFFF8AA3D3E9002318F004FE06
:2015400022462B4618F0B6FF87A3D3E9002318F0FBFD42464B4618F0ADFF85A3D3E9002318
:20156000804689462046294618F0A4FF82A3D3E9002318F0E9FD22462B4618F09BFF80A3C6
:20158000D3E9002318F0E0FD22462B4618F092FF0B4602464946404618F0D6FDC7F5D727D2
:2015A000019B51371F43002F804689465FDD7D4B00225046594618F07DFF52465B4618F0C1
:2015C00079FF04460D46002E69D122462B464046494618F0B9FD53EC182B18F06BFF0246A6
:2015E0000B462046294618F0ADFD02460B465046594618F0A7FD41EC100B05B0BDEC028B66
:20160000BDE8F08F002200236749002019F07CF841EC100B05B0BDEC028BBDE8F08F5AA3C0
:20162000D3E900235046594618F044FF02460B4600205C4918F086FD524604460D465B468C
:201640005046594618F036FF02460B462046294618F030FF04460D46002E59D102460B46E5
:201660005046594618F06EFD41EC100B2BE7002E40F09C8002460B465046594618F062FDB9
:2016800053EC182B18F016FFAFE70B4618F05AFD0022002319F038F841EC100B13E728A3DA
:2016A000D3E90023DDE9020118F004FF22462B4606460F464046494618F046FD53EC182B1B
:2016C00018F0F8FE20A3D3E9002380468946DDE9020118F0EFFE02460B464046494618F061
:2016E00033FD02460B462046294618F02BFD52465B4618F027FD02460B463046394618F021
:2017000021FD41EC100B05B0BDEC028BBDE8F08F304618F065FE0AA3D3E900238046894652
:2017200018F0C8FE08A3D3E9002306460F464046494618F0BFFED4E79FED150BC3E600BF07
:201740000000E0FE422EE63F763C7935EF39EA3D44523EDF12F1C23FDE03CB966446C73FBE
:20176000599322942449D23F935555555555E53F9FC678D0099AC33FAF788E1DC571CC3F84
:2017800004FA97999999D93F555555555555D53F000000000000000000005043FFFFEF7FC0
:2017A0000000F03F0000E03F000050C318A3D3E90023DDE9020118F07DFE42464B4604467F
:2017C0000D465046594618F0BDFC53EC182B18F071FE11A3D3E9002306460F46DDE90201CA
:2017E00018F068FE02460B463046394618F0AAFC52465B4618F0A6FC02460B4620462946EE
:2018000018F0A0FC41EC100B5DE600BFAFF300800000E0FE422EE63F763C7935EF39EA3D96
:201820002DE9F04F53EC102B2DED048B904923F000458D428BB0044640F38C808D498D42C7
:201840001F462BDC002F194610EE100A7EA3D3E9002340F3B68118F075FC874B9D4280461C
:20186000894600F08F807AA3D3E9002318F06AFC02460B46C4E900234046494618F062FC4C
:2018800073A3D3E9002318F05DFCC4E90201012630460BB0BDEC048BBDE8F08F77498D42FF
:2018A00040F3928076498D4261DC2E15A6F2164610EE100AA5EB06519046894619F0AAF892
:2018C00018F08EFD02460B4640464946CDE9042318F038FC6B4B002218F0ECFD8946804650
:2018E00019F098F8054618F07BFD02460B4640464946CDE9062318F025FC624B002218F0F7
:20190000D9FD02460B46CDE908230022002319F039F8002800F05381002D0CBF01230223CB
:20192000594A0192022200922146324604A800F0DFFA002F0646ABDA6168226801F10043DF
:20194000E168C4E90023A26801F10043C4E9022346429DE7002000210026C4E902013046C4
:2019600084ED000B0BB0BDEC048BBDE8F08F10EE100A194618F0E6FB0026C4E90201C4E9F1
:20198000000185E734A3D3E9002318F0DBFB34A3D3E900238046894618F0D4FB02460B468B
:2019A000C4E900234046494618F0CCFB2CA3D3E9002318F0C7FB0126C4E9020130460BB0F3
:2019C000BDEC048BBDE8F08F18F018FA59EC108B10EE100A24A3D3E90023494618F06AFDF5
:2019E0002A4B002218F0B0FB19F014F8064618F0F7FC02460B4643EC182B13A3D3E90023A1
:201A0000B0EE489AF0EE689A18F054FD02460B464046494618F096FB0DA3D3E9002382466F
:201A20008B4651EC180B18F045FD1F2E41EC180B30DC174B721E53F82230AB422AD00246C4
:201A40000B469BE0AFF3008000004054FB21F93F3163621A61B4D03D0000601A61B4D03DE2
:201A60007370032E8A19A33B83C8C96D305FE43FFB21E93F7BD90240FB21F93FFB213941DA
:201A8000FFFFEF7F00007041D01502000000E03F501502002B150393504653EC182B59462F
:201AA00018F050FBC1F30A53C3EB1555102D8046894669DD64A3D3E9002351EC190B18F043
:201AC000F9FC8046894642464B465046594618F039FB02460B465046594692469B4618F063
:201AE00031FB42464B4618F02DFB59A3D3E900238046894651EC190B18F0DCFC42464B46A7
:201B000018F020FB02460B465046594643EC182B18F018FB039AC1F30A53D31A312B80468A
:201B2000894631DD4DA3D3E9002351EC190B18F0C1FC8046894642464B465046594618F0E8
:201B400001FB02460B465046594692469B4618F0F9FA42464B4618F0F5FA42A3D3E9002333
:201B60008046894651EC190B18F0A4FC42464B4618F0E8FA02460B4643EC182B5046594684
:201B800018F0E0FA8046894642464B46C4E900895046594618F0D6FA53EC182B18F0D2FA1C
:201BA000002FC4E90201BFF673AE09F10043C4E9008301F10043C4E90203764268E60323F0
:201BC000AEE618F0C1FA244B9D428046894616D01BA3D3E9002318F0B7FA02460B46C4E949
:201BE00000234046494618F0ADFA15A3D3E9002318F0AAFA4FF0FF36C4E9020148E612A3B4
:201C0000D3E9002318F0A0FA11A3D3E900238046894618F099FA02460B46C4E90023404691
:201C2000494618F08FFA0AA3D3E9002318F08CFA4FF0FF36C4E902012AE600BFAFF3008055
:201C40003163621A61B4D03D0000601A61B4D03D7370032E8A19A33BFB21F93F0000002E9F
:201C60008A19A33BC14920259A837B39000000002DE9F84F57EC106B27F00049B9F1795FC6
:201C80002DED048B5BEC11AB71DA10EE100A394618F0C0FE002800F0F68032463B463046F3
:201CA000394618F007FC7CA3D3E9002304460D4618F000FC7AA3D3E9002318F045FA224650
:201CC0002B4618F0F7FB78A3D3E9002318F03AFA22462B4618F0EEFB75A3D3E9002318F09A
:201CE00033FA22462B4618F0E5FB73A3D3E9002318F028FA22462B4618F0DCFB70A3D3E950
:201D0000002318F021FA22462B4618F0D3FB41EC180B714B00222046294618F0CBFB53ECBE
:201D2000182B804689462046294618F0C3FB52465B4604460D463046394618F0BBFB02465F
:201D40000B462046294618F0FDF902460B464046494618F0F7F902460B4600205F4918F050
:201D6000F1F9BDEC048B41EC100BBDE8F88F10EE102A10EE100A3B46394618F09BFB46A3F6
:201D8000D3E9002304460D4618F094FB44A3D3E9002318F0D9F922462B4618F08BFB42A344
:201DA000D3E9002318F0CEF922462B4618F082FB3FA3D3E9002318F0C7F922462B4618F0AD
:201DC00079FB3DA3D3E9002318F0BCF922462B4618F070FB3AA3D3E9002318F0B5F92B46E4
:201DE000224618F067FB3E4B994541EC180B90DD3C4B99453CDC0022A9F5001337490020FD
:201E00009046994618F09EF941EC190B324B00222046294618F04EFB42464B4618F092F9AC
:201E200053EC182B804689462046294618F042FB52465B4604460D463046394618F03AFB69
:201E400002460B462046294618F07CF902460B464046494618F076F902460B4651EC190B78
:201E600018F070F9BDEC048B41EC100BBDE8F88F9FED157BDFF87090B0EE479AF0EE679AF4
:201E80004FF00008C2E7BDEC048B9FED110BBDE8F88F00BFAFF30080D43888BEE9FAA8BDCB
:201EA000C4B1B4BD9EEE213EAD529C804F7E923E9015CB19A001FA3E7751C1166CC1563FD6
:201EC0004C5555555555A53F000000000000E73F000000000000F03F0000E03F0000F03F86
:201EE0003233D33F0000E93F0000D23F000000002DE9F04FADF5197D1C4608930B91BA4B07
:201F0000A299049053F821100591631E12F1140F0393C0F24B83B549D31E81FB0301DB17C2
:201F2000C3EBA10307930133A3EB8303DB00D3180693079A039BD41A059AD6181AD401362F
:201F4000A39F264420AD4FF000084FF0000908E057F8240018F044FA0134B442E5E80201DD
:201F600008D0002CF4DA013440464946B442E5E80201F6D1059B002BC0F2C683089BDDF87A
:201F80000C9020AA02EBC30ADA000292059A1A440192049A0DF5E07B02EBC308039B002BA7
:201FA000C0F2A781049E57460024002577E90223F6E8020118F07EFA02460B46204629466B
:201FC00018F0C2F8464504460D46EFD1019B09F101099945EBE802450AF1080ADED1049A65
:201FE000029B1344059A01929B460BAB03EB82030A930CAB03EB8203083B0993019A98AB2D
:2020000003EBC203002A53E9284529DD0DF5E07A0AEBC2080DF13009754B0022204629462B
:2020200018F048FA18F0F6FC18F0DAF9714B002206460F4618F03EFA02460B462046294654
:2020400018F080F818F0E6FC78E9022349F8040B3946304618F078F8D04504460D46DBD175
:20206000DDF8189045EC104B484600F0B5FC55EC104B00224FF07F5310EE100A294618F0CA
:2020800019FA41EC100B00F01BFC5B4B51EC100B002218F00FFA02460B462046294618F037
:2020A00051F80D46044618F0B5FC804618F098F90B4602462946204618F044F84B46002BB4
:2020C00006460F4640F39A80019A511E0CAAC9F1180352F8212042FA03F000FA03F3D31AE6
:2020E000C9F117050CAA43FA05F5002D42F82130804400F38D80002200233046394618F05F
:2021000041FC002800F05982019B059A03F1FF3A524510DC03F180430CAA013B0A9802EB6C
:202120008303002253F80419834242EA0102F9D1002A40F0E180059B0CAA013B52F82330E7
:20214000002B40F0D180099A012352F8041901330029FAD0019AD3180293531C9946019A7A
:2021600008990A449046079A02EB030A0AF1804AA39A0AF1FF3A02EB8A0A20AA02EBC808C1
:2021800070AA02EBC30301935AF8040F18F028F90B46039902460029C8E90023474608F198
:2021A00008081EDB049E0024002501E077E90223F6E8020118F07EF902460B4620462946F7
:2021C00017F0C2FF5E4504460D46EFD1019BE3E802450193029B09F101099945D4DD019331
:2021E0000CE700240025F1E7F0160200ABAAAA2A0000703E00007041000020406BD1019B03
:202200000CAA013B52F82350ED15002D7FF773AF019B002B08F1010840F3CD810C9C002C2A
:2022200051D1019B012B20D00CAB012253F8044F002C4BD0531C0CA9C4F1807441F822409D
:202240000199994210DD0CAA0CA852F8232000EB830300EB81006FF07F4100E01A688A1A23
:2022600043F8042B8342F9D10124069B002B0EDD012B00F06C81022B09D1019B5A1E0CABAE
:202280000CA953F82230C3F3150341F82230022D7FF431AF32463B46B749002017F052FFA0
:2022A00006460F46002C3FF426AF06989FEDAE0B00F092FB3046394653EC102B17F042FF32
:2022C00006460F4617E701230022B4E7019901328A42ABD1C9E7A94B002218F071FB002807
:2022E00040F05281054606E7019B01339946029335E70024002569E6069B0395A3F11802C4
:202300000CABCDF81C8053F82A30069273B9019B03F18043023B0CA901EB830353F804191D
:202320000AF1FF3A183A0029F8D006929FED8E0B069800F051FBBAF1000F55EC104BC0F287
:20234000D98170AB03EBCA0B0CAA0AF10103069302EB8306DFF828924FEACA0304930BF157
:2023600008074FF0000856F8040D18F039F822462B4618F09FF84B4667E902014246204625
:20238000294618F097F80CAB9E4204460D46EAD148ABCDE9013ADDF814A0BAF1000F4FF0E2
:2023A00000092CDB72A3D3E90023DFF8D8815F4600260024002503E0B14510DBF8E802230C
:2023C000F7E8020118F076F802460B462046294617F0BAFE0136B24504460D46ECDA019B4B
:2023E000029A03EBC9034A45C3E90045ABF1080B09F1010306D0BAF1000F9946D2DA00241B
:202400000025ECE7A29BDDF808A0022B1EDC002B00F3098113D1049C019D08342C4400204D
:20242000002174E9022317F08FFEA542F9D1039B13B101F1004319460B9BC3E90001079BC9
:2024400003F007000DF5197DBDE8F08FA29B032BF5D1BAF1000F00F06981019A049BD318DC
:20246000D3E9004502EBCA0B7BE902672046294632463B4617F068FEA046A94604460D461F
:2024800022462B463046394617F05CFE4B46424617F05AFE019B5B45CBE90201CBE90045A9
:2024A000E2D1BAF1010F40F34181019A049B0AF1005A0AF1FF3A13444FEACA01D3E900459A
:2024C00001F1080A029192440DF5947B7AE902672046294632463B4617F036FEA046A946D4
:2024E00004460D4622462B463046394617F02AFE42464B4617F028FED345CAE90201CAE97B
:202500000045E3D1029C019B10341C4403F110050020002174E9022317F016FEA542F9D14C
:20252000039B002B40F0BD800B9CC4E904010198D0E90023C4E90023D0E90223C4E9022317
:20254000079B03F007000DF5197DBDE8F08F019B5A1E0CAB0CA953F82230C3F3160341F8FE
:20256000223094E6AFF30080000000000000F03F00000040FB21F93F0000F03F0000E03F5C
:202580000000703E20AF0100019B002B08F10108C8BF02253FF742AE32463B466549002059
:2025A00017F0D0FD022506460F46A4E500216FF017030791BBE4002457E647EC106B069E72
:2025C00003957042CDF81C8000F006FA55EC104B594B10EE100A0022294618F0F1F900285D
:2025E00055D0564B019F0022183620462946069617F060FF18F00EFA064617F0F1FE4E4B43
:20260000002217F057FF0B4602462946204617F099FD18F0FFF907F1010A0CAB43F8270014
:2026200043F82A6082E6019D069B002005EBC304002174E9022317F087FDA542F9D1039BDA
:20264000002B47D10B9BC3E900010B4601990246D1E9000117F076FDBAF1000F0DDD4AADE1
:202660000124F5E80223013417F06EFDA245F8DA039B13B101F1004319460B9BC3E9020188
:20268000079B03F007000DF5197DBDE8F08F2046294618F0BFF9019B0CAA9A4642F82300BE
:2026A00044E6019E01F1004374680B993268F568C1E9040304F10043C1E90023B26805F1DF
:2026C0000043C1E90223079B03F007000DF5197DBDE8F08F0B9A01F1004353600B46019918
:2026E00010600246D1E9000117F02CFDBAF1000FB5DCBFE7A29B022B0ADC002B11DC7FF46B
:202700009EAE0020002192E6089BDB00029366E4A29B032B7FF493AE48AB00200021019370
:20272000FEE648AB00200021019388E700200021F6E600BF0000F03F000070410000703E14
:202740002DE9F04F55EC104B85B025F00043B3F1795F8DED001B039007DA10EE100A2946EF
:2027600018F058F9002800F0898022462B462046294617F09FFE06460F4632463B4620468D
:20278000294617F097FE43A3D3E9002382468B463046394617F08EFE40A3D3E9002317F07F
:2027A000D1FC32463B4617F085FE3EA3D3E9002317F0CAFC32463B4617F07CFE3BA3D3E928
:2027C000002317F0BFFC32463B4617F073FE39A3D3E9002317F0B8FC039B80468946ABB39C
:2027E000DDE900012A4B002217F064FE42464B46804689465046594617F05CFE02460B4635
:202800004046494617F09EFC32463B4617F052FEDDE9002317F096FC1BA3D3E90023064647
:202820000F465046594617F045FE02460B463046394617F089FC02460B462046294617F035
:2028400081FC41EC100B05B0BDE8F08F02460B463046394617F02EFE0BA3D3E9002317F085
:2028600071FC52465B4617F025FE22462B4617F06BFC41EC100B05B0BDE8F08F45EC104B94
:2028800005B0BDE8F08F00BF495555555555C53F0000E03F7CD5CF5A3AD9E53DEB9C2B8AA0
:2028A000E6E55A3E7DFEB157E31DC73ED561C119A0012A3FA6F810111111813F0000000072
:2028C00051EC100BF8B5C1F30A53A3F2FF35132D10EE106A0C4630DC002D1EDB384F2F41E6
:2028E00001EA070303432DD033A3D3E9002317F02BFC0022002318F06DF848B1002C04DA08
:202900004FF4801343FA05F52C4424EA070400262346324643EC102BF8BD27A3D3E9002352
:2029200017F012FC0022002318F054F80028EFD0002C29DB00263446EAE7332D05DDB5F575
:20294000806F19D041EC100BF8BDA3F213434FF0FF37DF400742F5D017A3D3E9002317F075
:20296000F3FB0022002318F035F80028D0D0002C13DB26EA0706CBE710EE102A0B4617F0AE
:20298000E3FB41EC100BF8BD24F000430D4A1E43002E18BF14460026BAE7142D08D00123EA
:2029A000C5F1340503FA05F5AE1928BFE418E0E70134DEE7AFF300809C7500883CE4377E36
:2029C000FFFF0F000000F0BF9FED010B704700BF000000000000F87F38B553EC102BC3F399
:2029E0000A5104469C4689BB10EE101A23F0004C5CEA010129D0194600223D4B3D4D10EEB3
:202A0000100A17F057FDAC4202460B4616DB8C46C1F30A513639214440F2FE70814221DCB4
:202A2000002947DC11F1350F34DA4CF250318C4218DC002B26A1D1E9000144DB24A3D3E926
:202A4000002317F037FD41EC100B38BD40F2FF708142E0D110EE100A194617F075FB41ECAB
:202A6000100B38BD002B1CA1D1E9000107DB1AA3D3E9002317F01EFD41EC100B38BD18A10D
:202A8000D1E9000114A3D3E9002317F013FD41EC100BF3E72CF0FF4C2CF4E00C36314CEA9C
:202AA0000153104619460022134B17F003FD41EC100B38BD2CF0FF4C2CF4E00C4CEA01534C
:202AC00043EC102B38BD08A1D1E90001B6E700BF59F3F8C21F6EA5019C7500883CE4377E30
:202AE0009C7500883CE437FE59F3F8C21F6EA58100005043B03CFFFF0000903C10B5054CD0
:202B0000237833B9044B13B10448AFF300800123237010BDE0080020000000000817020000
:202B200008B5034B1BB103490348AFF3008008BD00000000E408002008170200A3F5803AC1
:202B4000704700BF174B002B08BF134B9D46FFF7F5FF00218B460F461348144A121A18F04C
:202B60008BF90E4B002B00D098470D4B002B00D098470020002104000D000D48002802D0CB
:202B80000C48AFF3008017F0B3FA2000290004F089FF17F099FA00BF0000080000000000E5
:202BA00000000000000004209803002064450020000000000000000000B585B00346002119
:202BC00001AA44F20100CDE90111039300F004F805B05DF804FB00BF72B6094BD3F8F0309A
:202BE000DB0700D500BEBFF34F8F0549054BCA6802F4E0621343CB60BFF34F8F00BFFDE714
:202C000000ED00E00400FA05014B02481B681847FC08002074AF01000378052B02D0094B53
:202C20001B681847084BD3F88424D3F88034DBB2002BF4D1054BD2B2052A08BF1846014B7C
:202C40001B681847FC0800200070024070AF0100012803D0022809D020B17047054B064877
:202C60001B681847034B05481B681847014B04481B681847FC08002068AF01006CAF010023
:202C800064AF01002DE9F04F89B0002504460E4601929846049500E0013562680123D2F8F7
:202CA00004902146002204A8C8470028F4D18DF80E00069085B3814682460BE09DF80E30A1
:202CC0006768023BD7F804B0D8479DF80E309A44554521D960680123D0F804B00DF10E028B
:202CE000214606A8D84760680123D0F804B00DF10F02214606A8D8479DF80F30B3424FF0ED
:202D00000002214606A8D9D1019B4B4508D009F101095FFA89F9D1E7052009B0BDE8F08F55
:202D2000129A9DF80E30136088F8003088F801606268023B556808F10202A847002009B087
:202D4000BDE8F08FF0B5054683B03B480CF058FB044610B1204603B0F0BD3849384A394B02
:202D600008701060014648221860374818F084F836484822214618F07FF8002D53D095E8A4
:202D80000700334B83E80700002846D000200AF08FFF08B1852843D12E4C237A002B48D082
:202DA000013BDBB204F10C024FF0030E6568274E254F1EFB032E04F1090C9CF80110D9B1BE
:202DC0009CF802000CF10103013903440CEB000253FA81F112F8013B13F0800F03F00F0049
:202DE0000ABF03F00F0307EBC00306EBC30391421C6028685860EDD10CF1030CF445DCD152
:202E00000B238DF804302B68124801A99847044600289FD00CF032FB9CE70F4A1A60B5E759
:202E2000FFF7CAFEB8E70A4B0B4A1D72C3E90025ACE76568E4E700BF192C00001545002082
:202E4000980900209C0900200809002050090020FC080020A0AF0100C931000010B50CF013
:202E60002DFC68B10CF032FC044648B906480AF033FF034628B1FFF79FFE2346184610BDD8
:202E80000823184610BD00BF60AF01000CF000BB0DF028B94FF0804303E0D3F83824D10794
:202EA00007D5D3F838249207F7D5024B02481B6818477047FC08002088AF010000B5054B19
:202EC00083B082221B688DF8042001A8984703B05DF804FBFC0800202DE9F043077A83B03F
:202EE000002F59D007F1FF3E5FFA8EF300F1090C00F10C024FF0030E304D314E61461EFB5A
:202F0000032E4C780022944201EB020319D091F8028013F9089013F80830B9F1000F0BDB59
:202F200003F00F0305EBC3031B680132002BEAD0112003B0BDE8F08303F00F0306EBC30383
:202F4000F2E703318E45DCD100241C4D1C4E224602EB420262445378D3B14FF0000E734659
:202F6000917813440EF1010E5F56595C002F01F00F03B4BF06EBC30305EBC3031860416846
:202F80000968596051785FFA8EF39942E8D8077A0134E2B29742DBD80A4A13681BB11A68D6
:202FA0001368002BFBD1106043680B228DF804201B6801A9984703B0BDE8F083500900205E
:202FC0000809002098090020024B1878003818BF0120704714450020030710B5044604D5D0
:202FE0002046BDE810400DF0EFB80CF005FD20460DF042F92046BDE810400DF0E5B800BF82
:203000000DF0B0B8014B1868704700BF9809002030B50F4B1D68A5B12C7AA4B100232A46A0
:203020009C4603E05FFA83FC64450CD992F809E0864503F1010302F10302F3D109B181F840
:2030400000C0284630BD2B681D68002DE4D1F8E798090020436811461B68184700F00F03D5
:20306000082B0AD802064CBF054A064A02EBC303186810B143681B6818471020704700BF62
:20308000080900205009002038B5094B1C6864B1054602E023681C683CB1636820461B68CF
:2030A000294698470628F5D038BD062038BD00BF9809002038B504460D460CF075FB18B180
:2030C000054B1B78022B01D0082038BD29462046BDE838400CF078BB1545002038B5044620
:2030E0000D460CF061FB18B1054B1B78022B01D0082038BD29462046BDE838400CF0F4BBC1
:203100001545002070B543689B6882B006460D46144623B19847062801D002B070BD1CBBCF
:20312000337AAB4225D9093605EB450535446E78BEB13246234600E06A789A4216D9AB781F
:203140002A19D05C030706D401900CF055FC01980DF092F8019801340DF036F8E3B29E42B0
:20316000EAD8002002B070BD0720D6E700231B78FFDE6378FFDE00BF70B54368DB68054642
:203180000C4603B198472B7AA3421AD9093504EB44042C4466789EB1002532462B469342D8
:2031A0000BD2A37862190135D05C0CF0DBFFEBB29E4205D962789342F3D300231B78FFDE01
:2031C00070BD00235B78FFDE2DE9F04103780546852B00F2D280DFE813F04902CB01D2003B
:2031E0006502A102F000F700D000110124013701D000D000D000D0004A01D000D000D000A4
:20320000D000D000D000D000D000D000D000D000D000D000D000D000D000D000D000D000AE
:20322000D000D000D000D000D000D000D000D000D000D000D000D000D000D000D000D0008E
:20324000D000D000D000D000D000D000D000D000D000D000D000D000D000D000D000D0006E
:20326000D000D000D000D000D000D000D000D000D000D000D000D000D000D000D000D0004E
:20328000D000D000D000D000D000D000D000D000D000D000D000D000D000D000D000D0002E
:2032A000D000D000D000D000D000D000D000D000D000D000D000D000D000D000D000D0000E
:2032C000D000D000D000D000D000D000D000D000D000D000D000D000D0005E0186007D01FB
:2032E0002B020E02F000734B734F5A687349186890473C68002C00F07482704D63682046A8
:203300001B682946984723681C68002CF6D1DFF8BC81D8F804300BB10D2098473D6875B12F
:203320002E7A46B10024214628460134FFF724FFE1B28E42F8D82B681D68002DF0D101F07D
:20334000B1FB5F4B1B68002B00F0638201205D4E0CF084F93278931EDBB2062B00F2498279
:203360005949CB5C13B10AF089FC3278022A40F040820CF0EFF901233370BDE8F081514E19
:203380003278931EDBB2062B40F2F481082A01D10CF0E0F94D4B5B68032232700BB1022094
:2033A0009847454B1C6844B1636820461B682946984723681C68002CF6D13E4B2946D3E96D
:2033C0000002BDE8F041104790F902308278002BB4BF3F4B374B02F00F0203EBC203D3E9ED
:2033E0000002294690470028C7D0A8780207C4D00307C2D4BDE8F0410CF0D0BA334B5B68CC
:203400000BB1082098472C4B1C68002CB5D0636820461B682946984723681C68002CF6D139
:20342000ABE72A4B5B680BB109209847224B1C68002CA2D0636820461B68294698472368E2
:203440001C68002CF6D198E7204B5B680BB10A209847194B1C68002C8FD0636820461B685C
:203460002946984723681C68002CF6D185E7174B5B680BB10F2098470F4B1C68002C3FF464
:203480007CAF636820461B682946984723681C68002CF6D171E70B4C2378062B00F0818190
:2034A00003F0FD03052B7FF468AF0CF05DF90223237062E7500900209809002084AF01009E
:2034C0009C0900201545002058AF0100FC08002008090020894F3D6875B12E7A46B10024EA
:2034E000214628460134FFF747FEE1B28E42F8D82B681D68002DF0D1814E0CF0A7FD327835
:20350000931EDBB2062B30D87E49CB5C13B10AF0B5FB3278022A28D10CF01CF93C68002331
:2035200033704CB1784D636820461B682946984723681C68002CF6D1744B7349D3E90002E9
:203540009047734B5B680BB10E2098473378023BDBB2062B3FF611AF6A4AD35C002B3FF46E
:203560000CAFBDE8F0410AF089BB082AD6D1D3E7624F3E688EB196F80880B8F1000F08D0AD
:203580000024214630460134FFF7F6FDE1B28845F8D833681E68002EEDD1594E01F078FAC5
:2035A0003278931EDBB2062B00F2EE805549CB5C002B00F0E980022A03D0082A01D00CF04B
:2035C000D3F8534B5B68022232700BB1012098474E4B2946D3E9000290473C68002C3FF49D
:2035E000CCAE636820461B682946984723681C68002CF6D1C1E6424E3378032B00F0DA80F3
:203600000CF06EF800283FF4B8AE3278931EDBB2062B40F20A813F480AF002FB3278022A5D
:2036200001D0082A01D10CF095F806233370A4E6334E3378032B7FF4A0AE0CF029FD002871
:203640003FF49BAE33789A1ED2B2062A00F2F6802C498A5C12B10AF011FB3378022B40F043
:20366000ED800CF077F80423337086E6244B1B78032B00F09B80082B00F09880244B5B6894
:203680000BB100209847244B1C68002C3FF475AE636820461B682946984723685C68002C7D
:2036A000F6D16AE6164E3278082A72D0931EDBB2062B00F2A2801349CB5C002B00F09D8033
:2036C000022A00F0A38005233370114B5B680BB1032098470D4B2946D3E900029047074B55
:2036E0001C68002C3FF449AE636820461B682946984723681C68002CF6D13EE69809002007
:203700001545002058AF010080AF010050090020FC080020080000209C090020494B5B6816
:203720000BB103209847484B4849D3E900029047474B1C684CB1454D636820461B6829464A
:20374000984723681C68002CF6D1424E3378062B24D0082B0BD09A1ED2B2062A5CD83E49F3
:203760008A5C002A58D0022B01D00BF0FDFF0223337002E63849CB5C13B10AF07FFA3278E3
:20378000022A3FF405AE01E634480AF049FA327811E7022333700BF0F1FF96E707233370D8
:2037A000EBE50BF0E1FF08232370E6E52C48FFF70BFD63E70CF06CFC00283FF421AF3378DF
:2037C0009A1ED2B2062A36D823498A5C12B10AF055FA3378022B2ED10BF0BCFF04233370BA
:2037E0000EE7DFF86080D8F80430002B7FF494ADA5E5082A7FF4BFADBBE518480AF010FA9B
:203800003378022B02D0082B7FF45DAF0BF0A2FF59E798F808009AE510480AF001FA337861
:20382000022BA4D0082BA2D09FE70B49CB5C002B7FF4F5AEEFE6082BD0D1CDE7082B7FF4FD
:2038400012AF0EE7FC0800205009002078AF0100980900201545002058AF01000800002082
:203860007CAF010043681B6903B118471846704770B50A4B1D687DB12E7A4EB10024214666
:20388000002228460134FFF73DFCE1B2B142F7D32B681D68002DEFD170BD00BF9809002032
:2038A00070B5094B1D6875B12E7A46B10024214628460134FFF760FCE1B2B142F8D32B68E1
:2038C0001D68002DF0D170BD980900204360CA699A4205D38A6902600B67CB610020704733
:2038E00001F1280202608B6700207047F0B5046891F808E0002C00F04484A4F2123CBCF18A
:203900007C0F00F28280BCF17C0F7ED8DFE81CF0C900E402CF02180346011F03F2021103BB
:203920007D007D007D007D007D007D00BC0316027D007D007D007D0078037C026B027D00EB
:203940007D007D007E03000381007D007D007D007D00B803840281007D007D007D007D00BE
:203960007D007D00CC037D007D007D007D006703930197027502C8027D007D00C102D6021D
:20398000BA020602FF017D007D00F801260354019C037D007D00F9029003DD02B203EB024A
:2039A0007D007D007D007D007D007D007D007D007D007D007D007D007D007D007D007D0037
:2039C0007D007D007D0056039E027D007D007D000D017D007D007D007D00AA037D007D0057
:2039E0007D007D00A2037D007D007D007D007D007D007B034D017D007D007D007D00B800C2
:203A00007D007D007D007D00B800002303601846F0BD002A00F0A284047915464FF0010C05
:203A20002C7000249C45047180F048830CF1010412B1057902F80C50BC4D91F814C02D68A1
:203A40002E78B44500F03F83B94E6D783570B94E4FF0000C86F800C0AC45C0F02983B64DA4
:203A600095F800C00CF1010C5FFA8CFC85F800C0F445C0F0358340F2993303600120F0BD01
:203A8000012400250AB106795655AA4EA84D96F800C02D780CF1010C5FFA8CFC86F800C0EE
:203AA000DAE7002A00F06F8404791470012B4FF00B04047140F2AA84254601260224955546
:203AC0009C420D7D057180F0D483661C15559E424FF00204047180F0BD83751C94559D42B2
:203AE0004FF00204047180F0A6836E1C54559E424FF00204047180F08883751C9455AB42C4
:203B00004E7E067140F26F836C1C5655A3424FF00005057140F25D83161901343570864D7E
:203B20004FF0000C85F800C0A2E7804C0125266800241AB190F804C002F804C034780E7DC4
:203B4000A64200F0F8828E7DA64200F0AB834024AB42047140F2BF826C1C002A00F0D782CE
:203B600006795655A3424FF00005057140F2BF821619013435706D4D0E7D2D682D78AE4291
:203B800000F0BA828E7DAE427FF47FAF0025A342057140F287842546013473E7002A00F08C
:203BA0004484047901260025A0E7002A00F04A84057916460124DDE7002A00F056840679CF
:203BC000944601240225A3428CF80060057140F2BA822E46651C1655AB424FF00504047108
:203BE00040F2CA82264602EB050C6C1C2425A3428CF80060057140F2BA822E46651C1655FF
:203C0000AB424FF00604047140F2AC825619013534700E7D0671AB4240F29F826C1C5655DB
:203C2000A3428D7D057140F293821619013435703E4D2D6808E7002A00F0F9830479012686
:203C40004FF0000C02F80C40B3424FF00004047140F20583751C9455AB424FF0100404713D
:203C600040F2EE826E1C5455B3424FF00104047140F2D08235199455AB424FF0050404715C
:203C800040F2B6826E1C5455B3424FF02404047140F2A482751C94559D424FF0010404714C
:203CA00080F092822E1954559E424FF00304047180F08582751C94559D428E7D067180F033
:203CC00079826C1C56559C424FF00405057180F06C821619013435709C424FF024050571F7
:203CE00080F05E822E46651C16559D424FF00204047180F05082264602EB050C6C1C61E7FF
:203D0000002A00F0CB83057916460124E3E7002A00F0C683067901240025D3E7002A00F072
:203D2000AF83047901250026C5E700BFA0090020164500201845002017450020002A00F0C6
:203D4000968304791646012534700E7ABB4C2478B44280F0B98304EB440401F10906B84F9B
:203D600016F804C080F804C03444AB423C6040F27B826C1C002A00F0818206795655A34251
:203D80004FF00005057140F2608204F1010C1555AB4C256863456C78047140F2478202EB7C
:203DA0000C060CF1010C34702C780D7DA54200F024828D7DA5427FF434AE0A246345047107
:203DC00040F27A830CF10104002A00F07882057902F80C50A3424FF00005057140F2118365
:203DE00004F1010C1FE0964C2568002A00F02783047916464FF0010CD5E7002A00F03A83D7
:203E00000479012600252EE7002A00F03B8305794FF0010C0024BAE7002A00F02F83057913
:203E20004FF0010C0024155563454FF00004047140F24F8202EB0C050CF1010CF0E5002A3E
:203E400000F0228304790125002604E7002A00F023830579944601248CF80050784D2E68AD
:203E6000784D96F801C02D78AC4540F22A8396F802C03544A34215F80C50057140F2568123
:203E8000651C56E6002A00F0D48204790126002509E7002A00F0CF82047901260025F2E630
:203EA000002A00F0D982047901250026E3E6002A00F0E28205790126002407E6002A00F0AD
:203EC000E782047901250026E5E6002A00F0BF820479164601259BE6002A00F0D782057919
:203EE00001240026EBE5002A00F0BA820579164601249CE6002A00F0CD820679012400259E
:203F000003E6002A00F0A1820679944601246DE6002A00F0A38205794FF0010C0024155513
:203F200063454C7E047185D840F22E3303600120F0BD002A00F08D82057916460124EDE57F
:203F4000002A00F09082047901250026C6E5002A00F07382047901250026CFE501250024EB
:203F6000002A40F09D810224AB42047140F213816C1C0225A342057140F2E580651C052430
:203F8000AB42047140F2F8806C1C2425A342057140F2ED80651C0624AB42047140F2E280A9
:203FA00001350C7D0471AB4240F2D7806C1C8D7D0571A34240F2CC80013439E6012600244D
:203FC000002A00F02C8105791555B3424FF00505057140F2A68002EB060C741C3CE74FF035
:203FE000010C0024002A00F079810579155563454FF02404047140F24E810CF1010621E604
:2040000001240025B6E601240025A6E501244FF0000C002A00F0E781057902F80C50A3423A
:204020004FF00205057140F2A98104F1010C76E701250024002AAED00679E0E51745002057
:20404000A00900201845002001250024002A96D00679C0E501250026002A3FF478AD0479D1
:20406000945574E501250024002A3FF470AD067916556CE501240025002A98D00679CEE5F1
:2040800001244FF0000C9FE601250024002A00F06981067916559D424FF00404047180F0E8
:2040A0000981561901354FE601244FF0000CBFE40725A34205712FD9661C81E74FF44F730B
:2040C00003600120F0BD0525A342057140F2518104F1010C86E740F2833303600120F0BD9E
:2040E0000925A342057140F27981651CCEE74FF4617303600120F0BD0D6AA3422D78057116
:204100003FF649AD40F2893303600120F0BDA3420271ECD901342EE540F26D33036001209A
:20412000F0BD40F26E3303600120F0BD40F2723303600120F0BD0324AB42047140F26B811F
:204140002C46013590E740F2523303600120F0BD40F2593303600120F0BD4FF456730360FA
:204160000120F0BD40F2573303600120F0BD40F2563303600120F0BD40F25533036001205A
:20418000F0BD08240471002B7FF48BAC40F2123303600120F0BD40F2513303600120F0BD6D
:2041A0004FF4547303600120F0BD40F24F3303600120F0BD4FF4537303600120F0BD40F273
:2041C0004B3303600120F0BD40F24A3303600120F0BD40F2193303600120F0BD40F24933F3
:2041E00003600120F0BD4FF4467303600120F0BD4FF4527303600120F0BD022463450471E5
:2042000040F20E810CF1010403E740F2173303600120F0BD40F2453303600120F0BD052440
:20422000B34204717FF67DAF741C17E64FF44A7303600120F0BD40F2163303600120F0BD09
:204240004FF4517303600120F0BD40F2273303600120F0BD40F2153303600120F0BD40F28C
:20426000433303600120F0BD40F2263303600120F0BD4FF4457303600120F0BDA342027157
:20428000E3D90134934D2D689C426E780671CDD204F1010C88E540F2423303600120F0BD97
:2042A000067921E50224AB42047140F200812E460135D1E640F2213303600120F0BDA34241
:2042C000027140F29E80013400259C420571C0F0948040F2353303600120F0BD24246345EE
:2042E0000471D8D90CF1010400259C420571B6D201341025A3420571A2D9013401259C421C
:20430000057187D22C4405259C420571BFF470AF013424259C420571BFF460AF013401251F
:20432000A34205717FF650AF2C4403259C420571BFF445AF01348D7D05719C42BFF43AAFEC
:20434000013404259C420571BFF42FAF01342425A34205717FF624AF651C04E64FF0010C42
:20436000FFF75FBB04249D420471A3D20E7A0135ECE440F2413303600120F0BD40F22D3345
:2043800003600120F0BD0B24012B04713ED902240D7D05719C42BFF46CAF013402259C42F9
:2043A0000571BFF457AF01340225A34205717FF642AF013402259C420571BFF426AF013444
:2043C0004D7E05719C42BFF40EAF013400259C420571BFF4FEAE0134FFF7A1BB4FF44873BC
:2043E00003600120F0BD0225A3420571C6D901344D7E05719C42BFF497AD04F1010CFFF728
:2044000010BB4FF44D7303600120F0BD40F2133303600120F0BD40F2773303600120F0BDE7
:204420004FF44B7303600120F0BD0124C2E701245AE7012479E701246BE70124C0E74FF00F
:20444000010CB1E40124FFF796BB01249DE50125A7E50124FFF763BB012454E70124C7E789
:204460000124FFF7E5BB01249EE7012481E5764601256BE4012441E701248FE7012423E704
:20448000012458E70124FDE6012432E701247FE7012444E7012499E70124DFE4012456E7A8
:2044A00001244EE740F28E3303600120F0BD4FF45F7303600120F0BD40F23333036001201C
:2044C000F0BD00231B78FFDE024A002313601B78FFDE00BFA009002070B90B681A7B202A47
:2044E00001D006207047D3F80EC0598A1A7DC3F818C099839A777047032070474360CA69D4
:204500009A4210D38A6910B40260C8690C6FC01A1A44C8612344003818BF01205DF8044B7B
:204520008A610B67704701F12802026000208B67704700BF2DE9F0470B7888B00C460546BC
:204540000E2B14D8DFE803F008180808130D281313181308080808000024204608B0BDE8AC
:20456000F0874B78DA0930D15B09012B4DD00624204608B0BDE8F0870368002403F1340253
:204580002046C3E91E44C3E920441C845C62DC625A6708B0BDE8F087027A002A00F06581EA
:2045A000837A0930002B00F05E818B78E97A415C9942D1D01B061FD4E77807F0FD03012BB6
:2045C000CAD0002F66D00324C7E713F0600FC3F3411200F09580012AC9D18B78212BC6D1DC
:2045E000B1F80720072AC2D10168601C183108B0BDE8F04700F060BAE478002C00F0A080C3
:20460000032C14BF03240024A7E78B780668202B00F09E80222BAAD1B1F80730002BA6D1AB
:20462000B1F80330328C338403F0010702F00102BA4291D0C3691BB1C7F10301C9B29847CE
:20464000002F89D12B7A012B40F20B816B7B05F10C08002B00F00381AB7B18F803000BF07F
:2046600059FB2B7A012B40F2FC806B7B012B40F2F680AB7B98443C4698F801000BF04AFB58
:2046800006F13403C6E91E77C6E920777762F762736762E72E68012A06F10C0100F0E180F7
:2046A0006A7B012A05F10C0340F2D980AA7B069113446F4A0592B46A93F80180002C63D16D
:2046C000F36FC6F88030F36AC6E91E44002B00F0B58006F12C0393E8030006F1240383E81F
:2046E00003000023F36205A94046FEF7F7FC0446EB69002B3FF431AF0021284698472CE7C6
:2047000003F01F03012B7FF432AF8E78062E7FF42EAF05A8039200F0DFFC03AB00930746DF
:20472000E278217928463B46FEF7ACFA05283FF41EAF601C039A394600F0BEF904460CE752
:20474000EB69002B3FF408AF01212846984704E7B1F80720072A7FF40AAF3373B1F80730E3
:20476000DBB2737300200E36CDE90563079000F0DDFF05A90020FEF79DFC0446002866D0DD
:20478000002000F0DBFFE8E6D6F884A0706A544528BF544606F134092246494616F044FB0B
:2047A000F26FF767AAEB040309EB04011444F26AC6F88040C6E91D13002A42D006F12C072E
:2047C00097E8030006F124044FF0000984E80300C6F82C90DBB938E0706A16F025FBB26A3F
:2047E000B36FC6F880209B1AB367736F13447367EB6913B1002128469847F36A13B397E82F
:20480000030084E80300B36FC6F82C90EBB1B26A716F9342E0D21A46706A16F005FBB26F0A
:20482000B36AF2679B1AB362736A1344736253B105A94046FEF752FC044659E70023736232
:2048400056E700237362002452E7736AEFE7094B03A9CDE9033500F02BFC044690E73B789A
:20486000FFDE7B78FFDE1B78FFDE5378FFDE00BFFD440000D94400000368B3F820C01CF054
:20488000010F18D00B46017A012918D9417B00F10C0C91B110B5817B84B01CF80100910691
:2048A0000CBF0124002401A9CDE901320394FEF701FC04B010BD082070470B78FFDE0023E5
:2048C0005B78FFDE0368D3F880007047F0B50468238CDB0783B022D50546002016460F46D3
:2048E00000F024FFA26F42B9636AE3B11124002000F024FF204603B0F0BD964228BF1646EF
:20490000616F3246384616F08FFAD4E91D32921B3344C4E91D32C4F880600024E7E708245C
:20492000204603B0F0BDC4E909762A7A012A12D9697B012905F10C020FD9AB7B084D1344FF
:204940000C3458786946CDE90054FEF7C7FB041E08BF9224CBE75B78FFDE1B78FFDE00BFA7
:20496000CD380000002070472DE9F04F4B6885B0CDE900020C46002B70D00BF00BF8E5685E
:20498000019B9D4228BF1D468146002D7BD04FF0000A56464FF00108D346D4E90113AB420F
:2049A0001F4628BF2F46E1B13A4609EB060016F03BFAA268E368C4F804B0D21BED1B3E44B3
:2049C000DF1BA260E76022B3002F08BF4FF00008002DE2D1009BC3E90096404605B0BDE8E5
:2049E000F08FABB1204609EB060250F8101B4B68D3F804A03B46D047A268E368D21BED1B03
:204A00003E44DF1BA260E7605AB14FF0010ADBE7E768BAF1000F04D15FB9B846002DBCD10C
:204A2000D8E723681B681B6823604FF0010A002FF3D02168F1B1CDF808B003E0A368216848
:204A40000133A3604B6800225F6802A80123B8470028F3D12061002D9FD1BBE70B681B6814
:204A60001B68002B89D18B68002B86D1C0E900339846B2E76160002EACD0019BB34288BF23
:204A80004FF00008A6E72E464FF00108A2E700BF08B50020FEF7A0FABDE808408020FEF750
:204AA0009BBA00BF08B50020FEF7AAFABDE808408020FEF7A5BA00BF70B5C38893421E4623
:204AC00028BF1646934284B00D4612D8002400200394CDE9015600F029FE01A98020FEF70F
:204AE000E9FA044688B1002000F028FE204604B070BD802014460AF047FEB4FBF0F202FB0C
:204B00001044B4FA84F46409E1E70BF01BF880280BD1094A094B92E8030083E803000020A2
:204B200000F00CFE204604B070BD002000F006FE1024204604B070BDE8AF0100C80900201C
:204B40002DE9F04F0B780E2B89B00CD893B1013B0D2B0FD8DFE803F07118130E33480E0E8D
:204B60000E0E18621D23852B04D1A64B1A78032A00F025810625284609B0BDE8F08FA24834
:204B800008F0D4FF002878D10025284609B0BDE8F08F4FF08043D3F83834DB075DD4994B39
:204BA0001A78012AF0D0994999480A78012422F002021C700A700025FEF706FBDBE70523ED
:204BC0000DF115008DF814300AF026FF9DF81530904E002203F01F043260032C00F2968021
:204BE000DFE804F096BF766DC87803280C46C1D0884E3368002B00F0EE80002271683260ED
:204C000098470546002860D13368002B00F0E580A378002BB8D10AF021FFACE7794A13782C
:204C2000002BB1D079497A480B78002523F0020315700B70FEF7C8FA9DE7724A1378032BD4
:204C400098D0724972480B78032423F0020314700B700625FEF7B8FA8DE76A4A1378022B04
:204C600092D06A496A480B78022423F0020314700B700025FEF7A8FA7DE7674B0122DA6579
:204C8000BFF36F8FBFF34F8F7EE79DF81620062A00F03381082A00F01F8182B95B495F4B85
:204CA00009781A80890744BF02221A705B4902220DF11500FFF700FF0546062D03D105A8C9
:204CC000FEF7E2F90546002D41D00AF031FF52E79DF81900020707D005A9FEF7BFF9062801
:204CE0000546F0D19DF8153013F0600F0ED19DF81630444A9DF819401278012B00F0A08060
:204D0000032B00F08D80002B00F0AD800625DCE713F0600FC3F34117D1D1DB09B5D19DF811
:204D20001630032B00F0B280092B00F0BE80012BC5D1BDF81730012BC1D1FEF745F90028A4
:204D400000F0F180314A137823F0020313703368002B4BD00AF0F6FE054600287FF414AFD9
:204D600059E79DF8190003A9FEF752F90446002840D09DF80C1005AAFEF76CF906280546A4
:204D8000A1D19DF8152012F0600F9ED11D4B9DF80C101B78D20940F0DB809DF816200B2AE5
:204DA00093D1052B70D1BDF81730FF2B00F2BD809DF817202046FEF7A5F9054683E71349F3
:204DC00013480A78042422F002021C700A700625FEF7FAF9CFE60E2577E74FF08053D3F87C
:204DE0003021082A08D00AF099FEC4E60AF096FE0025C0E6102568E7D3F83431002BF2D122
:204E0000C2E600BF19450020D00900201A450020B0AF0100C809002000700240D409002035
:204E200025073FF573AFBDF81730002B7FF46EAF052A01D0200727D120460AF0AFFD86E7A1
:204E400021073FF563AFBDF81730002B7FF45EAF052A01D0220717D120460AF0CDFD20469C
:204E60000BF00AFA73E7052A01D027070CD120460AF0A0FD8549034602220DF115000B80F8
:204E8000FFF71AFE05461EE708251EE7BDF81730012B7FF414AFFEF797F8002843D07C4A9F
:204EA000137843F00203137051E77A4C2378043B012BE9D89DF81730002B38D0012B34D1A7
:204EC000FEF7D6FC2378052B3FF441AF052372482370FEF779F93AE76E4A1278052A4ED091
:204EE000042A7FF4ECAE694B1F70684901220DF11500FFF7E1FD0546DFE69DF81830022B5F
:204F000056D0032B3ED0012B7FF4D9AEBDF81B30002B3FF46BAF614912220DF11500FFF7AA
:204F2000CBFD0546C9E60F25CFE60725CDE6FEF7B7FC2378042B3FF40AAF554A56481378C1
:204F4000042123F0020321701370FEF73DF9FEE69DF81670002F7BD00A2F7FF4B6AE052B1C
:204F600092D120460192FEF77DFC4849019A03460B700DF11500FFF79FFD0546A3E6434A71
:204F80001370B2E7BDF81B30002B3FF42FAFBDF819109DF8170000F0B7FB014600283FF4EB
:204FA0008EAE02780DF11500FFF786FD054684E6BDF81B30002B3FF419AF092B28BF09238D
:204FC0009946FEF71FF84FF0090A0546B8B103974FF0000801E008F101086A680123D2F85C
:204FE00004B02946002203A8D8470028F3D12A682B7A15681C44C244E4B2002DE7D1234DB1
:2050000027494A46284615F00FFF2C71A5F802A0FDF7DAFF18B1EB7943F02003EB71FDF793
:20502000F1FF204B1860BDF81B20DA600020C3E9015900F07BFB1C498020FEF74FF805465B
:2050400090B1002000F07AFB062D7FF43EAE36E6052B7FF419AF0D4902220DF115000F8055
:20506000FFF72AFD05462EE60AF06CFD802808D10E4B93E8030086E80300284600F05EFBD1
:2050800065E6284600F05AFB10251EE6D40900201A45002019450020B0AF0100D4AF0100FB
:2050A000B4AF0100B0090020F0AF0100E8AF010038B505460C460AF045FDA84207D194E877
:2050C0000300044A82E803000023184638BD1023184638BDC809002008B14023036001485D
:2050E000704700BFD409002030B50C7A002C75D001F1090E0468002C00F0AD816FF4AB751F
:2051000004EB050CBCF1140F6AD8BCF1140F67D8DFE81CF01500FA0060018B0171018201AA
:2051200057014E01E70066006600D300BF006A0066002B0069015C007A0124004901002AAF
:2051400000F0D98104791470012B4FF00404047140F27781A44601250224DCE04FF0010CB4
:20516000002442B390F804E084E04FF0010C0024002A40F063810A8A9C454FEA1222027143
:2051800080F07D810CF101044A8A02719C4280F0718104F1010C4A8A9C454FEA1222027181
:2051A00080F063810CF101048A8A0271A34240F24D8104F1010C8A8A63454FEA122202718F
:2051C00062D840F26B130360012030BD4FF0010C0024002ADFD090F804E031E0A64689E752
:2051E00000230360184630BD002A00F0CB8190F804C01546012485F800C091F810E080F87E
:2052000004E0A34240F2408104F1010C02F804E0B1F810E09C454FEA1E2E80F804E080F027
:205220002E8102EB0C050CF1010485F800E091F812E080F804E09C4280F01C8104F1010C9E
:2052400002F804E0B1F812E09C454FEA1E2E80F804E080F00A8102EB0C050CF1010485F89B
:2052600000E091F814E080F804E09C4280F0EE8004F1010C02F804E0898A63454FEA1121B3
:2052800001719ED96244117040F26D130360012030BD002A00F0788190F804C001244FF018
:2052A000000E02F80EC0A3424FF0090C80F804C040F2EF80151901349DE7002A00F066811A
:2052C00004794FF0010E4FF0000C02F80C4073454FF02104047140F2E180A4460EF1010460
:2052E000DFE7002A00F0488104794FF0010C4FF0000E02F80E4063454FF00904047140F20C
:20530000D2800CF1010EE0E7002A00F0378190F804C00124002502F805C0A3429EF800E0E6
:2053200080F804E040F2E28004F1010C02F804E063454FF00004047140F2D3800CF1010EAC
:2053400002F80C4073454FF00004047140F2C4800EF1010C02F80E4063454FF0FF0404716E
:2053600040F2B5800CF1010E02F80C4073454FF00104047140F2A6800EEB040C02F80E405A
:2053800063454FF00104047140F297800CEB040E02F80C4073454FF00004047140F288806A
:2053A0000EF1010CA5E7002A3FF46EAF01796AE7002A00F0F18004794FF0010E4FF0000C6F
:2053C000E6E7002A00F0E48004794FF0010C4FF0000ED3E7002A00F0E38090F804E04FF08A
:2053E000010C0024A2E7002A00F0CA8090F804E01546012419E7002A00F0D08004794FF07D
:20540000010C4FF0000EA5E7002A00F0C38090F804E01546012422E7002A00F0C38004797A
:205420004FF0010E4FF0000C9EE7002A00F0A28004794FF0010E4FF0000C81E790F804E028
:20544000E4E64FF4AC730360012030BD4FF4B5730360012030BD09240471002B7FF46FAE76
:2054600040F257130360012030BD40F269130360012030BD4FF4B4730360012030BD40F2F3
:2054800067130360012030BD4FF4B3730360012030BD4FF4B2730360012030BD40F26313C6
:2054A0000360012030BD4FF4B1730360012030BD40F25F130360012030BD4FF4AF730360C6
:2054C000012030BD40F25D130360012030BD4FF4AE730360012030BD40F25B1303600120B2
:2054E00030BD4FF4AD730360012030BD40F259130360012030BD0422012B0271A1D9022477
:205500009EF800200271A342F0D9013400229C420271E6D201340022A3420271DCD90134BB
:20552000FF22A3420271D2D9013401229C420271C8D214440122A3420271BED91444002220
:20554000A3420271B4D901340922A3420271AAD901342122A3420271A0D9013409229C42A4
:20556000027196D201340A8A02719C428CD204F1010C00E60124CEE70124E5E70124BFE75A
:20558000012401E60124EEE70124E7E70124E0E70124CFE7012407E60124D0E70124BFE792
:2055A0000124B3E70124C0E70B780E2B0BD8DFE803F0080808080A0C080A0A0A0A08080889
:2055C00008000020704706207047F0B54B78DA0985B00C46064611D15B09012B02D0062087
:2055E00005B0F0BD8C78002CF9D102681373036A002B39D0214698472046F1E713F0600FC8
:20560000C3F3411214D0012AE9D18B78072B09D0082BE4D1C2688169601C05B0BDE8F040A8
:20562000FFF74ABAB1F80720182AD8D1C169F3E703F01F03012BD2D18D78062DCFD103A84A
:205640000292FFF749FD02AB00930746E278217930463B46FDF716FB0528C0D0029A394625
:20566000601CFFF729FABBE71846B9E770B54FF0805286B0D2F8A830D2F8A41000916FEA7F
:2056800083436FEA93430B4A0B4E9BB20D2102A80FF06AFD02AD002404E015F8013B06F8DE
:2056A000013B013402A815F0F9FB8442F5D306B070BD00BF0CB00100140A002010B5114B8A
:2056C00053F8204023780BB9A01C10BD0020FFF703FD217899B12246C4F1010C02EB0C0318
:2056E000DCB2234620F8141012F8011F0029F5D101335B00DBB243F44073038010BD40F2D6
:205700000233FAE774B0010040B1052808D8054A105C28B1044B53F820300BB1FFF7CEBF93
:20572000002070478CB0010074B0010072B6024A1368013313607047240A0020034A1368CD
:20574000013B136003B962B6704700BF240A002010B50446006830B100210BF0E1FA54F867
:20576000040F0028F8D110BD2DE9F043038883B0044643B1B3F5867F0CD1822910D00120DD
:2057800003B0BDE8F0834FF486730120238003B0BDE8F08300230380032003B0BDE8F083DF
:2057A00004F08CFDBFF35F8F19491A4B0E6800220A601F781A70FFB2BFF35F8F164D04F03A
:2057C00081FD28680028DED0DFF85090DFF8508003E055F8040F0028D5D090F84A3026FA55
:2057E00003F3DA07F5D590F8493047FA03F3DB07EFD502F0E7FD0028EBD02B68D9F80020ED
:20580000009218464246022102F058FDE1E700BF380A00201E4500206000002090260020E4
:205820009D58000010B50D4A90F84B3082B004460133106884F84B30094A0090234604F1F4
:205840002000802102F03AFD064B19782246002002B0BDE810400BF011BB00BF90260020F1
:20586000255800001B45002010B4094A094C1368194311602178012202FA00F040EA0103A1
:20588000DBB2237004485DF8044B0BF029BB00BF380A00201E4500206800002070B582B096
:2058A000044602F08FFD08B902B070BD04F12006304602F087FD94F84A10054694F8490073
:2058C00004F0BEFC48B994F8483063B9002DEBD1304602F05DFD0F4B14E00128F6D194F884
:2058E0004830002BF2D1002DDED00B4B0B4A1B68002584F84B50304600937E21234602F0FA
:20590000DDFC074B19782246284602B0BDE870400BF0B4BA1D4500209026002025580000B0
:205920001C450020044B1B78834286BF034B53F820000020704700BF04170200600000200E
:20594000F8B50BF0E3F9304B304C18700BF0DEF92F4B304F18700BF0D9F92F4A2F4B1070B1
:2059600022687B600025FF213972FD60002A42D02B4E09E091F84A00F9683A72834054F8E8
:20598000042F0B43FB60B2B392F84A3092F84910526C03F01F0343EA41131F2BC6BF03F0C9
:2059A0001F0331464FF0A04103F5E07342F08C0241F82350236893F84A1093F8490004F03F
:2059C000FBFB226892F84A3092F8490003F01F0343EA4010012108F0FBFA2168387A91F80B
:2059E000492082424FF00103C4D0FF28C2D054F8042F002AC8D10B4800210BF091F9BDE80A
:205A0000F840044804F030BC1C450020600000201D450020280A00201B450020695800000C
:205A20000003005068000020042800D0704708B5054A13680133136004F054F800B908BDEC
:205A4000BDE8084004F026B83C0A002000B5134B83B000221A6008F099F8C0B9002008F025
:205A6000B1F80F4B0F4A93E803000090ADF804100D48694608F02EFD60B901210A4808F057
:205A80007DFD094808F06EFD03B05DF804FBFDF793F8E3E7FDF790F8EFE700BF3C0A002011
:205AA000C0B00100295A0000C8B00100014B1868704700BF3C0A0020014B1868C009704785
:205AC0003C0A00200346806A59600BF009BA00BFF0B5858C83B0044617461E464DB36A2D6C
:205AE00022D182294AD14568002D62D00023009304F1180204F11401284601F051FD227EC5
:205B0000131E18BF012384F82030D4E90431994246D0637E0133DBB26376002A3AD0032BCD
:205B20000ED9042384F820300023A384032003B0F0BD244B4560C0E904551B6883620583B8
:205B400001F000F93946308100F03CFE2060F0B11D4BC36323681C64216991B92168304674
:205B6000463101F005F92368A3F84400206800F043FE6A230120A38403B0F0BD012003B093
:205B8000F0BD80230022304601F026FDE6E7A0840220CCE7032BC4D8022384F82030C3E7DE
:205BA000089B606898472369227E01332361637EB3E7032380F820302846089B9847A58435
:205BC0000220B4E790260020C55A000010B5846882B01CB194F90830002B01DB02B010BD18
:205BE000236A002BFAD01A68002AF7D00749097831B11B6A23B101909847236A01981A688C
:205C0000002302B0BDE8104000F082BD1F4500202DE9F0479846124B82B01C68DDF828A02C
:205C200084B106460F469146656843464A463946304625B1CDF800A0A847054638B92468EA
:205C4000002CF1D10025284602B0BDE8F087B379012BF8D13A463146002000F039FBF2E7C0
:205C6000400A00202DE9F04F2DED028BA44CA54E05468BB02046884601F020FAC4F8A0506A
:205C80000346307008BBA279013A032A62D9636823F07F4323F0FF03002B4FD06379032B91
:205CA00000F02881208900F03DFE074600284DD0D0E90F9700F020FEB9F1000F00F09180BE
:205CC0008F493846C847337843B30027C22B2BD0DFF84C92384600F00FFE3278C32A69D0AF
:205CE000BF2A84BFA022327002212389844801F031F8D9F800100391084615F0CFF8039934
:205D000002467F4801F0C2FC41467D4801F030F8414682B2284600F019FF337818460BB06B
:205D2000BDEC028BBDE8F08F384600F0E5FD337818460BB0BDEC028BBDE8F08FC32320890C
:205D4000337000F0EFFD07460028B1D13378002BE4D0BBE703902946208900F033FD074689
:205D6000002842D0039B0893CDE9063363798022ADF8162063BB238963484522022100F079
:205D8000E9FFA27A002A40F0B08007AB00935C480DF11603002206A901F002FC70B9089BE9
:205DA000002B2ADADFF87891584BC9F80030822333708FE700223270032196E7BDF8163022
:205DC000802B28BF8023ADF81630079B0893E7E700F0B8FF4522034601214B4800F0BAFFE3
:205DE000CFE73378002B99D06FE7DFF83491484BC9F80030A32333706CE708A9BDF81630D0
:205E0000009107F1840240493D4808EE903A08EE102AFFF7FDFE00284ED1099009A9384872
:205E200001F098FB3B4BD3F800908246B9F1000F7AD0099B03979B462B464D4699460AE046
:205E400006DD2A7AD30603D51BF800202F2A08D02D68002D66D06F68384615F01FF8824576
:205E6000EED102465946384615F020F80028EFD1A279039F4B46511EA946012A1D464FF080
:205E8000010303FA01F300F0C180990740F1A980D9F814A0BAF1000F00F0A38008AB1A497A
:205EA000009318EE102A18EE903A1548D04799F80830590600F1C0803378002B7FF406AF74
:205EC000A37D1A0758D5DFF8409099F90630002B52DB99F816301B074ED4DFF844900E4B6E
:205EE000C9F80030A1233370F4E60C49064801F01DFB4AE72189284600F0BCF9D2E600BF5F
:205F0000480A002021450020F40A0020D0B00100F0B00100440A0020E0B00100530A0020CD
:205F2000D4000020039F4D465948842101F0F8FA5748842101F0F4FA3378002B7FF4C6AE2F
:205F4000534807F1460100F013FF80B2A7F8440020B9C123DFF844913370BBE63378002BCD
:205F60007FF4B4AE384600F047FC337818460BB0BDEC028BBDE8F08F637DD91116D1089A2A
:205F8000002ADDD0DFF80891013218BF01228023484601F021FBB9F8A420D9F8A810802AA7
:205FA00028BF8022484601F071FBC5E7DDE90723934232D00133069944D0BDF81630DFF841
:205FC000D0900122324801F007FBBDF81620B9F8A4309342B0D9D9F8A8102D4801F056FBC3
:205FE000AAE75A0705D5D9F818A0BAF1000F7FF455AF180705D5D9F81CA0BAF1000F7FF468
:206000004DAF8521224801F08BFA91E7D9F810A0BAF1000F7FF442AF37E7DFF87490B9F83D
:20602000A420934219D382231A4989F8063048460F2201F02BFB7FE7154A1749484600F0A3
:2060400047F939E7DFF84890BDF81630B9F8A4209A4294BF00220122B4E7D21ABDF81630CB
:2060600006999A4294BF00220122484601F0B4FA0799B9F8A430BDF816205B1A9A4228BF98
:206080001A46D9F8A8304846194401F0FFFA53E7F40A0020D0B00100480A0020D4000020E3
:2060A00010B504460D486160214604F0D3FA94F90830002B00DB10BD206A0028FBD0036A11
:2060C000002BF8D00268002AF5D0054BC0E903340023BDE81040083000F01ABB440A0020C1
:2060E000CD5B000038B50A4A137803B138BD094D094C0A492B600120107009482360FFF70F
:20610000CFFF00F01DFDBDE8384000F00FBE00BF1F450020400A0020440A002000B1010000
:2061200084000020014B1868704700BF440A002000B10068704700BF2DE9F041114F3C6831
:20614000E4B1DFF844800546002601E0246894B1294604F1180000F055FC0028F6D02146DA
:20616000404604F003FC2146384604F0BFFA24680136002CECD13046BDE8F08126463046FA
:20618000BDE8F081A00B0020780000202DE9F047DFF86890D9F8004064B3DFF864A005461C
:2061A0000F4616464FF0000801E02468FCB1294604F1180000F026FC0028F6D094F82C3069
:2061C000B342F2D13246394604F12D0014F01CFE0028EAD12146504604F0C8FB2146484644
:2061E00004F084FA246808F10108002CDFD14046BDE8F087A0464046BDE8F087A00B0020CE
:20620000780000202DE9F047DFF86090D9F8004044B3DFF85CA006460F464FF00008251DCD
:20622000314604F1180016B100F0ECFBA0B1BD42284607D014F032FE39460246284614F03A
:20624000E3FD48B92146504604F090FB2146484604F04CFA08F101082468002CDFD14046C2
:20626000BDE8F087A0464046BDE8F087A00B0020780000202DE9F843DFF84C80D8F8004013
:20628000ECB1DFF8489005460E460027294604F1180000F0B7FB10B1E38EB34205D0246846
:2062A000002CF3D13846BDE8F8832146484604F05DFB21464046013704F018FAEFE72746A1
:2062C0003846BDE8F88300BFA00B0020780000208B79012B00D070472DE9F04792F9063039
:2062E000002B82B015464EDBCB7C5B060C464AD5D1F8A070002F46D04B6E4BB1012B42D192
:206300008A7A38460B3102B0BDE8F047FFF73EBF096E0191384694F80AA0D4F85C80FFF7E3
:2063200071FF1F4804F006FB064678B3B8F1120FC146C4BF4FF01308C1464246019904300F
:20634000B14414F071FD3946002706F1180089F8047000F043FB524604F10B0186F82CA01B
:2063600006F12D0014F060FD0E48F786314604F071F9B16B4B1CB363284601F009F9B36BD8
:2063800023F07F43B36302B0BDE8F0870649A32310222846AB7102B0BDE8F04701F076B9C5
:2063A00078000020A00B002014B101002DE9F04F2DED028B83B008EE101ADDF83890019235
:2063C0009846FFF7AFFE002800F0BB800025D9F800B006462C46A34508D8454512D2019BB3
:2063E0004FF03C025A55D9F800B00135631C5B4508D3454506D2019B4FF02F025A55D9F8D2
:2064000000B00135D6F804A0504614F047FD023427185F453FD801D1454554D3D6F80CB009
:206420007C1CBBF1000F17D09BF80030A3B1D9F800A0A24509D8454507D2019A3B235355CE
:20644000D6F80CB0D9F800A00135584614F026FD02373C1854453BD8454504D9D9F80030A5
:20646000621B9A4246D83046FFF762FE0646002856D0D9F800B0002CADD0A34507D84545C4
:2064800005D2019A2C235355D9F800B001350134A345ABD8A1E7019AABEB040B08F1010179
:2064A0005019BBF1000FACBF0AEB0B030AF10003491B284A0EF058FE0544454530D2D9F87C
:2064C00000309F42AAD3019A3E2353550135A5E7019AAAEB070308F101015019002BACBF94
:2064E0005B440BF10003491B1A4A0EF03DFE05444545B8D9019918EE100A2A4601F0C6F8C0
:2065000018EE100A282101F01DF8D6B1D9F800304344C9F8003003B0BDEC028BBDE8F08FFF
:20652000002DE7D1002CF0D0822118EE100A00F0F7FF18EE100A08490F2201F0A7F8002E81
:20654000E4D14FF0FF33C9F8003003B0BDEC028BBDE8F08F28B10100D0B0010001480AF079
:20656000BFBC00BFA800002038B5038804463BB15C2B0DD188290FD082290DD0012038BDD8
:206580001B48802103F08CFA5C232380012038BD00230380032038BD00F0EAF80546F0B9C2
:2065A00000F0CAF850EA010319D0124BC9014FEAC01C41EA5061634575EB010313D3BCF547
:2065C0007A7F71F1000311D34FF47A720023604614F098FA0146064803F062FAD4E70648FE
:2065E0000AF07EFCD0E74FF4F051F4E70121F2E7AC0B0020E7337500A800002010B5FFF72D
:2066000055FA0C4B1968411A03D10B4BD3E9000110BD094A18604FF47A70A1FB0013146821
:20662000C80940EA43605168001941EBD311C2E9000110BDA80B0020B80400200148002148
:206640000AF06EBBA80000202DE9F043244A137883B081464BB3DFF88C80D8F80070214889
:20666000494604F043F8D8F8001079B3D9E904654FF0000C03E00C688C4654B32146D1E989
:2066800004349E4275EB0403F5D24A461548614604F050F8D8F80090B94514D0124B9B6842
:2066A000019303B0BDE8F04318470F49DFF834800F68C8F8003001211170002FCFD0B847A2
:2066C000D8F80070CBE703B0BDE8F083B9F1000FE2D04A46034804F02DF8D8F80090DBE77C
:2066E00020450020BC0B002048B10100064B10B55B6804469847C4E9040121460348BDE829
:20670000104003F0F3BF00BF48B10100BC0B0020084970B5496805461E46144688472418A9
:2067200046EB0101C5E904412846BDE87040FFF78BBF00BF48B1010010B50B4B1C687CB1AB
:206740000A4B5B689847D4E90423904271EB030402D30020014610BD101A63EB010110BDD9
:206760004EF66020214610BDBC0B002048B10100F8B5124F124E7D68A84734682CB1D4E9C8
:206780000423904271EB030301D20020F8BD2146304603F0ABFF63680BB120469847BB688D
:2067A00098473368002BF0D0D3E90464A847B04271EB04032CBF01200020F8BD48B1010031
:2067C000BC0B002070B5064609480D4604F0B2F8044658B1002326302946A68084F82430EE
:2067E00000F0FCF80348214603F034FF204670BDB8000020C00B00202DE9F04190F8463042
:2068000013F0300F0446C3F3011530D190F82430042B18D92630D4E90F67FFF78DFC04F126
:206820000800FFF763FF2A48214603F05FFF2948214604F09BF8002E47D0294638463346C4
:20684000BDE8F0411847B0F8442000F14601263000F07CF994F82430F3B1226A520022621E
:2068600004F108000023BDE8F041FFF751BFB0F8442000F14601263000F068F904F1080034
:20688000FFF734FF2146124803F030FF21461148BDE8F04104F06AB80F4A104BC4E90324B8
:2068A0005B6898470E4A80B2A2FB0032920A40F2DD5303FB120202F6B832226204F108006A
:2068C0000023BDE8F041FFF723BFBDE8F08100BFC00B0020B8000020E5680000B01302003D
:2068E000B76FA5AE806830B190F82430013380F82430FFF781BF704770B110B50446083025
:20690000FFF7F4FE2146054803F0F0FE21460448BDE8104004F02AB8704700BFC00B00201B
:20692000B8000020044B02E09A88824202D01B68002BF9D118467047C00B002070B502886F
:20694000044662B140F2DD139A4217D11B4B1B788B4217D040F2DD132380012070BD1146DD
:2069600010460FF0BDFC164B186020B343F21633038240F2DD1323800120EFE700230380F8
:20698000032070BD0F4B1B789B07E3D50E4B0F490F4D09880F4E03F120028A5A2A8200219E
:2069A000A9740FCB85E80F000B4B328819682846FFF758F9CEE72080022070BD55450020C0
:2069C000DC0B00205A450020EC3B00200E450020C80B002010450020E44000208B68D1F8CF
:2069E00000C04A6800B5D1F80CE0C0F80CE0C0F800C0426083600B8A03828B7C83745DF8AD
:206A000004FB00BF38B5102205460C4614F0FCF958B92A8A238A9A4200D038BDA87CA37CAD
:206A2000C01AB0FA80F0400938BD002038BD00BF2DE9F0470E1E8AB08146904639DD0346A1
:206A4000002402E00134A64233D01F4613F8015B5B2DF7D1A6422CDD09EB04032546AA46AD
:206A60000135AE4225D013F8012F5D2AF7D133490622484614F01AFAB0FA80F04009A542DD
:206A800088F812001FDD3846414612F0E7FBD0B10AF1020A09EB0A0019F80A303A2B32D047
:206AA00098F812303BB343F21643A8F8103001200CE022490622484614F0F8F9B0FA80F06B
:206AC000400988F81200272E03D900200AB0BDE8F08732464946684614F0A6F906F128033A
:206AE0000DEB030600234146684606F8283C12F0B5FB0028EAD043F216330120A8F81030C8
:206B00000AB0BDE8F087023E761BC9D00022114604E001318E4203EB440209D010F8013F81
:206B2000303BDDB2092D02EB8204F2D90029B7D052BAA8F810200120C8E700BF54B10100C6
:206B4000014800210AF0ECB8C400002070B582B0B8B11446028848F2FE039A420E460546EF
:206B600003D00A4B5B6A984758B1094A2B8A1068009322462B46314610F030FF204602B096
:206B800070BD4FF0FF34204602B070BD4C130200DC0B00200C2841D9B0F5867F94BF6FF0FF
:206BA0002F0C6FF01F0C0C2936D9B1F5867F94BF0D230E2343EA0C03B0F5867F137017D914
:206BC0006FF48673C3181B0A0D385370907002230320B1F5867F16D96FF4867C8C444FEA01
:206BE0001C2C02F800C01A440D39D81C917070470C280ED90D38B1F5867F50704FF0010335
:206C00004FF00200E8D80C2902D90D3911540130704701200023DCE74BB2CBE703014FFACD
:206C200083FCC0E72DE9F0411C46260C14F07F484FEA06460B46154614BF01210021CEB1C2
:206C4000013124F0FF07C01A02312A46FFF7A2FFB8F1000F17D0230E2B54431C16B3220C2F
:206C6000EA54023017B1230A2B5401302C540130BDE8F08134F0FF07E5D14CB9BDE8F0417D
:206C8000C01AFFF787BF76B1230C2B540130EAE7C01A0131FFF77EFFB8F1000FDBD1002CF8
:206CA000E6D0E3E71846002FDDD1002CE0D0DDE72DE9F04F83B01F460C9B9DF834B0002448
:206CC000013382468E4691460193B8462646A44604E0019B01349C42A44622D817F80C3063
:206CE00007EB0C05A5EB08055B4509EB0602AAEB0E00294602D00C9B6345EAD1FFF74AFF2B
:206D00000644414609EB06002A4614F08DF80134019B07EB040801349C422E44D646A44655
:206D2000DCD9304603B0BDE8F08F00BF08B5034B5B689847024B188008BD00BFB0130200B7
:206D400000450020024B1888013080B21880704700450020F8B504460F4616461D46AC22F1
:206D6000002114F089F86771A6712581F8BD00BF2DE9F04301220023016002710B7002681C
:206D80000E461378017943EA811313700268437911781B0103F030030B4313700268837A2D
:206DA000117803F00F030B431370036882795A70038902681B0A937003680289DA708379EA
:206DC00083B00446002B00F06A810268837A151D6BB16FF0030100F10B03891A13F8012B3F
:206DE00005F8012B94F80AC06A189445F6D8E37C9807C3F3400111D594F86A702A463946BB
:206E00000120FFF7C7FE3A46804604F16B01281814F00AF84744E37C3D4401211A0711D515
:206E2000D4E910792A46C1F103003946FFF7B2FE494680463A46281813F0F6FF4744E37CCB
:206E40003D440321DF0612D594F824702A46C1F104003946FFF79EFE3A46804604F1250109
:206E6000281813F0E1FF4744E37C3D440421980606D5C1F10501090105F8011BE37C052186
:206E80005A0607D5636E2A460620FFF7CBFEE37C05440621DB0907D02A46B4F85030072043
:206EA000FFF7C0FE07210544237DDF070BD52F230193A36C0093E36C2A460820FFF7F8FEEC
:206EC000237D0544082118070BD52F230193E36D0093236E2A460B20FFF7EAFE237D0544E5
:206EE0000B21DA0607D5A38B2A460C20FFF79AFE237D05440C215F0607D5236A2A460E20D0
:206F0000FFF790FE237D05440E21DB090CD026230193D4F8943000932A46D4F898300F20E2
:206F2000FFF7C6FE0F210544637D980708D5B4F868302A461120FFF775FE637D0544112119
:206F4000DA060BD526230193636D0093A36D2A461420FFF7ADFE637D05441421DB091CD0AE
:206F6000636F94F878201B01002A40F09C80B4F87A200020120900F1010C520886461FFACB
:206F80008CF0F8D118B10EF00F0E43EA0E032A461720FFF747FE17210544A37D1F071DD5EF
:206FA000D4F8803094F884201B01002A7ED1B4F886200020120900F1010C520886461FFAC6
:206FC0008CF0F8D118B10EF00F0E43EA0E032A461B20FFF727FEA37D05441B21D80607D525
:206FE0002A46D4F88C301C20FFF71CFE1C210544E37D1A0711D5D4E90C792A46C1F12300D9
:207000003946FFF7C7FD494680463A46281813F00BFF4744E37D3D442321DB0910D0D4E9E4
:207020000E792A46C1F127003946FFF7B3FD8046494628183A46474413F0F6FE3D442721FB
:20704000A37EDB0612D42368EB1A3E2B19DCB4F8A420F2B9D4F8A810284613F0F3FEB4F8AD
:20706000A400AD1B284403B0BDE8F083D4F890302A463C20FFF7D6FD23680544EB1A3E2B0A
:20708000E5DD0C4B0C4A002020601A6003B0BDE8F083FF2305F8013BB4F8A420DAE70420EC
:2070A00003B0BDE8F08343F0080360E743F008037DE700BFD400002068B10100032A40F2B2
:2070C000D0802DE9F84F05460E4691460021A822043013F0D1FE2E6096F800A04FEA9A1AF3
:2070E00085F804A03378C3F301136B71327802F00F02AA727378AB717388BAF1010F5BBA83
:207100002B817AD1082A00F2AE80311D01EB020806EB090BD84573D805F10B0013F084FEEF
:207120000027D845C5F81370C5F8177080F0A68098F8004004F0F003F02B00F08181210903
:207140000D2904F00F045ED00E296DD008F101030D2C62D00E2C74D003EB0408C3454FD346
:207160000F443C2F4CD805EBD70107F00702C87C0AFA02F20243CA747A1E3B2A78D8DFE892
:2071800012F07F0077008B008E009A009D00AA00BA0077007700C100C8007700D700E4009A
:2071A0007700EC0077007700FC007700770003017700770077003E01220177007700770064
:2071C0007700770077006B007700770077006B007700770077007700770077007700770057
:2071E0007700770077007700770077007700770077007700770077003001B14BB14A1A6059
:207200008020BDE8F88F08F102039B45F8D398F801100D2C01F10D019CD1581C8345EFD3B4
:207220001C7803460D3497E708F103039B45E7D398F8021098F8012001F20D1101EB0221A6
:2072400086E7981C8345DBD35A781C7802F20D1202EB042403467FE7994B9B4A1A60A52052
:20726000CFE780207047964B984A1A608020C8E7FB0700F14B81C3453FF65AAF0020C0E7A9
:20728000082C224628BF082285F86A20194605F16B0013F0C9FDEEE7C5E91043EBE7082CD5
:2072A000224628BF082285F82420194605F1250013F0BAFDDFE785F89CA0DCE74CB1013CE4
:2072C0001919013B002413F8012F8B4242EA0424F9D16C66CFE7224654B1013C1C44002242
:2072E000013B13F8011F9C4241EA0222F9D192B2A5F85020BFE7AA6C002A40F0B180C5E9EA
:207300001243B8E7EA6D002A40F0BA80C5E91743B1E7224654B1013C1C440022013B13F87B
:20732000011F9C4241EA0222F9D192B2AA83A2E74CB1611E19440024013B13F8012F9942ED
:2073400042EA0424F9D12C6295E7D5F89420002A40F0BE80C5E925438DE7224654B1013CB8
:207360001C440022013B13F8011F9C4241EA0222F9D192B2A5F868207DE76A6D002A40F02F
:207380008F80C5E9154376E7002C00F0B780013C1C440021013B13F8012F9C4242EA0121C7
:2073A000F9D101F007021023934021F00F0494409BB2C1F3C002090985F87820A5F87A30DA
:2073C000EC67696757E74CB1611E19440024013B13F8012F994242EA0424F9D1C5F88C4056
:2073E00049E74CB1611E19440024013B13F8012F994242EA0424F9D1C5F890403BE7002C15
:2074000000F08080013C1C440021013B13F8012F9C4242EA0121F9D101F007021023934051
:2074200021F00F0494409BB2C1F3C002090985F88420A5F88630C5F88840C5F880101AE738
:2074400008F101039E1BA9EB0606B6B2802E88BF80260020C5F8A830A5F8A4609855D0E6DA
:207460001946EB6C2F209854A86CEB6C0130A8642246184413F0E6FCAB6C2344AB64FAE65D
:2074800019462B6E2F209854E86D2B6E0130E8652246184413F0D6FCEB6D2344EB65EAE6D5
:2074A0001946AB6D26209854686DAB6D013068652246184413F0C6FC6B6D23446B65DAE6E0
:2074C000D400002098B10100D8B10100B0B101001946D5F8983026209854D5F89400D5F82E
:2074E00098300130C5F894002246184413F0AAFCD5F894302344C5F89430BCE62146102320
:20750000224659E721461023224690E7024B034A1A60822075E600BFD400002004B20100CF
:20752000FF299ABF817101200020704710B5082A28BF0822144682720B3013F075FC204675
:2075400010BD00BF037D818343F0100303750120704700BF037DC3F3C0021B0702D5036E64
:207560000B60C26D104670470B782F2B10B5044603D111F8013F2F2BFBD02166084613F05E
:207580008DFC237DE06543F00803237510BD00BFC37C416643F04003C3740120704700BFF1
:2075A0008446407DC01115D010B411B1DCF874400C6012B19CF87810117013B1BCF87A20A2
:2075C0001A80019B1BB1019ADCF87C3013605DF8044B7047704700BFA3F1100CBCF5FE6F7C
:2075E00002D8B1F5801F01D30020704790F815C04167003A18BF01226CF07F0C80F8782091
:20760000A0F87A3080F815C00120704710B590F816E01EF0080F8446CEF3C00011D011B1AD
:20762000DCF880400C6012B19CF88410117013B1BCF886201A80029B1BB1029ADCF8883095
:20764000136010BDA3F1100CBCF5FE6F02D8B1F5801F01D30020704790F816C0C0F88010AC
:207660004CF0080180F88420A0F8863081750120704700BF11B1D0F8A8300B60D0F8A83061
:2076800013B1B0F8A400704718467047802A28BF8022C0F8A810A0F8A4201046704700BF43
:2076A00070B50D4602F0F2F8044602F0F5F8FCB1022C174A064601D0042C1AD1154916481D
:2076C00009F064FA3146154809F060FA45212846FFF726FF00212846FFF734FF304613F00C
:2076E000DDFB314602462846BDE87040FFF7CEBF70BD0B49084809F049FA3146094809F0DF
:2077000045FA2846A321BDE87040FFF709BF00BF20B2010080B2010034B2010088B20100FE
:207720002CB2010044B20100F0B587B0002407460E4603948DF80940ADF80A40049402F0F4
:20774000A5F8022812D0354A35490546354809F01DFA284602F0A0F80146334809F016FAE8
:20776000A3213046FFF7DCFE07B0F0BD04AB00930DF109020DF10A0303A93846FFF746FFE0
:2077800010B305A938460594FFF774FF044602F0BBF82649214A234809F0F8F903992448D2
:2077A000224609F0F3F99DF80930DBB15F213046FFF7B6FEBDF80A309DF8092003993046C3
:2077C000FFF740FF07B0F0BD144A1549154809F0DDF9184809F094FB80213046FFF7A0FE95
:2077E00007B0F0BD0D4A11490E4809F0CFF9124809F086FB44213046FFF792FEBDF80A3039
:207800009DF8092003993046FFF71CFF042002F04FF802F081F807B0F0BD00BF20B20100C9
:207820002CB2010034B20100C0B2010080B20100F8B201003CB3010020B3010008B5054962
:207840000548FEF72DFCBDE8084004490448FEF727BC00BF6CB30100D800002074B3010060
:20786000FC000020F8B5044617460E461F48802200211D4613F000FB0CB321467F221B488F
:2078800013F028FB1A4A1B481521FFF7D1F8FFF759FA3A460446034631461748FFF75AFA8A
:2078A0001DB115482946FFF75FFE104813F0F6FA0E4902461048FFF7E9FE2046F8BD0C4A4B
:2078C0000C481521FFF7B4F8FFF73CFA3A460446034631460848FFF73DFA002DEDD02946F0
:2078E0000548FFF741FE2046F8BD00BFE00B00200C0D00207CB30100600C002070B592B0C5
:2079000001A9002604460196FFF7B4FE054601F0BDFFA0B1002C42D0A37903F0FD03412B0C
